:020000040800F2
:10000000D00C0020A9010008B1010008B3010008CC
:10001000B5010008B7010008B901000800000000A0
:10002000000000000000000000000000BB0100080C
:10003000BD01000800000000BF010008C503000862
:10004000C3010008C3010008C3010008C301000880
:10005000C3010008C3010008C3010008C301000870
:10006000C3010008C3010008C3010008C301000860
:10007000C3010008C3010008C3010008C301000850
:10008000C3010008C3010008C3010008C301000840
:10009000C3010008C3010008C3010008C301000830
:1000A000C3010008C3010008C3010008C301000820
:1000B000C3010008C3010008C3010008C301000810
:1000C000C3010008C3010008C3010008C301000800
:1000D000C3010008F7050008C3010008C3010008B8
:1000E000C3010008C3010008C301000800F002F8C2
:1000F00000F04AF80AA090E8000C82448344AAF178
:100100000107DA4501D100F03FF8AFF2090EBAE875
:100110000F0013F0010F18BFFB1A43F0010318473B
:10012000581E0000781E00000A4410F8014B14F01D
:100130000F0508BF10F8015B240908BF10F8014B38
:100140006D1E05D010F8013B6D1E01F8013BF9D181
:10015000641E03D0641E01F8015BFBD19142E4D31D
:10016000704700000023002400250026103A28BF15
:1001700078C1FBD8520728BF30C148BF0B60704719
:100180001FB51FBD10B510BD01F0BEFE1146FFF733
:10019000F7FF00F00DFE01F0DCFE03B4FFF7F2FF05
:1001A00003BC01F0E1FE0000094880470948004710
:1001B000FEE7FEE7FEE7FEE7FEE7FEE7FEE7FEE717
:1001C000FEE7FEE704480549054A064B7047000074
:1001D000C5020008ED000008D0060020D00C002069
:1001E000D0080020D00800200CB50020019000901D
:1001F0006B48006840F480306949086000BF684877
:10020000006800F4003000900198401C01900098B4
:1002100018B90198B0F5A06FF1D16148006810F4E9
:10022000003F02D00120009001E0002000900098E3
:10023000012842D15B48006840F01000594908602D
:100240000846006820F0030008600846006840F097
:1002500002000860524840685149486008464068BA
:1002600048600846406840F480604860084640683E
:1002700020F47C1048600846406840F4E81048606C
:100280000846006840F08070086000BF444800687D
:1002900010F0007FFAD04248406820F00300404947
:1002A00048600846406840F00200486000BF3C4893
:1002B000406800F00C000828F9D10CBD10B5FFF71C
:1002C00093FF10BD10B53648006840F00100344976
:1002D000086008464068344908403149486008468B
:1002E0000068324908402E4908600846006820F43A
:1002F000802008600846406820F4FE0048604FF403
:100300001F008860FFF7DAFF4FF00060284908609F
:1003100010BD10B5002100200022214B5B6803F0C6
:100320000C0121B1042906D0082928D107E0214B6E
:10033000214C236027E01F4B1F4C236023E0184B08
:100340005B6803F47010164B5B6803F48032022381
:1003500003EB904022B9194B4343174C23600DE047
:100360000F4B5B6813F4003F04D0144B4343124C13
:10037000236003E00F4B43430F4C236003E00D4B1E
:100380000D4C236000BF00BF054B5B68C3F3031334
:100390000B4CE15C084B1B68CB40074C236010BD45
:1003A00000100240002002400000FFF8FFFFF6FEB0
:1003B00008ED00E000127A000000002000093D0076
:1003C000040000202848006800F180702649086079
:1003D000084600680860704710B504466FF00400D6
:1003E00000F0F2FD6FF07F404FF0E0214861002007
:1003F00088610846006940F00300086110BD1A4892
:1004000001684FF0E0208269C2F18070084409233E
:10041000B0FBF3F0704710B5FFF7F1FF04464FF45F
:100420007A70B4FBF0F010BD70B50546FFF7F3FF2E
:100430000446264602E0FFF7EEFF0646301BA842C0
:10044000F9D3A642F7D370BD70B50546FFF7D7FFC5
:100450000446264602E0FFF7D2FF0646301BA842BC
:10046000F9D3A642F7D370BD1400002010B54FF4A5
:10047000A06000F059FD10BD10B586B00446012102
:1004800044F2050001F0D4F84FF40070ADF8140008
:1004900003208DF8160018208DF8170005A966486E
:1004A00000F010FE4FF48060ADF8140004208DF8C9
:1004B000170005A9604800F005FE25208DF8000012
:1004C00003208DF8010002208DF8020001208DF834
:1004D0000300684600F02DFD01940020ADF80800EF
:1004E000ADF80A00ADF80C00ADF810000C20ADF826
:1004F0000E0001A9514801F0CCFA012240F2255129
:100500004E4801F05EFB01214C4801F04EFB0020FB
:100510004B4908704B49087006B010BD474909881F
:1005200021F04001454A1180111D088000BF434958
:10053000098811F0400FFAD0704730B504460D46D7
:10054000002304E0E05CFFF7E9FF581C83B2AB42F4
:10055000F8DB30BD00B5034603E01878FFF7DEFF97
:100560005B1C18780028F8D100BD3548007824308D
:1005700034490978401A242190FBF1F201FB120062
:10058000C0B270472F490A780978491C2D4B197061
:100590002D49885C19460978242902DB00211A4676
:1005A0001170704770B50346254800782430254DFA
:1005B0002D78401B242590FBF5F605FB1600C4B2F0
:1005C000A14200DD2146002211E01E480578007896
:1005D000401C1C4E30701C48405D985430460078DA
:1005E000242802DB002035462870501CC2B28A4203
:1005F000EBDB084670BD10B540F225510F4801F005
:10060000C5FBB8B140F225510C4801F0E9FB0B489D
:1006100001F03CFBC4B20A4801780078401C084A4B
:1006200010700948445410460078242802DB00204A
:100630001146087010BD000000080140003801405C
:1006400018000020190000203802002008B5012100
:1006500041F2040000F0ECFFE020ADF800001820AB
:100660008DF8030003208DF8020069464C4800F025
:1006700029FDE0214A4800F0D0FD08BD70B50546CF
:10068000002405E0601CC4B2C82C01DD002070BD50
:100690000221444801F083F90028F3D000242946C0
:1006A000404801F029F905E0601CC4B2C82C01DD06
:1006B0000020ECE701213B4801F071F90028F3D05C
:1006C0000024384801F01AF9C0B2E0E70FB410B5C1
:1006D000FFF7BCFF0021334801F0DDF802A93148E3
:1006E00001F034F801212F4801F0D5F8FF20FFF781
:1006F000C5FF10BC5DF814FB2A4909884FF6C77284
:100700001140284A118008283BD2DFE800F0040994
:1007100010171E252C3323490988224A118037E0FF
:100720002049098841F008011E4A118030E01D4926
:10073000098841F010011B4A118029E019490988F4
:1007400041F01801174A118022E01649098841F04A
:100750002001144A11801BE01249098841F0280148
:10076000104A118014E00F49098841F030010D4A08
:1007700011800DE00B49098841F03801094A1180C8
:1007800006E00849098841F03801064A118000BF97
:1007900000BF0449098841F04001024A11807047B6
:1007A00000080140003001400020F94908804FF462
:1007B00082704880002088800220C8800120088143
:1007C00040024881382088810020C88107200882A3
:1007D000704710B50446EE4884810146ED4800F0AC
:1007E000B5FF0121EB4801F056F810BD08B5012115
:1007F000042000F01DFF1C20ADF8000003208DF840
:10080000020010208DF803006946E34800F05AFC0E
:100810001C21E14800F001FD08BD00B587B0FFF7DD
:10082000E5FFFFF7C1FFDA48008AADF800001222A9
:10083000D74902A801F0EEFA02A80FC8FFF746FF59
:100840000720FFF759FF0120D449086007B000BD19
:1008500010B5002400BFFF20FFF710FFFF2801D1D3
:10086000002010BD641C6FF07F408442F3D3012050
:10087000F7E710B50120C94908604FF0FF00FFF706
:10088000FDFE10BD10B50020C4490860FFF7E0FF71
:1008900008B9002010BDFFF7ECFF0120FAE770B5A2
:1008A0001F2500BFFF20FFF7E9FE044614F0800F6C
:1008B00004D02800A5F10101CDB2F3D1204670BDCE
:1008C00070B505460C46164645F04000FFF7D6FECB
:1008D000200EFFF7D3FEC4F30740FFF7CFFEC4F3AB
:1008E0000720FFF7CBFEE0B2FFF7C8FE3046FFF768
:1008F000C5FE70BD70B505464FF6FF7401E0601E81
:1009000084B2FF20FFF7BAFEA84201D0002CF6D136
:100910000CB9FF2070BD0020FCE770B504460D4601
:10092000FE20FFF7E7FF08B1012070BD04E0FF20C3
:10093000FFF7A4FE2070641C2800A5F101018DB210
:10094000F5D1FF20FFF79AFEFF20FFF797FE00206A
:10095000EBE72DE9F04107460D46FFF779FF10B1AF
:100960000120BDE8F0812846FFF788FEFD2D19D053
:10097000002404E0385DFFF781FE601C84B2B4F50A
:10098000007FF7DBFF20FFF779FEFF20FFF776FE01
:10099000FF20FFF773FE064606F01F00052801D072
:1009A0000220DEE70020DCE770B505460022114694
:1009B0000A20FFF785FFFFF772FF044624B91021D4
:1009C0002846FFF7AAFF0446FFF753FF0CB10120AA
:1009D00070BD0020FCE770B50546FFF74AFFFFF742
:1009E00051FF08B1FF2070BD002211460920FFF71A
:1009F00067FFFFF754FF044624B910212846FFF78C
:100A00008CFF0446FFF735FF0CB10120EBE7002017
:100A1000E9E77FB56846FFF7DEFF10B1002004B0BC
:100A200070BD9DF8000000F0C000402809D19DF87D
:100A300009009DF8081000EB0120401C84B2A502BB
:100A400020E09DF8050000F00F009DF80A1000EB73
:100A5000D1109DF8091001F0030100EB4100861C44
:100A60009DF8080080119DF8071000EB81009DF8AB
:100A7000061001F0030100EB8120441CA6F10900DF
:100A800004FA00F52846CAE7F8B5FFF7C6FEFFF7F7
:100A9000F0FEFFF7F7FE08B1FF20F8BD0720FFF7D3
:100AA0002BFE002504E0FF20FFF7E8FD681CC5B21F
:100AB0000A2DF8DB142600203949087000BF952262
:100AC00000210846FFF7FCFEFFF7E9FE0446012C73
:100AD00004D03000A6F101018EB2F0D1012C55D125
:100AE00087224FF4D5710820FFF7EAFEFFF7D7FE03
:100AF0000446012C5AD1002506E0FF20FFF7BEFD79
:100B00000DF80500681CC5B2042DF6DB9DF8020047
:100B10000128E4D19DF80300AA28E0D14FF6FE7623
:100B200000BF012200213720FFF7CAFEFFF7B7FE02
:100B30000446012291072920FFF7C2FEFFF7AFFE0E
:100B4000044624B13000A6F101018EB2E9D10122A0
:100B500000213A20FFF7B4FEFFF7A1FE0446002E65
:100B600074D0002C72D1002506E0FF20FFF786FD2F
:100B70000DF80500681CC5B2042DF6DB9DF80000D9
:100B800010F0400F0ED00620054908705EE000000E
:100B90005C02002000300140000801408C0121422D
:100BA0001A0000200420814908704FE00122002132
:100BB0003720FFF785FEFFF772FE04460122002171
:100BC0002920FFF77DFEFFF76AFE0446012C1CDC9E
:100BD0000220764908704FF6FE7600BF0122002100
:100BE0003720FFF76DFEFFF75AFE04460122002171
:100BF0002920FFF765FEFFF752FE0446CCB1300016
:100C0000A6F101018EB2E9D113E001206749087015
:100C10004FF6FE7600BF012200211046FFF750FE7E
:100C2000FFF73DFE044624B13000A6F101018EB26B
:100C3000F1D1012251021020FFF742FEFFF72FFEF3
:100C4000044606B114B1002058490870FFF711FEA0
:100C50000120FFF751FD5548007808B100201CE73E
:100C60000CB1204619E7AA2017E72DE9F041064606
:100C70000F461546FFF7FDFDFFF704FE10B1FF20FC
:100C8000BDE8F08149480078062800D07F02012D98
:100C90000ED1012239461120FFF712FEFFF7FFFDAA
:100CA00004463CBB69023046FFF737FE044621E0AC
:100CB000012239461220FFF703FEFFF7F0FD04463C
:100CC00000BF4FF400713046FFF727FE044606F5DB
:100CD0000076681EC0B2050001D0002CF1D00122C0
:100CE00000210C20FFF7ECFDFFF7D9FD0446FFF7CC
:100CF000D6FD0446FFF7BDFD2046C1E72DE9F041D2
:100D000006460F461546FFF7B4FDFFF7BBFD10B1D1
:100D1000FF20BDE8F08125480078062800D07F023A
:100D2000012D0FD1012239461820FFF7C9FDFFF729
:100D3000B6FD0446002C35D1FE213046FFF709FEF2
:100D400004462FE01948007801280FD00122002125
:100D50003720FFF7B5FDFFF7A2FD04460122294623
:100D60001720FFF7ADFDFFF79AFD04460122394633
:100D70001920FFF7A5FDFFF792FD044694B900BFC7
:100D8000FC213046FFF7E5FD044606F50076681EB7
:100D9000C0B2050001D0002CF2D0FD210020FFF7E9
:100DA000D8FD0446FFF765FD2046B2E71A00002093
:100DB000FFF788FA4820FFF70FFBFFF757FB4FF4C8
:100DC0001650FFF759FB41F28830FFF72DFB02E088
:100DD00036A0FFF7BFFBFFF757FE0028F8D139A078
:100DE000FFF7B8FBFFF715FE3B4908603BA0FFF794
:100DF000B1FB39490968080EFFF790FB36480068D7
:100E0000C0F30740FFF78AFB33480088C0F3072090
:100E1000FFF784FB30490878FFF780FB36A0FFF727
:100E200099FB36A0FFF796FB2B480068000B2A4978
:100E300008600968080EFFF771FB27480068C0F3D7
:100E40000740FFF76BFB24480088C0F30720FFF73B
:100E500065FB21490878FFF761FB012211462C4808
:100E6000FFF74CFF10B92BA0FFF774FB1DE04FF408
:100E70007A60FFF7D9FA022200212948FFF7F5FE30
:100E800098B90020274908800AE02549254A128898
:100E9000885CFFF743FB23480088401C21490880F9
:100EA00020480088B0F5806FEFDBE0E7534420492D
:100EB0006E697469616C697A65204661696C200DA0
:100EC0000A000000534420496E697469616C697AB4
:100ED00065204F4B200D0A00200200205468652039
:100EE000534420736563746F72206E756D2069734F
:100EF0003A202020200000000D0A000054686520E0
:100F000053442073697A652069733A2020202000B9
:100F10001C0000205772697465204F4B200D0A0099
:100F20006E0200201E02002031490143314A116047
:100F3000704770B5002100230F22C4780CB32D4CEC
:100F4000246804F4E064C4F5E064210AC1F10403F8
:100F5000CA40447804FA03F184781440214309011B
:100F6000254C0678A155047804F01F050124AC40F7
:100F700005786D114FF0E02606EB8505C5F80041B8
:100F800009E0047804F01F050124AC401B4D0678ED
:100F9000761145F8264070BD194A0A400243154BA8
:100FA0001B1F1A60704739B1124A121D12680243A2
:100FB000104B1B1D1A6006E00E4A121D1268824378
:100FC0000C4B1B1D1A607047042808D14FF0E0211C
:100FD000096941F004014FF0E022116107E04FF090
:100FE000E021096921F004014FF0E022116170470E
:100FF0000000FA050CED00E000E400E080E100E014
:1010000080FFFF1F10B50446CA48844208D1012161
:10101000042000F027FB0021042000F023FB46E021
:10102000C548844208D10121082000F01BFB0021A3
:10103000082000F017FB3AE0C048844208D10121A3
:10104000102000F00FFB0021102000F00BFB2EE021
:10105000BB48844208D10121202000F003FB00217D
:10106000202000F0FFFA22E0B648844208D1012196
:10107000402000F0F7FA0021402000F0F3FA16E0DB
:10108000B148844208D10121802000F0EBFA002110
:10109000802000F0E7FA0AE0AC48844207D1012141
:1010A000801500F0DFFA0021A01500F0DBFA10BD7A
:1010B00010B50121084600F0D5FA0021012000F00A
:1010C000D1FA10BD2DE9F04102460025002600208E
:1010D00000230024002791F803C00CF00F0591F8BD
:1010E00003C01CF0100F03D091F802C04CEA0505B4
:1010F00091F800C0BCF1000F31D0146800202BE043
:101100004FF0010C0CFA00F3B1F800C00CEA030632
:101110009E4220D183004FF00F0C0CFA03F7BC4322
:1011200005FA03FC4CEA040491F803C0BCF1280F53
:1011300006D14FF0010C0CFA00FCC2F814C00AE012
:1011400091F803C0BCF1480F05D14FF0010C0CFA27
:1011500000FCC2F810C0401C0828D1D31460B1F8BC
:1011600000C0BCF1FF0F34DD546800202EE000F118
:10117000080C4FF0010808FA0CF3B1F800C00CEAB3
:1011800003069E4221D183004FF00F0C0CFA03F7A7
:10119000BC4305FA03FC4CEA040491F803C0BCF11B
:1011A000280F05D100F1080C08FA0CF8C2F81480D9
:1011B00091F803C0BCF1480F07D100F1080C4FF0C3
:1011C000010808FA0CF8C2F81080401C0828CED399
:1011D0005460BDE8F0814FF6FF71018002218170FB
:1011E0000421C17070470246002093680B4201D071
:1011F000012000E0002070470146886880B27047F7
:1012000002460020D3680B4201D0012000E00020FC
:1012100070470146C86880B27047016170474161FC
:1012200070470AB1016100E041617047C1607047D9
:101230004FF480320A4382618161826182698269EE
:10124000704702460020424B18684FF680731840E2
:1012500040EA021008433E4B186070473D49C861A0
:101260007047F0B50A46002300240021002500F055
:101270000046B6F1004F02D1354EF16901E0344E1F
:101280007168C0F3034583B200F44016B6F5401F01
:1012900008D121F070612E4E766826F070662C4FD2
:1012A0007E6012E000F48016B6F5801F06D103269A
:1012B00006FA05F4A14341F0706106E0460D3601DF
:1012C00003FA06F6B14341F0706122B1460D3601D2
:1012D00003FA06F6314300F00046B6F1004F02D1A2
:1012E0001B4EF16101E01A4E7160F0BD30B5002275
:1012F0008B071C0F0F2303FA04F2154B08338C10D5
:1013000053F824309343124C08348D1044F82530A0
:1013100023468C1053F824308C07240F00FA04F471
:1013200023430B4C08348D1044F8253030BD0A4956
:101330000860704700080140000C014000100140A7
:101340000014014000180140001C01400020014031
:101350000000014000002042DC002042DD4800681F
:1013600040F00100DB49086008464068DA4908405F
:10137000D849486008460068D8490840D5490860FF
:101380000846006820F4802008600846406820F481
:10139000FE0048604FF41F0088607047CD4909681F
:1013A00021F48031CB4A11601146096821F4802173
:1013B0001160B0F5803F03D0B0F5802F0ED106E06C
:1013C000C449096841F48031C24A116007E0C1494B
:1013D000096841F4A021BF4A116000E000BF00BFCE
:1013E000704710B501460022002300204A11012A4F
:1013F00002D1B84C236806E0022A02D1B54C236A18
:1014000001E0B44C636A01F01F02012494401C42C5
:1014100001D0012000E0002010BD38B50020009070
:101420000024002500BF3120FFF7DBFF05460098B0
:10143000401C00900098B0F5A06F01D0002DF2D0B4
:101440003120FFF7CEFF08B1012400E00024204640
:1014500038BD014600209F4A106820F0F80040EA9D
:10146000C100106070479E49086070470246002026
:10147000984B586820F47C1042EA01031843954BBE
:101480005860704796490866704701460020914AA7
:10149000506820F003000843506070478D48406852
:1014A00000F00C007047014600208A4A506820F086
:1014B000F00008435060704701460020854A50689C
:1014C00020F4E06008435060704701460020814AE4
:1014D000506820F4605040EAC1005060704729B164
:1014E0007C4A527A02437B4B5A7204E0794A527A20
:1014F0008243784B5A7270477A49086070470146B8
:101500000020744A506820F44040084350607047FF
:101510000021754A11706F4A82F82010012802D00C
:10152000042808D103E001216F4A117004E005216D
:101530006D4A117000E000BF00BF70476B49086042
:1015400070476449096A0143624A116270476749FA
:1015500044390860704730B5002100220024002380
:101560005C4D6D6805F00C0121B1042905D00829F6
:1015700023D105E05E4D056022E05D4D05601FE072
:10158000544D6D6805F47012524D6D6805F4803449
:10159000022505EB92421CB9564D554305600BE000
:1015A0004C4D6D6815F4003F03D0524D5543056016
:1015B00002E04F4D5543056002E04D4D056000BF10
:1015C00000BF444D6D6805F0F00109094A4D6B5CA0
:1015D0000568DD4045603F4D6D6805F4E061090A2E
:1015E000454D6B5C4568DD4085603A4D6D6805F49E
:1015F0006051C90A404D6B5C4568DD40C560354DA2
:101600006D6805F44041890B3C4D6B5CC568B5FBCA
:10161000F3F5056130BD29B12E4A526902432D4BC5
:101620005A6104E02B4A526982432A4B5A6170473F
:1016300029B1284A92690243264B9A6104E0254A5F
:1016400092698243234B9A61704729B1214AD2693A
:101650000243204BDA6104E01E4AD26982431D4BEB
:10166000DA61704729B11B4AD2680243194BDA602C
:1016700004E0184AD2688243164BDA60704729B1F9
:10168000144A12690243134B1A6104E0114A1269A9
:101690008243104B1A617047144940390860704703
:1016A0000F49C86470470B49C87170470948406AC0
:1016B00040F0807007494862704701460020054AA3
:1016C00092680A4201D0012000E0002070470149E1
:1016D00088727047001002400000FFF8FFFFF6FE1E
:1016E00000004242D80042422010024080044242A0
:1016F00000127A0000093D0024020020340200207C
:1017000010B50446BE48844208D101218014FFF779
:10171000A9FF0021A014FFF7A5FF16E0B9488442F5
:1017200008D101210014FFF7AAFF00212014FFF7C0
:10173000A6FF0AE0B448844207D10121C013FFF795
:101740009EFF0021E013FFF79AFF10BD10B50022A5
:10175000028802F441520B884C8823438C8823432F
:10176000CC8823430C8923434C8923438C8923430E
:10177000CC8923431A430280838B4FF2FF742340AA
:1017800083830B8A038210BD2DE9F04F85B0054697
:101790000C464FF0000902274FF000084FF0010BF4
:1017A0000026B246A88B4FF240010840A8830220D1
:1017B0002884B5F81C90A068022801D100BF38E049
:1017C000A08810B94FF0010B01E04FF0020B8D48DB
:1017D000854200D100E000BF6846FFF7BCFEDDF89F
:1017E00000A0E088B0F5007F0AD14FEA1A2000EB94
:1017F00080004000A168B0FBF1F0401D86B20BE014
:101800004FEA4B10BAFBF0F000EB80004000A168FB
:10181000B0FBF1F0401D86B20A20B6FBF0F606F0F0
:101820000108A6EB0800C0F34F074FF6FF7000EA6F
:101830000828022F01DBFF2F02DD02274FF00008EE
:10184000E08840EA080038432884A088A18908433A
:10185000618808432188084340F4006040EA090990
:10186000A5F81C9005B0BDE8F08F002101804180F3
:101870008180C180018141818181C18107210182F3
:1018800070470021018041808180C18002218160F8
:1018900000218181704721B1028842F0400202801C
:1018A00004E002884FF6BF731A400280704721B1EE
:1018B000828B42F48062828304E0828B4FF6FF3396
:1018C0001A408283704730B5002400230C11012593
:1018D000A540ABB21AB185881D43858002E085889A
:1018E0009D43858030BD1AB183880B43838002E01D
:1018F00083888B4383807047818170470146888944
:101900007047A1F57E42FF3A04D0028842F480720B
:10191000028004E002884FF6FF631A40028070479D
:1019200021B1828842F00402828004E082884FF66E
:10193000FB731A408280704702884FF2FF731A408F
:10194000028002880A4302807047018841F4805176
:101950000180704721B1028842F40052028004E005
:1019600002884DF6FF731A4002807047024600203D
:10197000012901D0108B00E0908A70470146088A47
:101980007047B1F5804F04D1028842F48042028052
:1019900004E002884BF6FF731A400280704702464B
:1019A000002013890B4201D0012000E00020704785
:1019B000CA4302817047F0B502460020002400238C
:1019C000002501F00F070126BE40B4B20B1101261D
:1019D0009E40B3B2968806EA03051689264202D0D5
:1019E0000DB1012000E00020F0BD10B5002201F093
:1019F0000F040123A3409AB2D343038110BD00001A
:101A00000030014000380040003C004010B5044662
:101A1000FB48844209D101218803FFF723FE0021FE
:101A20004FF48040FFF71EFE32E0F648844209D1B1
:101A300001214804FFF723FE00214FF40030FFF797
:101A40001EFE25E0F048844209D101218804FFF7F9
:101A500016FE00214FF48020FFF711FE18E0EB483E
:101A6000844209D10121C804FFF709FE00214FF487
:101A70000020FFF704FE0BE0E548844208D1012175
:101A80000805FFF7FCFD00214FF48010FFF7F7FD7C
:101A900010BD2DE9F04786B005460E460024A2464B
:101AA00000BFA1460027B08900B100BF2F462C8A95
:101AB0004CF6FF700440F08804432C82AC894EF64B
:101AC000F3100440B0883189084371890843044306
:101AD000AC81AC8A4FF6FF400440B0890443AC822D
:101AE00001A8FFF738FDC648874202D1DDF810A0F3
:101AF00001E0DDF80CA0A88910F4004F08D00AEB33
:101B0000CA0000EB0A1031684900B0FBF1F807E0A9
:101B10000AEBCA0000EB0A1031688900B0FBF1F84B
:101B20006420B8FBF0F004012009642101FB108956
:101B3000A88910F4004F08D0322000EBC900B0FB98
:101B4000F1F000F00700044308E0322000EB091038
:101B50006421B0FBF1F000F00F0004432C8106B0CB
:101B6000BDE8F0874FF41651016000218180C180EB
:101B700001810C21418100218181704710B502460D
:101B80000020108A4FF2FF0318400B884C88234333
:101B90008C882343CC8823431843108210BD002136
:101BA000018041808180C180704721B1828942F4E7
:101BB0000052828104E082894DF6FF731A408281CF
:101BC0007047F0B503460024002600250020A1F54B
:101BD00010676A3F00D100BF1846C1F3421401F0FC
:101BE0001F06012707FA06F5012C01D10C3004E08D
:101BF000022C01D1103000E014301AB107682F43D5
:101C0000076002E00768AF430760F0BD1AB1838A3E
:101C10000B43838202E0838A8B4383827047028A6C
:101C20004FF6F0731A400282028A0A43028270471A
:101C300082894FF2FF731A40828182890A4382812E
:101C4000704721B1828942F00202828104E08289D8
:101C50004FF6FD731A4082817047028A4FF6DF7398
:101C60001A400282028A0A430282704721B1028A24
:101C700042F48042028204E0028A4BF6FF731A406B
:101C800002827047C1F3080282807047014688884B
:101C9000C0F308007047818941F0010181817047DC
:101CA000028BD2B20283028B42EA01220283704786
:101CB000028B02F47F420283028B0A430283704745
:101CC00021B1828A42F02002828204E0828A4FF6A9
:101CD000DF731A408282704721B1828A42F010027B
:101CE000828204E0828A4FF6EF731A408282704744
:101CF00021B1828A42F00802828204E0828A4FF691
:101D0000F7731A408282704721B1828942F40042FF
:101D1000828103E08289C2F30E028281704721B181
:101D2000828A42F40062828204E0828A4FF2FF7368
:101D30001A4082827047828A4FF6FB731A40828271
:101D4000828A0A438282704721B1828A42F002026B
:101D5000828204E0828A4FF6FD731A4082827047C5
:101D600002460020B1F5007F00D100BF13880B426E
:101D700001D0012000E00020704701F40072B2F5AC
:101D8000007F00D100BFCA430280704770B5024691
:101D90000024002300250020A1F510666A3E00D132
:101DA00000BFC1F3421501F01F03012606FA03F339
:101DB000012D02D19689334006E0022D02D1168A08
:101DC000334001E0968A33400C12012606FA04F4EF
:101DD0001688344013B10CB1012000E0002070BD22
:101DE00010B500220023A1F510646A3C00D100BFA9
:101DF0000A1201249440A3B2DC43048010BD000009
:101E0000003801400044004000480040004C0040C1
:101E100000500040032A40F2308010F0030C00F024
:101E2000158011F8013BBCF1020F624498BF11F814
:101E300001CB00F8013B38BF11F8013BA2F10402CD
:101E400098BF00F801CB38BF00F8013B11F0030345
:101E500000F02880083AC0F0088051F8043B083AA6
:101E600051F804CBA0E80810F5E7121D5CBF51F84B
:101E7000043B40F8043BAFF30080D20724BF11F8C5
:101E8000013B11F801CB48BF11F8012B24BF00F82A
:101E9000013B00F801CB48BF00F8012B70477047A9
:101EA0007047704710B5203AC0F00B80B1E8185069
:101EB000203AA0E81850B1E81850A0E81850BFF434
:101EC000F5AF5FEA027C24BFB1E81850A0E81850D3
:101ED00044BF18C918C0BDE810405FEA827C24BF27
:101EE00051F8043B40F8043B08BF7047D20728BFB5
:101EF00031F8023B48BF11F8012B28BF20F8023B04
:101F000048BF00F8012B7047754600F029F8AE462F
:101F100005006946534620F00700854618B020B5F5
:101F2000FEF750F9BDE820404FF000064FF00007E3
:101F30004FF000084FF0000B21F00701AC46ACE871
:101F4000C009ACE8C009ACE8C009ACE8C0098D46DE
:101F500070470446AFF300802046FEF71EF90000EC
:101F6000004870477006002001491820ABBEFEE70C
:101F70002600020070470000981F000800000020A3
:101F80003802000028010008C41F000838020020A1
:101F9000980A0000640100089500A24A0499010211
:101FA00003040607080908FF0102030405060701E8
:101FB000FFA110110102030401020304060708092E
:041FC0000204060809
:04000005080000ED02
:00000001FF
