:020000040800F2
:10000000B80600208901000891010008930100084A
:100010009501000897010008990100080000000000
:100020000000000000000000000000009B0100082C
:100030009D010008000000009F010008B1030008B6
:10004000A3010008A3010008A3010008A301000800
:10005000A3010008A3010008A3010008A3010008F0
:10006000A3010008A3010008A3010008A3010008E0
:10007000A3010008A3010008A3010008A3010008D0
:10008000A3010008A3010008A3010008A3010008C0
:10009000A3010008A3010008A3010008A3010008B0
:1000A000A3010008A3010008A3010008A3010008A0
:1000B000A3010008A3010008A3010008A301000890
:1000C000A3010008A3010008A3010008A301000880
:1000D000A3010008D7050008A3010008A301000838
:1000E000A3010008A3010008A301000800F002F822
:1000F00000F03AF80AA090E8000C82448344AAF188
:100100000107DA4501D100F02FF8AFF2090EBAE885
:100110000F0013F0010F18BFFB1A43F0010318473B
:100120004025000060250000103A24BF78C878C13F
:10013000FAD8520724BF30C830C144BF04680C60ED
:10014000704700000023002400250026103A28BF35
:1001500078C1FBD8520728BF30C148BF0B60704739
:100160001FB51FBD10B510BD01F011FD1146FFF701
:10017000F7FF00F0A9FE01F02FFD03B4FFF7F2FF37
:1001800003BC01F033FD00000948804709480047DF
:10019000FEE7FEE7FEE7FEE7FEE7FEE7FEE7FEE737
:1001A000FEE7FEE704480549054A064B7047000094
:1001B000A5020008ED000008B8000020B8060020E5
:1001C000B8020020B80200200CB500200190009079
:1001D0006B48006840F480306949086000BF684897
:1001E000006800F4003000900198401C01900098D5
:1001F00018B90198B0F5A06FF1D16148006810F40A
:10020000003F02D00120009001E000200090009803
:10021000012842D15B48006840F01000594908604D
:100220000846006820F0030008600846006840F0B7
:1002300002000860524840685149486008464068DA
:1002400048600846406840F480604860084640685E
:1002500020F47C1048600846406840F4E81048608C
:100260000846006840F08070086000BF444800689D
:1002700010F0007FFAD04248406820F00300404967
:1002800048600846406840F00200486000BF3C48B3
:10029000406800F00C000828F9D10CBD10B5FFF73C
:1002A00093FF10BD10B53648006840F00100344996
:1002B00008600846406834490840314948600846AB
:1002C0000068324908402E4908600846006820F45A
:1002D000802008600846406820F4FE0048604FF423
:1002E0001F008860FFF7DAFF4FF0006028490860C0
:1002F00010BD10B5002100200022214B5B6803F0E7
:100300000C0121B1042906D0082928D107E0214B8E
:10031000214C236027E01F4B1F4C236023E0184B28
:100320005B6803F47010164B5B6803F480320223A1
:1003300003EB904022B9194B4343174C23600DE067
:100340000F4B5B6813F4003F04D0144B4343124C33
:10035000236003E00F4B43430F4C236003E00D4B3E
:100360000D4C236000BF00BF054B5B68C3F3031354
:100370000B4CE15C084B1B68CB40074C236010BD65
:1003800000100240002002400000FFF8FFFFF6FED0
:1003900008ED00E000127A000000002000093D0096
:1003A0000400002010B54FF4A06000F0FDFD10BD6A
:1003B0002848006800F180702649086008460068F7
:1003C0000860704710B504466FF0040000F03CFE72
:1003D0006FF07F404FF0E0214861002088610846BF
:1003E000006940F00300086110BD1A4801684FF031
:1003F000E0208269C2F1807008440923B0FBF3F069
:10040000704710B5FFF7F1FF04464FF47A70B4FB64
:10041000F0F010BD70B50546FFF7F3FF0446264621
:1004200002E0FFF7EEFF0646301BA842F9D3A642D2
:10043000F7D370BD70B50546FFF7D7FF04462646D3
:1004400002E0FFF7D2FF0646301BA842F9D3A642CE
:10045000F7D370BD1400002010B586B0044601210A
:1004600044F2050001F024F94FF40070ADF81400D7
:1004700003208DF8160018208DF8170005A966488E
:1004800000F060FE4FF48060ADF8140004208DF899
:10049000170005A9604800F055FE25208DF80000E2
:1004A00003208DF8010002208DF8020001208DF854
:1004B0000300684600F07DFD01940020ADF80800BF
:1004C000ADF80A00ADF80C00ADF810000C20ADF846
:1004D0000E0001A9514801F096F9012240F2255180
:1004E0004E4801F028FA01214C4801F018FA00208A
:1004F0004B4908704B49087006B010BD4749098840
:1005000021F04001454A1180111D088000BF434978
:10051000098811F0400FFAD0704730B504460D46F7
:10052000002304E0E05CFFF7E9FF581CC3B2AB42D4
:10053000F8DB30BD00B5034603E01878FFF7DEFFB7
:100540005B1C18780028F8D100BD354800782430AD
:1005500034490978401A242190FBF1F201FB120082
:10056000C0B270472F490A780978491C2D4B197081
:100570002D49885C19460978242902DB00211A4696
:100580001170704770B50346254800782430254D1A
:100590002D78401B242590FBF5F605FB1600C4B210
:1005A000A14200DD2146002211E01E4805780078B6
:1005B000401C1C4E30701C48405D985430460078FA
:1005C000242802DB002035462870501CC2B28A4223
:1005D000EBDB084670BD10B540F225510F4801F025
:1005E0008FFAB8B140F225510C4801F0B3FA0B482C
:1005F00001F006FAC4B20A4801780078401C084AA3
:1006000010700948445410460078242802DB00206A
:100610001146087010BD000000080140003801407C
:100620001800002019000020340000200120FE499D
:10063000086070470020FC490860704708B1012835
:1006400001D1FA49087070470C2801D0102801D157
:10065000F74908707047F74A1080F74A11807047D1
:100660000121F64A11604FF00001F54AC2F8A411C9
:10067000F44908604FF00001F34A11604FF00101A6
:100680001160F24A116070474FF08831ED4A0C3A20
:100690001160121D11600021EA4A11600121E74A30
:1006A00011604FF00001E64AC2F8A411E84A116057
:1006B0004FF00101E24AC2F89811E649096888B290
:1006C0004FF00101E14A11604FF03331E24A11600D
:1006D00002F1040211604FF6FF71DA4A11607047AF
:1006E0000021D64A1160D64AC2F8A411D549086043
:1006F0004FF00001D44A11604FF001011160D34A5C
:100700001160704710B504460B462046FFF7E8FF1E
:100710001846FFF7A5FF10BD10B503461846FFF7B2
:10072000DFFFFFF7B1FF0446204610BD00B540F2E1
:1007300073110720FFF7E6FF00BD00B50021072079
:10074000FFF7E0FF00BD70B5054600240026082D28
:100750001CD2DFE805F00406090C0F12151800BFC3
:1007600016E044F0800413E044F0400410E044F04C
:10077000C0040DE044F020040AE044F0600407E007
:1007800044F0A00404E044F0E00401E000BF00BF36
:1007900000BF032644F480543046FFF7A1FF2046F3
:1007A000FFF75EFF70BD30B504460D4621462020A0
:1007B000FFF7A8FF29462120FFF7A4FF30BD70B541
:1007C00005460E46144631462846FFF7ECFF222028
:1007D000FFF786FF2046FFF743FF70BD30B50546A3
:1007E00000210846FFF7DFFF2220FFF779FF0024F2
:1007F00003E02846FFF734FF641CB4F5963FF8D3B6
:1008000030BD2DE9F047064688461546B246A5F1AB
:100810002000C5B2E82E02DCB8F59C7F01DDBDE802
:10082000F0878248007800283DD1002436E08048D7
:1008300000780C2807D105EB4500884901EB8000C2
:1008400010F8049004E0864800EB051010F80490BE
:10085000002715E019F0010F06D0764802884146BE
:100860003046FFF7ACFF05E073480288414630464A
:10087000FFF7A5FF4FEA6909701C86B2781CC7B262
:100880006B49087800EBD071B7EB610FE2DB56469D
:1008900008F101001FFA80F8601CC4B264480078B7
:1008A0008442C4DB31E000242BE0614800780C284E
:1008B00007D105EB4500694901EB800010F8049071
:1008C00004E0674800EB051010F8049000270FE0E3
:1008D00019F0010F08D008EB040291B2F21990B29E
:1008E000544A1288FFF76BFF4FEA6909781CC7B2B8
:1008F0004F49087800EBD071B7EB610FE8DB601C63
:10090000C4B24B4800788442CFDB00BF87E770B5A4
:1009100004460D4616462CE0E82C0FDD0024444822
:100920000078102803D105F1100085B206E0404898
:1009300000780C2802D105F10C0085B2B5F59C7F3A
:1009400003DD00200546044670BD32782946204666
:10095000FFF757FF36480078102803D104F108004C
:1009600084B205E0324800780C2801D1A01D84B281
:10097000761C30780028CFD100BFE5E72DE9FC4197
:100980000746884614461E46002E6BD1642C13DAA7
:100990000A2094FBF0F03030C0B28DF800000A203D
:1009A00094FBF0F100FB11403030C0B28DF8010033
:1009B00000208DF80200ACE0B4F57A7F1FDA6420E5
:1009C00094FBF0F03030C0B28DF800000A2094FBA8
:1009D000F0F00A2190FBF1F201FB12003030C0B2BE
:1009E0008DF801000A2094FBF0F100FB114030303B
:1009F000C0B28DF8020000208DF8030089E042F2B9
:100A0000107084424BDA4FF47A7094FBF0F030307F
:100A1000C0B28DF80000642094FBF0F00A2190FB36
:100A2000F1F201FB12001EE0A80122421F0000208B
:100A30001E0000201A0000201C000020A0012242FD
:100A4000000022420C0C01409C012242A4012242DF
:100A500098012242080C0140000C0140FA1B0008DA
:100A60006E2000085BE03030C0B28DF801000A2033
:100A700094FBF0F090FBF1F201FB12003030C0B2B9
:100A80008DF802000A2094FBF0F100FB1140303099
:100A9000C0B28DF8030000208DF8040039E0B4F5F1
:100AA000803F36DA42F2107094FBF0F03030C0B282
:100AB0008DF800004FF47A7094FBF0F00A2190FB5F
:100AC000F1F201FB12003030C0B28DF80100642059
:100AD00094FBF0F090FBF1F201FB12003030C0B259
:100AE0008DF802000A2094FBF0F090FBF1F201FB7C
:100AF00012003030C0B28DF803000A2094FBF0F1F0
:100B000000FB11403030C0B28DF8040000208DF899
:100B100005006A4641463846FFF7F9FE7EE0012EA1
:100B20007CD1FF2C2BDC2046E11704EB1171C1F3C3
:100B300007118DF80010E11704EB11710911A4EBF6
:100B40000111C9B28DF8011000208DF802000025B6
:100B500012E01DF805000A2806DA1DF805003030FD
:100B6000C0B20DF8050005E01DF805003730C0B231
:100B70000DF80500681CC5B2022DEADB49E0B4F5AA
:100B8000803F46DA2046E11704EB1151C1F30731EB
:100B90008DF800102146E21704EB12621012C21702
:100BA00000EB12721211A0EB0212D2B28DF80120EA
:100BB000E21704EB12721011C21700EB127212113D
:100BC000A0EB0212D2B28DF802202046E11704EB0E
:100BD00011710911A4EB0111C9B28DF803100020A5
:100BE0008DF80400002512E01DF805000A2806DA39
:100BF0001DF805003030C0B20DF8050005E01DF805
:100C000005003730C0B20DF80500681CC5B2042DD0
:100C1000EADB6A4641463846FFF779FEBDE8FC81CB
:100C200008B50121192000F043FD0121A14800F081
:100C300058FB4FF4F860ADF8000010208DF8030069
:100C400003208DF8020069469B4800F07BFA4FF4C0
:100C50007071994800F021FB4FF48061964800F0D4
:100C60001EFB4FF6FF70ADF800006946934800F098
:100C700069FA4FF6FF71914800F00FFB3220FFF741
:100C8000C9FB0020FFF72CFD0120FFF7E9FC322013
:100C9000FFF7C0FB1021E720FFF734FD0121002002
:100CA000FFF730FD4FF480710120FFF72BFD4FF46B
:100CB000E0610220FFF726FD41F230010320FFF73B
:100CC00021FD00210420FFF71DFD40F2072108202F
:100CD000FFF718FD00210920FFF714FD00210A206D
:100CE000FFF710FD01210C20FFF70CFD00210D2066
:100CF000FFF708FD00210F20FFF704FD0021102061
:100D0000FFF700FD07211120FFF7FCFC0021122056
:100D1000FFF7F8FC00211320FFF7F4FC3220FFF767
:100D200079FB41F290511020FFF7ECFC40F22721B3
:100D30001120FFF7E7FC3220FFF76CFB9C2112200B
:100D4000FFF7E0FC3220FFF765FB4FF4C85113209A
:100D5000FFF7D8FC23212920FFF7D4FC0E212B20FC
:100D6000FFF7D0FC3220FFF755FB00212020FFF7D2
:100D7000C9FC40F23F112120FFF7C4FC3220FFF7ED
:100D800049FB07213020FFF7BDFC40F207713120FD
:100D9000FFF7B8FC06213220FFF7B4FC40F20471E3
:100DA0003520FFF7AFFC41F604713620FFF7AAFCAF
:100DB00004213720FFF7A6FC00213820FFF7A2FC12
:100DC00040F206713920FFF79DFC40F201713C2092
:100DD000FFF798FC0F213D20FFF794FC3220FFF72E
:100DE00019FB00215020FFF78DFCEF215120FFF768
:100DF00089FC00215220FFF785FC40F23F1153206F
:100E0000FFF780FC4FF427416020FFF77BFC0121B6
:100E10006120FFF777FC00216A20FFF773FC0021B7
:100E20008020FFF76FFC00218120FFF76BFC002181
:100E30008220FFF767FC00218320FFF763FC00217D
:100E40008420FFF75FFC00218520FFF75BFC102169
:100E50009020FFF757FC00219220FFF753FC03215D
:100E60009320FFF74FFC4FF488719520FFF74AFC61
:100E700000219720FFF746FC00219820FFF742FC55
:100E800040F233110720FFF73DFC00212020FFF73F
:100E900039FC40F23F112120FFF734FC0020FFF71E
:100EA00052FC07480088FFF799FC012005490860BB
:100EB00008BD00000002300000100140000C01409D
:100EC0001C000020A8012242FFF7ECF94FF4165055
:100ED000FFF7C2FA4820FFF775FAFFF763FAFFF74A
:100EE0009FFE4FF6FF714FF47840FFF7B4FB0C20E4
:100EF000FFF7AAFB37E04FF47A70FFF78BFA622214
:100F000000211E20FFF77DFC4FF47A70FFF782FA74
:100F1000412214211E20FFF774FC4FF47A70FFF772
:100F200079FA1020FFF790FB412228211E20FFF7BD
:100F300068FC4FF47A70FFF76DFA0BA23C211E207B
:100F4000FFF7E5FC4FF47A70FFF764FA0023012203
:100F500050211E20FFF712FD01234FF6FE7264217F
:100F60001E20FFF70BFDC6E75A4F5A53545544490C
:100F70004F35303131313131313131313131313140
:100F80003131313131313131313131313131313151
:100F90003131313131313131313131313131313141
:100FA000313131310000000031490143314A1160D3
:100FB000704770B5002100230F22C4780CB32D4C6C
:100FC000246804F4E064C4F5E064210AC1F1040378
:100FD000CA40447804FA03F184781440214309019B
:100FE000254C0678A155047804F01F050124AC4077
:100FF00005786D114FF0E02606EB8505C5F8004138
:1010000009E0047804F01F050124AC401B4D06786C
:10101000761145F8264070BD194A0A400243154B27
:101020001B1F1A60704739B1124A121D1268024321
:10103000104B1B1D1A6006E00E4A121D12688243F7
:101040000C4B1B1D1A607047042808D14FF0E0219B
:10105000096941F004014FF0E022116107E04FF00F
:10106000E021096921F004014FF0E022116170478D
:101070000000FA050CED00E000E400E080E100E093
:1010800080FFFF1F10B50446CA48844208D10121E1
:10109000042000F027FB0021042000F023FB46E0A1
:1010A000C548844208D10121082000F01BFB002123
:1010B000082000F017FB3AE0C048844208D1012123
:1010C000102000F00FFB0021102000F00BFB2EE0A1
:1010D000BB48844208D10121202000F003FB0021FD
:1010E000202000F0FFFA22E0B648844208D1012116
:1010F000402000F0F7FA0021402000F0F3FA16E05B
:10110000B148844208D10121802000F0EBFA00218F
:10111000802000F0E7FA0AE0AC48844207D10121C0
:10112000801500F0DFFA0021A01500F0DBFA10BDF9
:1011300010B50121084600F0D5FA0021012000F089
:10114000D1FA10BD2DE9F04102460025002600200D
:1011500000230024002791F803C00CF00F0591F83C
:1011600003C01CF0100F03D091F802C04CEA050533
:1011700091F800C0BCF1000F31D0146800202BE0C2
:101180004FF0010C0CFA00F3B1F800C00CEA0306B2
:101190009E4220D183004FF00F0C0CFA03F7BC43A2
:1011A00005FA03FC4CEA040491F803C0BCF1280FD3
:1011B00006D14FF0010C0CFA00FCC2F814C00AE092
:1011C00091F803C0BCF1480F05D14FF0010C0CFAA7
:1011D00000FCC2F810C0401C0828D1D31460B1F83C
:1011E00000C0BCF1FF0F34DD546800202EE000F198
:1011F000080C4FF0010808FA0CF3B1F800C00CEA33
:1012000003069E4221D183004FF00F0C0CFA03F726
:10121000BC4305FA03FC4CEA040491F803C0BCF19A
:10122000280F05D100F1080C08FA0CF8C2F8148058
:1012300091F803C0BCF1480F07D100F1080C4FF042
:10124000010808FA0CF8C2F81080401C0828CED318
:101250005460BDE8F0814FF6FF710180022181707A
:101260000421C17070470246002093680B4201D0F0
:10127000012000E0002070470146886880B2704776
:1012800002460020D3680B4201D0012000E000207C
:1012900070470146C86880B270470161704741617C
:1012A00070470AB1016100E041617047C160704759
:1012B0004FF480320A43826181618261826982696E
:1012C000704702460020424B18684FF68073184062
:1012D00040EA021008433E4B186070473D49C86120
:1012E0007047F0B50A46002300240021002500F0D5
:1012F0000046B6F1004F02D1354EF16901E0344E9F
:101300007168C0F3034583B200F44016B6F5401F80
:1013100008D121F070612E4E766826F070662C4F51
:101320007E6012E000F48016B6F5801F06D1032619
:1013300006FA05F4A14341F0706106E0460D36015E
:1013400003FA06F6B14341F0706122B1460D360151
:1013500003FA06F6314300F00046B6F1004F02D121
:101360001B4EF16101E01A4E7160F0BD30B50022F4
:101370008B071C0F0F2303FA04F2154B08338C1054
:1013800053F824309343124C08348D1044F8253020
:1013900023468C1053F824308C07240F00FA04F4F1
:1013A00023430B4C08348D1044F8253030BD0A49D6
:1013B0000860704700080140000C01400010014027
:1013C0000014014000180140001C014000200140B1
:1013D0000000014000002042DC002042DD4800689F
:1013E00040F00100DB49086008464068DA490840DF
:1013F000D849486008460068D8490840D54908607F
:101400000846006820F4802008600846406820F400
:10141000FE0048604FF41F0088607047CD4909689E
:1014200021F48031CB4A11601146096821F48021F2
:101430001160B0F5803F03D0B0F5802F0ED106E0EB
:10144000C449096841F48031C24A116007E0C149CA
:10145000096841F4A021BF4A116000E000BF00BF4D
:10146000704710B501460022002300204A11012ACE
:1014700002D1B84C236806E0022A02D1B54C236A97
:1014800001E0B44C636A01F01F02012494401C4245
:1014900001D0012000E0002010BD38B500200090F0
:1014A0000024002500BF3120FFF7DBFF0546009830
:1014B000401C00900098B0F5A06F01D0002DF2D034
:1014C0003120FFF7CEFF08B1012400E000242046C0
:1014D00038BD014600209F4A106820F0F80040EA1D
:1014E000C100106070479E490860704702460020A6
:1014F000984B586820F47C1042EA01031843954B3E
:101500005860704796490866704701460020914A26
:10151000506820F003000843506070478D484068D1
:1015200000F00C007047014600208A4A506820F005
:10153000F00008435060704701460020854A50681B
:1015400020F4E06008435060704701460020814A63
:10155000506820F4605040EAC1005060704729B1E3
:101560007C4A527A02437B4B5A7204E0794A527A9F
:101570008243784B5A7270477A4908607047014637
:101580000020744A506820F440400843506070477F
:101590000021754A11706F4A82F82010012802D08C
:1015A000042808D103E001216F4A117004E00521ED
:1015B0006D4A117000E000BF00BF70476B490860C2
:1015C00070476449096A0143624A1162704767497A
:1015D00044390860704730B5002100220024002300
:1015E0005C4D6D6805F00C0121B1042905D0082976
:1015F00023D105E05E4D056022E05D4D05601FE0F2
:10160000544D6D6805F47012524D6D6805F48034C8
:10161000022505EB92421CB9564D554305600BE07F
:101620004C4D6D6815F4003F03D0524D5543056095
:1016300002E04F4D5543056002E04D4D056000BF8F
:1016400000BF444D6D6805F0F00109094A4D6B5C1F
:101650000568DD4045603F4D6D6805F4E061090AAD
:10166000454D6B5C4568DD4085603A4D6D6805F41D
:101670006051C90A404D6B5C4568DD40C560354D21
:101680006D6805F44041890B3C4D6B5CC568B5FB4A
:10169000F3F5056130BD29B12E4A526902432D4B45
:1016A0005A6104E02B4A526982432A4B5A617047BF
:1016B00029B1284A92690243264B9A6104E0254ADF
:1016C00092698243234B9A61704729B1214AD269BA
:1016D0000243204BDA6104E01E4AD26982431D4B6B
:1016E000DA61704729B11B4AD2680243194BDA60AC
:1016F00004E0184AD2688243164BDA60704729B179
:10170000144A12690243134B1A6104E0114A126928
:101710008243104B1A617047144940390860704782
:101720000F49C86470470B49C87170470948406A3F
:1017300040F0807007494862704701460020054A22
:1017400092680A4201D0012000E000207047014960
:1017500088727047001002400000FFF8FFFFF6FE9D
:1017600000004242D800424220100240800442421F
:1017700000127A0000093D00200000203000002007
:1017800010B50446FB48844209D101218803FFF7C4
:10179000A9FF00214FF48040FFF7A4FF32E0F64894
:1017A000844209D101214804FFF7A9FF00214FF429
:1017B0000030FFF7A4FF25E0F048844209D1012161
:1017C0008804FFF79CFF00214FF48020FFF797FF6C
:1017D00018E0EB48844209D10121C804FFF78FFFCC
:1017E00000214FF40020FFF78AFF0BE0E548844218
:1017F00008D101210805FFF782FF00214FF4801076
:10180000FFF77DFF10BD2DE9F04786B005460E4677
:101810000024A24600BFA1460027B08900B100BF46
:101820002F462C8A4CF6FF700440F08804432C822B
:10183000AC894EF6F3100440B088318908437189B1
:1018400008430443AC81AC8A4FF6FF400440B089A2
:101850000443AC8201A8FFF7BEFEC648874202D10E
:10186000DDF810A001E0DDF80CA0A88910F4004F0D
:1018700008D00AEBCA0000EB0A1031684900B0FB3F
:10188000F1F807E00AEBCA0000EB0A1031688900A2
:10189000B0FBF1F86420B8FBF0F0040120096421EA
:1018A00001FB1089A88910F4004F08D0322000EB0A
:1018B000C900B0FBF1F000F00700044308E032205B
:1018C00000EB09106421B0FBF1F000F00F000443BD
:1018D0002C8106B0BDE8F0874FF41651016000215D
:1018E0008180C18001810C2141810021818170476B
:1018F00010B502460020108A4FF2FF0318400B88F3
:101900004C8823438C882343CC882343184310827C
:1019100010BD0021018041808180C180704721B1CC
:10192000828942F40052828104E082894DF6FF737D
:101930001A4082817047F0B5034600240026002536
:101940000020A1F510676A3F00D100BF1846C1F31F
:10195000421401F01F06012707FA06F5012C01D1F8
:101960000C3004E0022C01D1103000E014301AB128
:1019700007682F43076002E00768AF430760F0BDC8
:101980001AB1838A0B43838202E0838A8B4383826A
:101990007047028A4FF6F0731A400282028A0A43A5
:1019A0000282704782894FF2FF731A4082818289D6
:1019B0000A438281704721B1828942F0020282810A
:1019C00004E082894FF6FD731A4082817047028AD3
:1019D0004FF6DF731A400282028A0A43028270477E
:1019E00021B1028A42F48042028204E0028A4BF66C
:1019F000FF731A4002827047C1F308028280704769
:101A000001468888C0F308007047818941F00101D0
:101A100081817047028BD2B20283028B42EA01229B
:101A200002837047028B02F47F420283028B0A43D7
:101A30000283704721B1828A42F02002828204E050
:101A4000828A4FF6DF731A408282704721B1828A00
:101A500042F01002828204E0828A4FF6EF731A404D
:101A60008282704721B1828A42F00802828204E0B9
:101A7000828A4FF6F7731A408282704721B18289B9
:101A800042F40042828103E08289C2F30E02828125
:101A9000704721B1828A42F40062828204E0828A25
:101AA0004FF2FF731A4082827047828A4FF6FB73AF
:101AB0001A408282828A0A438282704721B1828AD6
:101AC00042F00202828204E0828A4FF6FD731A40DD
:101AD0008282704702460020B1F5007F00D100BF2E
:101AE00013880B4201D0012000E00020704701F470
:101AF0000072B2F5007F00D100BFCA430280704778
:101B000070B502460024002300250020A1F51066D0
:101B10006A3E00D100BFC1F3421501F01F03012648
:101B200006FA03F3012D02D19689334006E0022D17
:101B300002D1168A334001E0968A33400C12012606
:101B400006FA04F41688344013B10CB1012000E009
:101B5000002070BD10B500220023A1F510646A3C7E
:101B600000D100BF0A1201249440A3B2DC430480D8
:101B700010BD000000380140004400400048004013
:101B8000004C004000500040704770477047754659
:101B900000F028F8AE4605006946534620F00700DD
:101BA000854618B020B5FEF7FDFABDE820404FF09D
:101BB00000064FF000074FF000084FF0000B21F037
:101BC0000701AC46ACE8C009ACE8C009ACE8C00904
:101BD000ACE8C0098D4670470446AFF3008020464C
:101BE000FEF7CBFA00487047580000200149182042
:101BF000ABBEFEE7260002007047000000000000B8
:101C000000000000000000000404040404040004B8
:101C1000000000140A0A000000000000000000009C
:101C200014143F140A3F0A0A000000041E1505069A
:101C30000C14150F0400000012150D0A142C2A12A2
:101C400000000000040A0A1E1515093600000002F3
:101C50000201000000000000000000201008080839
:101C600008080810200000020408080808080804F2
:101C7000020000000004150E0E1504000000000014
:101C80000404041F0404040000000000000000001D
:101C900000000002020100000000001F0000000020
:101CA0000000000000000000000000020000001022
:101CB0000808080404020202010000000E111111BC
:101CC0001111110E00000000040604040404040EA7
:101CD000000000000E1111080402011F00000000A6
:101CE0000E11100C1010110E00000000080C0A0A52
:101CF000091E0818000000001F01010F1010110E2E
:101D0000000000000E09010F1111110E000000006B
:101D10001F09080404040404000000000E11110E41
:101D20001111110E000000000E1111111E10120EE3
:101D3000000000000000040000000004000000009B
:101D40000000000400000004040000201008040249
:101D5000040810200000000000001F00001F000009
:101D60000000000204081020100804020000000017
:101D70000E11110804040004000000000E111915D2
:101D8000151D011E0000000004040C0A0A1E123377
:101D9000000000000F12120E1212120F00000000BD
:101DA0001E1101010101110E000000000F1212129C
:101DB0001212120F000000001F120A0E0A02121F58
:101DC000000000001F120A0E0A02020700000000B5
:101DD0001C1201013911120C000000003312121EF6
:101DE00012121233000000001F0404040404041F34
:101DF000000000003E080808080808090700000065
:101E000037120A060A0A123700000000070202020F
:101E10000202223F000000001B1B1B1B151515159D
:101E2000000000003B1216161A1A121700000000DC
:101E30000E1111111111110E000000000F12120EDF
:101E400002020207000000000E1111111117190EF5
:101E5000180000000F12120E0A12123700000000C4
:101E60001E1101060810110F000000001F150404C8
:101E70000404040E00000000331212121212120C9D
:101E8000000000003312120A0A0C040400000000D3
:101E90001515150E0A0A0A0A000000001B0A0A049A
:101EA000040A0A1B000000001B0A0A040404040EB2
:101EB000000000001F0908040402121F0000001C9B
:101EC00004040404040404041C00000202020404C8
:101ED000080808100000000E08080808080808088C
:101EE0000E0000040A0000000000000000000000D6
:101EF0000000000000000000003F0004000000009F
:101F000000000000000000000000000C121C123C49
:101F1000000000000302020E1212120E0000000068
:101F20000000001C1202021C000000001810101C0F
:101F30001212123C000000000000000C121E021CD5
:101F4000000000003804041E0404041E0000000009
:101F50000000003C120C021E221C00000302020EB4
:101F60001212123700000000040000060404040EE0
:101F7000000000000800000C08080808080700001E
:101F80000302023A0A0E123700000000070404049C
:101F90000404041F000000000000000F15151515B3
:101FA000000000000000000F1212123700000000B5
:101FB0000000000C1212120C000000000000000FC4
:101FC0001212120E020700000000001C1212121C56
:101FD000103800000000001B06020207000000008D
:101FE0000000001E020C101E000000000004040E81
:101FF00004040418000000000000001B1212123C30
:102000000000000000000037120A0C04000000006D
:1020100000000015150E0A0A000000000000001B59
:102020000A040A1B0000000000000037120A0C041A
:10203000040300000000001E0804041E0000001835
:10204000080808040808080818000808080808080C
:102050000808080808080006040404080404040426
:10206000060002251800000000000000000000002B
:102070000000000000000000000000000000000060
:1020800000080808080808080000181800000048A0
:102090006C2412000000000000000000000000009E
:1020A000002424247F1212127F121212000000005A
:1020B000081C2A2A0A0C1828282A2A1C08080000AA
:1020C0000022251515152A585454542200000000EA
:1020D000000C1212120A76252911916E00000006DA
:1020E00006040300000000000000000000000040A3
:1020F00020101008080808080810102040000002EE
:102100000408081010101010100808040200000045
:10211000000008086B1C1C6B080800000000000091
:102120000000080808087F080808080000000000F0
:10213000000000000000000000000606040300008C
:10214000000000000000FE00000000000000000091
:102150000000000000000000000006060000000073
:1021600080404020201010080804040202000000F3
:102170000018244242424242424224180000000019
:1021800000080E08080808080808083E00000000BB
:10219000003C4242422020100804427E0000000021
:1021A000003C4242201820404042221C0000000017
:1021B00000203028242422227E20207800000000E5
:1021C000007E0202021A26404042221C000000004B
:1021D00000382402021A264242422418000000005D
:1021E000007E2222101008080808080800000000DD
:1021F000003C4242422418244242423C000000007B
:1022000000182442424264584040241C0000000050
:10221000000000001818000000001818000000005E
:102220000000000000080000000000080804000092
:1022300000402010080402040810204000000000A4
:10224000000000007F0000007F0000000000000090
:1022500000020408102040201008040200000000C2
:10226000003C4242464020101000181800000000B8
:10227000001C225A555555552D42221C00000000C5
:10228000000808181414243C224242E70000000011
:10229000001F2222221E22424242221F0000000072
:1022A000007C4242010101010142221C00000000A9
:1022B000001F2242424242424242221F00000000CE
:1022C000003F4212121E12120242423F0000000062
:1022D000003F4212121E121202020207000000000A
:1022E000003C2222010101712122221C0000000079
:1022F00000E7424242427E42424242E70000000082
:10230000003E0808080808080808083E0000000009
:10231000007C10101010101010101010110F000081
:10232000007722120A0E0A12122222770000000001
:1023300000070202020202020202427F00000000C5
:102340000077363636362A2A2A2A2A6B0000000001
:1023500000E346464A4A5252526262470000000079
:10236000001C2241414141414141221C000000002A
:10237000003F424242423E020202020700000000C9
:10238000001C2241414141414D53321C600000007C
:10239000003F4242423E1212222242C70000000089
:1023A000007C4242020418204042423E00000000ED
:1023B000007F4908080808080808081C00000000F9
:1023C00000E74242424242424242423C0000000098
:1023D00000E74242222424141418080800000000D8
:1023E000006B494949495555362222220000000018
:1023F00000E7422424181818242442E700000000B3
:1024000000772222141408080808081C00000000A5
:10241000007E2120101008040442423F0000007892
:1024200008080808080808080808080878000000D4
:102430000202040408080810102020204040001E5A
:102440001010101010101010101010101E00003876
:102450004400000000000000000000000000000038
:1024600000000000000000000000000000FF000667
:102470000800000000000000000000000000000054
:1024800000000000003C4278444242FC0000000092
:1024900000030202021A26424242261A00000000ED
:1024A000000000000038440202024438000000002E
:1024B0000060404040784442424264D8000000003E
:1024C00000000000003C427E0202423C000000008E
:1024D00000F08808087E08080808083E0000000090
:1024E00000000000007C22221C023C42423C000012
:1024F00000030202023A4642424242E70000000064
:10250000000C0C00000E08080808083E000000003F
:10251000003030000038202020202020221E000023
:10252000000302020272120A161222770000000053
:10253000000E0808080808080808083E0000000007
:1025400000000000007F9292929292B7000000007B
:1025500000000000003B4642424242E7000000000B
:1025600000000000003C42424242423C00000000A9
:1025700000000000001B26424242221E020700000B
:1025800000000000007844424242447840E00000ED
:102590000000000000774C040404041F0000000049
:1025A00000000000007C42023C40423E000000006F
:1025B00000000008083E0808080808300000000075
:1025C0000000000000634242424262DC0000000062
:1025D0000000000000E74224241408080000000066
:1025E0000000000000EB4949555522220000000080
:1025F00000000000007624181818246E0000000067
:102600000000000000E74224241418080807000016
:1026100000000000007E22100808447E000000C078
:10262000202020202010202020202020C00010105A
:1026300010101010101010101010101010100006B4
:1026400008080808081008080808080806000C32DE
:10265000C2000000000000000000000000000000B8
:102660008026000800000020340000002801000837
:10267000B42600083400002084060000440100084D
:1026800000A24A0400000000000000000102030450
:10269000060708090000000000000000FFFF10000E
:1026A00000000000010203040102030406070809F8
:0426B0000204060812
:04000005080000ED02
:00000001FF
