:020000040800F2
:10000000880B002089010008910100089301000875
:100010009501000897010008990100080000000000
:100020000000000000000000000000009B0100082C
:100030009D010008000000009F010008A5030008C2
:10004000A3010008A3010008A3010008A301000800
:10005000A3010008A3010008A3010008A3010008F0
:10006000A3010008A3010008A3010008A3010008E0
:10007000A3010008A3010008A3010008A3010008D0
:10008000A3010008A3010008A3010008A3010008C0
:10009000A3010008A3010008A3010008A3010008B0
:1000A000A3010008A3010008A3010008A3010008A0
:1000B000A3010008A3010008A3010008A301000890
:1000C000A3010008A3010008A3010008A301000880
:1000D000A3010008D7050008A3010008A301000838
:1000E000A3010008A3010008A301000800F002F822
:1000F00000F03AF80AA090E8000C82448344AAF188
:100100000107DA4501D100F02FF8AFF2090EBAE885
:100110000F0013F0010F18BFFB1A43F0010318473B
:10012000144C0000344C0000103A24BF78C878C149
:10013000FAD8520724BF30C830C144BF04680C60ED
:10014000704700000023002400250026103A28BF35
:1001500078C1FBD8520728BF30C148BF0B60704739
:100160001FB51FBD10B510BD04F097FD1146FFF778
:10017000F7FF00F00DFE04F0B5FD03B4FFF7F2FF4A
:1001800003BC04F0B9FD0000094880470948004756
:10019000FEE7FEE7FEE7FEE7FEE7FEE7FEE7FEE737
:1001A000FEE7FEE704480549054A064B7047000094
:1001B000A5020008ED00000888050020880B00203B
:1001C00088070020880700200CB5002001900090CF
:1001D0006B48006840F480306949086000BF684897
:1001E000006800F4003000900198401C01900098D5
:1001F00018B90198B0F5A06FF1D16148006810F40A
:10020000003F02D00120009001E000200090009803
:10021000012842D15B48006840F01000594908604D
:100220000846006820F0030008600846006840F0B7
:1002300002000860524840685149486008464068DA
:1002400048600846406840F480604860084640685E
:1002500020F47C1048600846406840F4E81048608C
:100260000846006840F08070086000BF444800689D
:1002700010F0007FFAD04248406820F00300404967
:1002800048600846406840F00200486000BF3C48B3
:10029000406800F00C000828F9D10CBD10B5FFF73C
:1002A00093FF10BD10B53648006840F00100344996
:1002B00008600846406834490840314948600846AB
:1002C0000068324908402E4908600846006820F45A
:1002D000802008600846406820F4FE0048604FF423
:1002E0001F008860FFF7DAFF4FF0006028490860C0
:1002F00010BD10B5002100200022214B5B6803F0E7
:100300000C0121B1042906D0082928D107E0214B8E
:10031000214C236027E01F4B1F4C236023E0184B28
:100320005B6803F47010164B5B6803F480320223A1
:1003300003EB904022B9194B4343174C23600DE067
:100340000F4B5B6813F4003F04D0144B4343124C33
:10035000236003E00F4B43430F4C236003E00D4B3E
:100360000D4C236000BF00BF054B5B68C3F3031354
:100370000B4CE15C084B1B68CB40074C236010BD65
:1003800000100240002002400000FFF8FFFFF6FED0
:1003900008ED00E000127A000000002000093D0096
:1003A000040000202848006800F180702649086099
:1003B000084600680860704710B504466FF00400F6
:1003C00000F076FE6FF07F404FF0E02148610020A2
:1003D00088610846006940F00300086110BD1A48B2
:1003E00001684FF0E0208269C2F18070084409235F
:1003F000B0FBF3F0704710B5FFF7F1FF04464FF480
:100400007A70B4FBF0F010BD70B50546FFF7F3FF4E
:100410000446264602E0FFF7EEFF0646301BA842E0
:10042000F9D3A642F7D370BD70B50546FFF7D7FFE5
:100430000446264602E0FFF7D2FF0646301BA842DC
:10044000F9D3A642F7D370BD1400002010B54FF4C5
:10045000A06000F0DDFD10BD10B586B0044601219E
:1004600044F2050001F058F94FF40070ADF81400A3
:1004700003208DF8160018208DF8170005A966488E
:1004800000F094FE4FF48060ADF8140004208DF865
:10049000170005A9604800F089FE25208DF80000AE
:1004A00003208DF8010002208DF8020001208DF854
:1004B0000300684600F0B1FD01940020ADF808008B
:1004C000ADF80A00ADF80C00ADF810000C20ADF846
:1004D0000E0001A9514801F050FB012240F22551C4
:1004E0004E4801F0E2FB01214C4801F0D2FB002014
:1004F0004B4908704B49087006B010BD4749098840
:1005000021F04001454A1180111D088000BF434978
:10051000098811F0400FFAD0704730B504460D46F7
:10052000002304E0E05CFFF7E9FF581C83B2AB4214
:10053000F8DB30BD00B5034603E01878FFF7DEFFB7
:100540005B1C18780028F8D100BD354800782430AD
:1005500034490978401A242190FBF1F201FB120082
:10056000C0B270472F490A780978491C2D4B197081
:100570002D49885C19460978242902DB00211A4696
:100580001170704770B50346254800782430254D1A
:100590002D78401B242590FBF5F605FB1600C4B210
:1005A000A14200DD2146002211E01E4805780078B6
:1005B000401C1C4E30701C48405D985430460078FA
:1005C000242802DB002035462870501CC2B28A4223
:1005D000EBDB084670BD10B540F225510F4801F025
:1005E00049FCB8B140F225510C4801F06DFC0B48B4
:1005F00001F0C0FBC4B20A4801780078401C084AE8
:1006000010700948445410460078242802DB00206A
:100610001146087010BD000000080140003801407C
:1006200018000020190000206000002008B50121FA
:1006300041F2040001F070F8E020ADF8000018204D
:100640008DF8030003208DF8020069464C4800F045
:10065000ADFDE0214A4800F054FE08BD70B50546E6
:10066000002405E0601CC4B2C82C01DD002070BD70
:100670000221444801F007FA0028F3D0002429465B
:10068000404801F0ADF905E0601CC4B2C82C01DDA2
:100690000020ECE701213B4801F0F5F90028F3D0F8
:1006A0000024384801F09EF9C0B2E0E70FB410B55D
:1006B000FFF7BCFF0021334801F061F902A931487E
:1006C00001F0B8F801212F4801F059F9FF20FFF798
:1006D000C5FF10BC5DF814FB2A4909884FF6C772A4
:1006E0001140284A118008283BD2DFE800F00409B5
:1006F00010171E252C3323490988224A118037E020
:100700002049098841F008011E4A118030E01D4946
:10071000098841F010011B4A118029E01949098814
:1007200041F01801174A118022E01649098841F06A
:100730002001144A11801BE01249098841F0280168
:10074000104A118014E00F49098841F030010D4A28
:1007500011800DE00B49098841F03801094A1180E8
:1007600006E00849098841F03801064A118000BFB7
:1007700000BF0449098841F04001024A11807047D6
:1007800000080140003001400020F94908804FF482
:1007900082704880002088800220C8800120088163
:1007A00040024881382088810020C88107200882C3
:1007B000704710B50446EE4884810146ED4801F0CB
:1007C00039F80121EB4801F0DAF810BD08B5012134
:1007D000042000F0A1FF1C20ADF8000003208DF8DC
:1007E000020010208DF803006946E34800F0DEFCAB
:1007F0001C21E14800F085FD08BD00B587B0FFF77A
:10080000E5FFFFF7C1FFDA48008AADF800001222C9
:10081000D74902A804F0C7F902A80FC8FFF746FF9E
:100820000720FFF759FF0120D449086007B000BD39
:1008300010B5002400BFFF20FFF710FFFF2801D1F3
:10084000002010BD641C6FF07F408442F3D3012070
:10085000F7E710B50120C94908604FF0FF00FFF726
:10086000FDFE10BD10B50020C4490860FFF7E0FF91
:1008700008B9002010BDFFF7ECFF0120FAE770B5C2
:100880001F2500BFFF20FFF7E9FE044614F0800F8C
:1008900004D02800A5F10101CDB2F3D1204670BDEE
:1008A00070B505460C46164645F04000FFF7D6FEEB
:1008B000200EFFF7D3FEC4F30740FFF7CFFEC4F3CB
:1008C0000720FFF7CBFEE0B2FFF7C8FE3046FFF788
:1008D000C5FE70BD70B505464FF6FF7401E0601EA1
:1008E00084B2FF20FFF7BAFEA84201D0002CF6D157
:1008F0000CB9FF2070BD0020FCE770B504460D4622
:10090000FE20FFF7E7FF08B1012070BD04E0FF20E3
:10091000FFF7A4FE2070641C2800A5F101018DB230
:10092000F5D1FF20FFF79AFEFF20FFF797FE00208A
:10093000EBE72DE9F04107460D46FFF779FF10B1CF
:100940000120BDE8F0812846FFF788FEFD2D19D073
:10095000002404E0385DFFF781FE601C84B2B4F52A
:10096000007FF7DBFF20FFF779FEFF20FFF776FE21
:10097000FF20FFF773FE064606F01F00052801D092
:100980000220DEE70020DCE770B5054600221146B4
:100990000A20FFF785FFFFF772FF044624B91021F4
:1009A0002846FFF7AAFF0446FFF753FF0CB10120CA
:1009B00070BD0020FCE770B50546FFF74AFFFFF762
:1009C00051FF08B1FF2070BD002211460920FFF73A
:1009D00067FFFFF754FF044624B910212846FFF7AC
:1009E0008CFF0446FFF735FF0CB10120EBE7002038
:1009F000E9E77FB56846FFF7DEFF10B1002004B0DD
:100A000070BD9DF8000000F0C000402809D19DF89D
:100A100009009DF8081000EB0120401C84B2A502DB
:100A200020E09DF8050000F00F009DF80A1000EB93
:100A3000D1109DF8091001F0030100EB4100861C64
:100A40009DF8080080119DF8071000EB81009DF8CB
:100A5000061001F0030100EB8120441CA6F10900FF
:100A600004FA00F52846CAE7F8B5FFF7C6FEFFF717
:100A7000F0FEFFF7F7FE08B1FF20F8BD0720FFF7F3
:100A80002BFE002504E0FF20FFF7E8FD681CC5B23F
:100A90000A2DF8DB142600203949087000BF952282
:100AA00000210846FFF7FCFEFFF7E9FE0446012C93
:100AB00004D03000A6F101018EB2F0D1012C55D145
:100AC00087224FF4D5710820FFF7EAFEFFF7D7FE23
:100AD0000446012C5AD1002506E0FF20FFF7BEFD99
:100AE0000DF80500681CC5B2042DF6DB9DF8020068
:100AF0000128E4D19DF80300AA28E0D14FF6FE7644
:100B000000BF012200213720FFF7CAFEFFF7B7FE22
:100B10000446012291072920FFF7C2FEFFF7AFFE2E
:100B2000044624B13000A6F101018EB2E9D10122C0
:100B300000213A20FFF7B4FEFFF7A1FE0446002E85
:100B400074D0002C72D1002506E0FF20FFF786FD4F
:100B50000DF80500681CC5B2042DF6DB9DF80000F9
:100B600010F0400F0ED00620054908705EE000002E
:100B70008400002000300140000801408C01214227
:100B80001A0000200420814908704FE00122002152
:100B90003720FFF785FEFFF772FE04460122002191
:100BA0002920FFF77DFEFFF76AFE0446012C1CDCBE
:100BB0000220764908704FF6FE7600BF0122002120
:100BC0003720FFF76DFEFFF75AFE04460122002191
:100BD0002920FFF765FEFFF752FE0446CCB1300036
:100BE000A6F101018EB2E9D113E001206749087036
:100BF0004FF6FE7600BF012200211046FFF750FE9F
:100C0000FFF73DFE044624B13000A6F101018EB28B
:100C1000F1D1012251021020FFF742FEFFF72FFE13
:100C2000044606B114B1002058490870FFF711FEC0
:100C30000120FFF751FD5548007808B100201CE75E
:100C40000CB1204619E7AA2017E72DE9F041064626
:100C50000F461546FFF7FDFDFFF704FE10B1FF201C
:100C6000BDE8F08149480078062800D07F02012DB8
:100C70000ED1012239461120FFF712FEFFF7FFFDCA
:100C800004463CBB69023046FFF737FE044621E0CC
:100C9000012239461220FFF703FEFFF7F0FD04465C
:100CA00000BF4FF400713046FFF727FE044606F5FB
:100CB0000076681EC0B2050001D0002CF1D00122E0
:100CC00000210C20FFF7ECFDFFF7D9FD0446FFF7EC
:100CD000D6FD0446FFF7BDFD2046C1E72DE9F041F2
:100CE00006460F461546FFF7B4FDFFF7BBFD10B1F2
:100CF000FF20BDE8F08125480078062800D07F025B
:100D0000012D0FD1012239461820FFF7C9FDFFF749
:100D1000B6FD0446002C35D1FE213046FFF709FE12
:100D200004462FE01948007801280FD00122002145
:100D30003720FFF7B5FDFFF7A2FD04460122294643
:100D40001720FFF7ADFDFFF79AFD04460122394653
:100D50001920FFF7A5FDFFF792FD044694B900BFE7
:100D6000FC213046FFF7E5FD044606F50076681ED7
:100D7000C0B2050001D0002CF2D0FD210020FFF709
:100D8000D8FD0446FFF765FD2046B2E71A000020B3
:100D9000FFF788FA4820FFF70FFBFFF757FB4FF4E8
:100DA0001650FFF759FB41F28830FFF72DFB4BA09F
:100DB000FFF7C0FB00224CA14C4802F00FF94C4950
:100DC00008600846006810B94AA0FFF7B3FB132279
:100DD0004CA1504802F02DF94549086008460068CA
:100DE00018B94DA0FFF7A6FB02E050A0FFF7A2FB49
:100DF0004848C16802F008FC3D490860454950A0D8
:100E000003F05BFD3A4908604248C16802F0FCFB10
:100E100037490860504B142250493E4802F099FA75
:100E2000334908600846006818B14DA0FFF782FBFF
:100E300006E04FA0FFF77EFB47490878FFF75EFB0F
:100E40000021344802F0E0FB294908604E4B322271
:100E50004E49304802F09DF925490860084600686F
:100E600018B14BA0FFF766FB1AE04EA0FFF762FB3C
:100E70000020514908600AE044494F4A1268885CE2
:100E8000FFF73CFB4C480068401C4B4908604A484F
:100E900000683D4909688842EED348A0FFF74AFB45
:100EA0001C4802F0A1FB124908600846006818B906
:100EB00047A0FFF73FFB02E04AA0FFF73BFB002201
:100EC0004DA1104602F08AF80949086008460068FA
:100ED00010B94AA0FFF72EFB00BFFEE773746172E2
:100EE00074200D0A00000000313A00009800002034
:100EF00030000020665F6D6F756E74206F6B200D83
:100F00000A000000313A4669727374312E747874A5
:100F100000000000C802002046696C65206372650D
:100F20006174204F4B200D0A0000000046696C657B
:100F3000206372656174204661696C200D0A0000AF
:100F400054686973206973206669727374207465CC
:100F50007374200D0A000000380000201C000020DF
:100F6000665F7772697465204641494C200D0A001E
:100F7000665F777269746520627566206C656E3392
:100F800033200D0A2000000034000020F00400206F
:100F900046696C652072656164204641494C200DAC
:100FA0000A00000046696C652072656164204F4B41
:100FB0003131200D0A0000003C00002046696C65BC
:100FC0002072656164204F4B3232200D0A00000010
:100FD00046696C6520436C6F7365204F4B200D0A8A
:100FE0000000000046696C6520436C6F7365204605
:100FF00061696C200D0A000031000000666D6F759C
:101000006E742073746F70206F6B200D0A000000E7
:1010100031490143314A1160704770B50021002306
:101020000F22C4780CB32D4C246804F4E064C4F59A
:10103000E064210AC1F10403CA40447804FA03F1D0
:101040008478144021430901254C0678A155047881
:1010500004F01F050124AC4005786D114FF0E02627
:1010600006EB8505C5F8004109E0047804F01F058A
:101070000124AC401B4D0678761145F8264070BD22
:10108000194A0A400243154B1B1F1A60704739B1B9
:10109000124A121D12680243104B1B1D1A6006E013
:1010A0000E4A121D126882430C4B1B1D1A607047BA
:1010B000042808D14FF0E021096941F004014FF004
:1010C000E022116107E04FF0E021096921F00401FD
:1010D0004FF0E022116170470000FA050CED00E0CE
:1010E00000E400E080E100E080FFFF1F10B504464F
:1010F000CA48844208D10121042000F027FB0021C6
:10110000042000F023FB46E0C548844208D10121B9
:10111000082000F01BFB0021082000F017FB3AE03C
:10112000C048844208D10121102000F00FFB0021AB
:10113000102000F00BFB2EE0BB48844208D10121B7
:10114000202000F003FB0021202000F0FFFA22E025
:10115000B648844208D10121402000F0F7FA00216E
:10116000402000F0F3FA16E0B148844208D1012192
:10117000802000F0EBFA0021802000F0E7FA0AE07E
:10118000AC48844207D10121801500F0DFFA00212C
:10119000A01500F0DBFA10BD10B50121084600F0E3
:1011A000D5FA0021012000F0D1FA10BD2DE9F0415F
:1011B000024600250026002000230024002791F885
:1011C00003C00CF00F0591F803C01CF0100F03D002
:1011D00091F802C04CEA050591F800C0BCF1000F7F
:1011E00031D0146800202BE04FF0010C0CFA00F312
:1011F000B1F800C00CEA03069E4220D183004FF0F4
:101200000F0C0CFA03F7BC4305FA03FC4CEA040488
:1012100091F803C0BCF1280F06D14FF0010C0CFA75
:1012200000FCC2F814C00AE091F803C0BCF1480FFA
:1012300005D14FF0010C0CFA00FCC2F810C0401CA4
:101240000828D1D31460B1F800C0BCF1FF0F34DD21
:10125000546800202EE000F1080C4FF0010808FA55
:101260000CF3B1F800C00CEA03069E4221D18300C2
:101270004FF00F0C0CFA03F7BC4305FA03FC4CEAE1
:10128000040491F803C0BCF1280F05D100F1080C4B
:1012900008FA0CF8C2F8148091F803C0BCF1480FAA
:1012A00007D100F1080C4FF0010808FA0CF8C2F859
:1012B0001080401C0828CED35460BDE8F0814FF662
:1012C000FF710180022181700421C17070470246C4
:1012D000002093680B4201D0012000E000207047FD
:1012E0000146886880B2704702460020D3680B42EE
:1012F00001D0012000E0002070470146C86880B29C
:10130000704701617047416170470AB1016100E0B7
:1013100041617047C16070474FF480320A43826177
:101320008161826182698269704702460020424B76
:1013300018684FF68073184040EA021008433E4B8D
:10134000186070473D49C8617047F0B50A460023F0
:1013500000240021002500F00046B6F1004F02D124
:10136000354EF16901E0344E7168C0F3034583B234
:1013700000F44016B6F5401F08D121F070612E4EE2
:10138000766826F070662C4F7E6012E000F48016BE
:10139000B6F5801F06D1032606FA05F4A14341F0F5
:1013A000706106E0460D360103FA06F6B14341F0DE
:1013B000706122B1460D360103FA06F6314300F0A2
:1013C0000046B6F1004F02D11B4EF16101E01A4E0A
:1013D0007160F0BD30B500228B071C0F0F2303FA9C
:1013E00004F2154B08338C1053F824309343124CFD
:1013F00008348D1044F8253023468C1053F82430DF
:101400008C07240F00FA04F423430B4C08348D108E
:1014100044F8253030BD0A49086070470008014093
:10142000000C014000100140001401400018014070
:10143000001C01400020014000000140000020424B
:10144000DC002042DD48006840F00100DB49086014
:1014500008464068DA490840D849486008460068AC
:10146000D8490840D54908600846006820F4802023
:1014700008600846406820F4FE0048604FF41F00F2
:1014800088607047CD49096821F48031CB4A1160EA
:101490001146096821F480211160B0F5803F03D026
:1014A000B0F5802F0ED106E0C449096841F48031BF
:1014B000C24A116007E0C149096841F4A021BF4A4E
:1014C000116000E000BF00BF704710B50146002268
:1014D000002300204A11012A02D1B84C236806E0FB
:1014E000022A02D1B54C236A01E0B44C636A01F0D0
:1014F0001F02012494401C4201D0012000E0002082
:1015000010BD38B5002000900024002500BF312018
:10151000FFF7DBFF05460098401C00900098B0F5EF
:10152000A06F01D0002DF2D03120FFF7CEFF08B11F
:10153000012400E00024204638BD014600209F4AD7
:10154000106820F0F80040EAC100106070479E4922
:101550000860704702460020984B586820F47C10C1
:1015600042EA01031843954B586070479649086654
:10157000704701460020914A506820F0030008435C
:10158000506070478D48406800F00C00704701467D
:1015900000208A4A506820F0F000084350607047ED
:1015A00001460020854A506820F4E06008435060FE
:1015B000704701460020814A506820F4605040EA9C
:1015C000C1005060704729B17C4A527A02437B4B7C
:1015D0005A7204E0794A527A8243784B5A727047C1
:1015E0007A490860704701460020744A506820F428
:1015F00040400843506070470021754A11706F4A9F
:1016000082F82010012802D0042808D103E001212B
:101610006F4A117004E005216D4A117000E000BFAF
:1016200000BF70476B49086070476449096A01430D
:10163000624A11627047674944390860704730B5A3
:1016400000210022002400235C4D6D6805F00C0190
:1016500021B1042905D0082923D105E05E4D05609C
:1016600022E05D4D05601FE0544D6D6805F4701279
:10167000524D6D6805F48034022505EB92421CB989
:10168000564D554305600BE04C4D6D6815F4003F19
:1016900003D0524D5543056002E04F4D5543056060
:1016A00002E04D4D056000BF00BF444D6D6805F080
:1016B000F00109094A4D6B5C0568DD4045603F4D0E
:1016C0006D6805F4E061090A454D6B5C4568DD40D5
:1016D00085603A4D6D6805F46051C90A404D6B5CF8
:1016E0004568DD40C560354D6D6805F44041890BA6
:1016F0003C4D6B5CC568B5FBF3F5056130BD29B1A8
:101700002E4A526902432D4B5A6104E02B4A52691A
:1017100082432A4B5A61704729B1284A9269024391
:10172000264B9A6104E0254A92698243234B9A61D1
:10173000704729B1214AD2690243204BDA6104E0A3
:101740001E4AD26982431D4BDA61704729B11B4A98
:10175000D2680243194BDA6004E0184AD268824327
:10176000164BDA60704729B1144A12690243134BD1
:101770001A6104E0114A12698243104B1A617047E2
:1017800014494039086070470F49C86470470B49D5
:10179000C87170470948406A40F080700749486244
:1017A000704701460020054A92680A4201D0012094
:1017B00000E0002070470149887270470010024025
:1017C0000000FFF8FFFFF6FE00004242D800424250
:1017D000201002408004424200127A0000093D00BD
:1017E000400000205000002010B50446BE4884424E
:1017F00008D101218014FFF7A9FF0021A014FFF7F1
:10180000A5FF16E0B948844208D101210014FFF772
:10181000AAFF00212014FFF7A6FF0AE0B448844283
:1018200007D10121C013FFF79EFF0021E013FFF74E
:101830009AFF10BD10B50022028802F441520B88B5
:101840004C8823438C882343CC8823430C8923432F
:101850004C8923438C892343CC8923431A43028038
:10186000838B4FF2FF74234083830B8A038210BD66
:101870002DE9F04F85B005460C464FF000090227D0
:101880004FF000084FF0010B0026B246A88B4FF234
:1018900040010840A88302202884B5F81C90A06865
:1018A000022801D100BF38E0A08810B94FF0010B29
:1018B00001E04FF0020B8D48854200D100E000BFEF
:1018C0006846FFF7BCFEDDF800A0E088B0F5007FB9
:1018D0000AD14FEA1A2000EB80004000A168B0FB5B
:1018E000F1F0401D86B20BE04FEA4B10BAFBF0F06E
:1018F00000EB80004000A168B0FBF1F0401D86B213
:101900000A20B6FBF0F606F00108A6EB0800C0F3CB
:101910004F074FF6FF7000EA0828022F01DBFF2F68
:1019200002DD02274FF00008E08840EA0800384353
:101930002884A088A1890843618808432188084336
:1019400040F4006040EA0909A5F81C9005B0BDE824
:10195000F08F0021018041808180C180018141811F
:101960008181C1810721018270470021018041806E
:101970008180C1800221816000218181704721B175
:10198000028842F04002028004E002884FF6BF73F2
:101990001A400280704721B1828B42F480628283B8
:1019A00004E0828B4FF6FF331A408283704730B5D4
:1019B000002400230C110125A540ABB21AB1858883
:1019C0001D43858002E085889D43858030BD1AB126
:1019D00083880B43838002E083888B438380704736
:1019E00081817047014688897047A1F57E42FF3AA0
:1019F00004D0028842F48072028004E002884FF62C
:101A0000FF631A400280704721B1828842F00402CD
:101A1000828004E082884FF6FB731A408280704710
:101A200002884FF2FF731A40028002880A43028044
:101A30007047018841F480510180704721B10288CC
:101A400042F40052028004E002884DF6FF731A400F
:101A50000280704702460020012901D0108B00E06F
:101A6000908A70470146088A7047B1F5804F04D1CB
:101A7000028842F48042028004E002884BF6FF7341
:101A80001A40028070470246002013890B4201D0A1
:101A9000012000E000207047CA4302817047F0B582
:101AA0000246002000240023002501F00F07012634
:101AB000BE40B4B20B1101269E40B3B2968806EA2E
:101AC00003051689264202D00DB1012000E0002056
:101AD000F0BD10B5002201F00F040123A3409AB21B
:101AE000D343038110BD00000030014000380040A6
:101AF000003C004010B50446FB48844209D1012156
:101B00008803FFF723FE00214FF48040FFF71EFEFD
:101B100032E0F648844209D101214804FFF723FE50
:101B200000214FF40030FFF71EFE25E0F04884420C
:101B300009D101218804FFF716FE00214FF480200F
:101B4000FFF711FE18E0EB48844209D10121C804D7
:101B5000FFF709FE00214FF40020FFF704FE0BE021
:101B6000E548844208D101210805FFF7FCFD00216A
:101B70004FF48010FFF7F7FD10BD2DE9F04786B058
:101B800005460E460024A24600BFA1460027B089A4
:101B900000B100BF2F462C8A4CF6FF700440F0883D
:101BA00004432C82AC894EF6F3100440B08831898E
:101BB0000843718908430443AC81AC8A4FF6FF4067
:101BC0000440B0890443AC8201A8FFF738FDC64841
:101BD000874202D1DDF810A001E0DDF80CA0A88951
:101BE00010F4004F08D00AEBCA0000EB0A1031686D
:101BF0004900B0FBF1F807E00AEBCA0000EB0A105D
:101C000031688900B0FBF1F86420B8FBF0F0040102
:101C10002009642101FB1089A88910F4004F08D025
:101C2000322000EBC900B0FBF1F000F007000443E4
:101C300008E0322000EB09106421B0FBF1F000F065
:101C40000F0004432C8106B0BDE8F0874FF4165115
:101C5000016000218180C18001810C21418100212E
:101C60008181704710B502460020108A4FF2FF03B1
:101C700018400B884C8823438C882343CC8823430B
:101C80001843108210BD0021018041808180C180F5
:101C9000704721B1828942F40052828104E0828936
:101CA0004DF6FF731A4082817047F0B50346002459
:101CB000002600250020A1F510676A3F00D100BF73
:101CC0001846C1F3421401F01F06012707FA06F572
:101CD000012C01D10C3004E0022C01D1103000E0C5
:101CE00014301AB107682F43076002E00768AF435A
:101CF0000760F0BD1AB1838A0B43838202E0838AB6
:101D00008B4383827047028A4FF6F0731A40028237
:101D1000028A0A430282704782894FF2FF731A4097
:101D2000828182890A438281704721B1828942F08F
:101D30000202828104E082894FF6FD731A4082819B
:101D40007047028A4FF6DF731A400282028A0A4302
:101D50000282704721B1028A42F48042028204E08A
:101D6000028A4BF6FF731A4002827047C1F30802E1
:101D70008280704701468888C0F3080070478189D7
:101D800041F0010181817047028BD2B20283028B44
:101D900042EA012202837047028B02F47F420283EF
:101DA000028B0A430283704721B1828A42F02002EB
:101DB000828204E0828A4FF6DF731A408282704783
:101DC00021B1828A42F01002828204E0828A4FF6B8
:101DD000EF731A408282704721B1828A42F0080272
:101DE000828204E0828A4FF6F7731A40828270473B
:101DF00021B1828942F40042828103E08289C2F3E8
:101E00000E028281704721B1828A42F4006282828E
:101E100004E0828A4FF2FF731A4082827047828AFE
:101E20004FF6FB731A408282828A0A43828270478D
:101E300021B1828A42F00202828204E0828A4FF655
:101E4000FD731A408282704702460020B1F5007F80
:101E500000D100BF13880B4201D0012000E0002018
:101E6000704701F40072B2F5007F00D100BFCA4391
:101E70000280704770B50246002400230025002030
:101E8000A1F510666A3E00D100BFC1F3421501F012
:101E90001F03012606FA03F3012D02D19689334070
:101EA00006E0022D02D1168A334001E0968A3340C3
:101EB0000C12012606FA04F41688344013B10CB152
:101EC000012000E0002070BD10B500220023A1F524
:101ED00010646A3C00D100BF0A1201249440A3B2EE
:101EE000DC43048010BD0000003801400044004085
:101EF00000480040004C00400050004001460020D7
:101F0000704770B50446012524B1012C03D0022C82
:101F100006D104E004E0FEF7A7FD054600E000BF9F
:101F200000BF0DB1012070BD0020FCE72DE9F0419C
:101F300005460E4617461C464FF0010814B904200A
:101F4000BDE8F08125B1012D03D0022D09D107E0B4
:101F500007E0E2B239463046FEF777FE804600BF22
:101F600000BF00BFB8F1000F01D10020E8E7012059
:101F7000E6E72DE9F04705460E4617461C464FF0AA
:101F800001084FF01F0914B90420BDE8F08725B1FE
:101F9000012D03D0022D16D114E014E00DE0E2B2C1
:101FA00039463046FEF79AFE8046B8F1000F00D160
:101FB00006E0A9F1010000F0FF09B9F1000FEED130
:101FC00000BF00E000BF00BFB8F1000F01D100204A
:101FD000DBE70120D9E710B50346012023B1012B2F
:101FE00003D0022B1BD119E019E031B101290FD028
:101FF000022904D003290DD106E000200CE04FF4A3
:1020000000741480002007E008241480002003E0FE
:10201000002001E0042000BF00BF00E000BF00BFBF
:1020200010BD00207047000070B503460C4603E069
:1020300014F8015B03F8015B1500A2F10102F7D16E
:1020400070BD30B5034601E003F8011B1400A2F196
:102050000102F9D130BDF0B503461C460D46002003
:1020600000BF1600A2F1010207D014F8017B15F899
:1020700001CBA7EB0C063000F3D0F0BD024600E028
:10208000521C107810B110788842F9D1107870473E
:1020900070B504462079F8B1E56A607801232A46D4
:1020A00004F13001FFF765FF08B1012070BD002089
:1020B0002071206A281AA16988420DD2E67809E0C9
:1020C000A0690544607801232A4604F13001FFF736
:1020D00050FF761E022EF3D20020E7E770B50446CB
:1020E0000D46E06AA84210D02046FFF7D1FF08B1A4
:1020F000012070BD607801232A4604F13001FFF70A
:1021000015FF08B10120F4E7E5620020F1E770B5A2
:1021100004462046FFF7BCFF0546002D59D1207824
:1021200003284FD1607901284CD14202002104F1EB
:102130003000FFF786FF552184F82E12AA2184F87B
:102140002F12522084F83000522131200155612194
:1021500032200155412133200155722184F8141297
:1021600084F81512412184F81612612184F817129F
:10217000217C84F81812208A010A84F81912206937
:10218000010C84F81A122069010E84F81B12217BBD
:1021900084F81C12A089010A84F81D12E068010C61
:1021A00084F81E12E068010E84F81F12E069401CDA
:1021B000E0626078012304F13001E26AFFF7D9FEA2
:1021C00000206071607800221146FFF704FF00B123
:1021D0000125284670BD0246891E5069801E88422E
:1021E00001D8002070479378906A01FB0300F9E75B
:1021F0002DE9F04105460C46022C02D36869A04245
:1022000002D80120BDE8F0812878012804D00228F6
:102210002CD003285AD13DE0274607EB5707286A00
:1022200000EB57212846FFF759FF00B150E0C7F3F4
:10223000080105F1300010F801807F1C286A00EBCE
:1022400057212846FFF74AFF00B141E0C7F30801D4
:1022500005F13000405C48EA002814F0010F02D07C
:102260004FEA1810CEE7C8F30B00CBE7286A00EB63
:1022700014212846FFF732FF00B129E040F2FF1099
:1022800000EA440105F130000E183078717840EA18
:102290000120B7E7286A00EBD4112846FFF71EFF9C
:1022A00000B115E040F2FF1000EA840105F13000B2
:1022B0000E18F0780006B17840EA0140717840EAE3
:1022C00001203178084320F070409BE7012099E716
:1022D00000BF4FF0FF3095E72DE9F04705460E4669
:1022E0001746022E02D36869B04202D84FF00208A6
:1022F0008DE02878012804D0022843D003287DD11E
:1023000056E0B14609EB5909286A00EB59212846E5
:10231000FFF7E4FE8046B8F1000F00D074E0C9F387
:10232000080105F130000C1816F0010F04D0F9B2C5
:10233000207861F31F1000E03846207009F1010990
:1023400001202871286A00EB59212846FFF7C6FEB4
:102350008046B8F1000F00D056E0C9F3080105F13E
:1023600030000C1816F0010F02D0C7F3071007E079
:10237000207800F0F000C7F3072101F00F010843B7
:10238000207041E0286A00EB16212846FFF7A6FEE0
:102390008046B8F1000F00D036E040F2FF1000EAAE
:1023A000460105F130000C182770380A60702BE0E8
:1023B000286A00EBD6112846FFF790FE8046B8F158
:1023C000000F00D020E040F2FF1000EA860105F186
:1023D00030000C18E0780006A17840EA01406178EE
:1023E00040EA01202178084300F07040074327703D
:1023F000380A6070380CA070380E00E001E0E07020
:1024000002E04FF0020800BF00BF012028714046E3
:10241000BDE8F0872DE9F04104460E46022E02D3B6
:102420006069B04201D8022727E0002721E0314649
:102430002046FFF7DDFE054605B91DE0012D01D15F
:10244000022719E0681C01D1012715E0002231465E
:102450002046FFF741FF074607B10DE02069401C09
:1024600006D02069401C2061607940F00100607155
:102470002E466069B042DAD800BF3846BDE8F08128
:102480002DE9F04704468946B9F1000F06D1E76807
:1024900017B16069B84215D8012713E049462046B4
:1024A000FFF7A6FE0646022E02D20120BDE8F08705
:1024B000701C01D13046F9E76069B04201D930465D
:1024C000F4E74F463D4600BF6D1C6069A84204D842
:1024D0000225BD4201D90020E8E729462046FFF742
:1024E00087FE064606B909E0701C01D0012E01D115
:1024F0003046DBE7BD42E7D10020D7E700BF6FF0F1
:10250000704229462046FFF7E7FE8046B8F1000FEB
:1025100008D1B9F1000F05D02A4649462046FFF7F9
:10252000DBFE8046B8F1000F0BD1E5602069401C4E
:102530000FD02069401E2061607940F00100607179
:1025400007E0B8F1010F02D14FF0FF3000E00120A9
:1025500005462846AAE770B503460D46586A021D8F
:10256000680A1E68B678B0FBF6F400BF02CA09B963
:10257000002070BD8C4200D202E0641A121DF5E703
:1025800000BF10682044F4E72DE9F04104460E46F0
:10259000E680A568012D03D020684069A84202D8D2
:1025A0000220BDE8F0812DB920680078032801D110
:1025B0002068456A45B920680089B04201D80220E8
:1025C000EFE72068476A1EE0206880784FEA00182D
:1025D00012E029462068FFF70BFE0546681C01D172
:1025E0000120DEE7022D03D320684069A84201D80C
:1025F0000220D6E7A6EB08064645EAD2294620681F
:10260000FFF7E9FD0746E5600FB90220C9E707EBD0
:10261000161020612068303006F00F0100EB4110E9
:1026200060610020BDE72DE9F04104468846E0885E
:10263000461C3004000C01D0206910B90420BDE80C
:10264000F08116F00F0F6BD12069401C2061E0680B
:1026500028B920680089B04262D80420EFE72068DA
:102660008078401E10EA161F5AD1E1682068FFF7F3
:10267000BFFD0546012D01D80220E0E7681C01D10D
:102680000120DCE720684069A84243D8B8F1000F78
:1026900001D10420D3E7E1682068FFF7F1FE054689
:1026A0000DB90720CBE7012D01D10220C7E7681C37
:1026B00001D10120C3E72068FFF7EAFC08B101203F
:1026C000BDE7216801F130004FF400720021FFF7EF
:1026D000B8FC29462068FFF77EFD2168C862002704
:1026E0000EE00120216808712068FFF7D1FC08B1D5
:1026F0000120A4E72068C06A401C2168C8627F1CD2
:1027000020688078B842ECD82068C06AC01B216875
:10271000C86200BFE56029462068FFF75CFD2061C4
:10272000E6802068303006F00F0100EB4110606158
:10273000002084E72DE9F04104460E4600212046A2
:10274000FFF722FF0546EDB9002700BF2169206889
:10275000FFF7C4FC054605B113E060690078E52881
:1027600002D06069007820B9781C0746B04201D1D8
:1027700007E0002701212046FFF755FF0546002D01
:10278000E4D000BF042D00D107252846BDE8F08124
:1027900010B502468C7ECB7E44EA03201378032BCF
:1027A00005D10C7D4B7D44EA032340EA034010BD74
:1027B00081760B0AC3760A0C02750B0E43757047BF
:1027C0002DE9F041044600212046FFF7DDFE0546D5
:1027D00015B12846BDE8F08100BF21692068FFF7E8
:1027E0007DFC054605B116E0666937780FB904250A
:1027F00011E0F07A10F0080F06D10B223046A169E3
:10280000FFF729FC00B906E000212046FFF70BFF87
:102810000546002DE1D000BF2846DBE72DE9F04753
:1028200004468946042526E021692068FFF756FC06
:10283000054605B122E0D4F8148098F800600EB97E
:1028400004251BE098F80B0000F03F07E52E0BD0A5
:102850002E2E09D00F2F07D0082F01D1012000E024
:102860000020484500D109E000212046FFF7DBFEAB
:10287000054605B102E020690028D5D100BF0DB1A1
:10288000002020612846BDE8F08770B5044601218C
:102890002046FFF74FFF054695B921692068FFF7ED
:1028A0001DFC054665B9202200216069FFF7C9FBC0
:1028B0000B22D4E90501FFF7B7FB0120216808715D
:1028C000284670BD70B50446E1882046FFF75CFEDF
:1028D000054685B921692068FFF700FC054655B912
:1028E000202200216069FFF7ACFBE52061690870D8
:1028F000012021680871284670BDF0B5044601F139
:102900000902206900282DD06069002310E01E46CE
:102910005B1C855D202D00D10AE0052D00D1E52549
:10292000092B02D12E2602F8016B02F8015B00BFD1
:102930000B2BECD3C67A0E72C67F3706867F47EA2A
:102940000647467F47EA0626077F3E430E60077E1E
:10295000467E47EA06268E80877DC67D47EA0626A4
:10296000CE8000BF00201070F0BD2DE9F35F01980C
:10297000D0F8009001E009F1010999F800002F2832
:10298000F9D099F800005C28F5D0009886690B22F0
:1029900020213046FFF755FB00252F46AB464FF070
:1029A000080A00BF58460BF1010B19F80040202C13
:1029B00003DD2F2C01D05C2C00D153E02E2C01D054
:1029C00057450DD3BAF1080F01D12E2C02D00620A5
:1029D000BDE8FC9F08274FF00B0AA806050EE1E7AB
:1029E000802C01DB45F00305812C20DBFE2C1EDC56
:1029F00058460BF1010B19F80080B8F1400F02DBCB
:102A0000B8F17E0F05DDB8F1800F06DBB8F1FE0FDF
:102A100003DCAAF10100B84201D80620D8E7384605
:102A20007F1C345438467F1C06F8008019E021468C
:102A3000FAA0FFF723FB08B10620C9E7412C04DB0D
:102A40005A2C02DC45F0020508E0612C06DB7A2CEA
:102A500004DC45F00105A4F12000C4B238467F1C17
:102A600034549FE700BF09EB0B0101980160202C53
:102A700001DC042000E0002004460FB90620A7E78F
:102A80003078E52801D105203070BAF1080F01D166
:102A9000A806050E05F00300012801D144F010043A
:102AA00005F00C00042801D144F00804F472002061
:102AB0008EE72DE9F3410446019800782F2803D0D2
:102AC000019800785C2802D10198401C01900020F8
:102AD000A06001980078202807D200212046FFF747
:102AE00053FD05460020606128E000BF01A9204693
:102AF000FFF73BFF054605B11FE02046FFF760FEEC
:102B00000546A069C67A3DB1042D04D100BF16F078
:102B1000040F00D1052510E016F0040F00D00CE0E2
:102B20006769F87A10F0100F01D1052505E03946E4
:102B30002068FFF72DFEA060D8E700BF2846BDE85B
:102B4000FC8170B502464FF0FF301568E5B11168A1
:102B500000E0491C0D78212D02D30D783A2DF8D1D3
:102B60000D783A2D0FD1146814F8015BA5F13003EC
:102B70000A2B07D28C4205D1022B03D218464D1CDA
:102B80002946156070BD002000BFFBE770B5044604
:102B90000D4600202071401EE06229462046FFF7C6
:102BA0009DFA08B1032070BD94F82E1294F82F02FC
:102BB00041EA0020A0F52A41553901D00220F2E770
:102BC00094F86900010694F8680041EA004194F81D
:102BD000670041EA002094F86610084320F07F4027
:102BE0009249884201D10020DDE794F88500010672
:102BF00094F8840041EA004194F8830041EA0020FF
:102C000094F88210084320F07F408849884201D11F
:102C10000020C8E70120C6E72DE9F74F88B0002162
:102C2000089801600998FFF78CFF07900798002823
:102C300003DA0B200BB0BDE8F08F7D49079851F8FF
:102C400020400CB90C20F5E708980460207878B192
:102C50006078FFF753F9804618F0010F08D10A9801
:102C600020B118F0040F01D00A20E3E70020E1E7CB
:102C700000202070079860706078FFF742F9804666
:102C800018F0010F01D00320D4E70A9820B118F002
:102C9000040F01D00A20CDE7002739462046FFF770
:102CA00075FF0546012D01D06DBB2CE0002614E018
:102CB00004F5F77101EB0610017951B1C17A0A06EA
:102CC000817A42EA0142417A42EA0121027A1143C1
:102CD00000E000214DF82610761C042EE8D30026D3
:102CE00006B1761E00BF5DF8267027B13946204632
:102CF000FFF74CFF00E0022005461DB1701C0646A0
:102D00000428F0D300BF032D01D1012092E70DB1BB
:102D10000D208FE73B20015D94F83C0041EA002044
:102D2000B0F5007F01D00D2084E74620015D94F8C6
:102D3000470041EA0029B9F1000F0ED194F857007D
:102D4000010694F8560041EA004194F8550041EA22
:102D5000002094F8541040EA0109C4F8189040206B
:102D6000005DE070E078012804D0E078022801D00E
:102D70000D205FE7E07809FB00F93D20005DA070C1
:102D8000A07818B1A078411E084201D00D2051E76B
:102D90004120015D94F8420041EA00202081207A20
:102DA00010F00F0F01D00D2044E74320015D94F88F
:102DB000440041EA002BBBF1000F0ED194F8530000
:102DC000010694F8520041EA004194F8510041EAAA
:102DD000002094F8501040EA010B3E20015D94F869
:102DE0003F0041EA00200490049808B90D2021E733
:102DF00004984844218900EB1110069006988345F9
:102E000001D20D2016E70698ABEB0000A178B0FBCD
:102E1000F1FABAF1000F0DD10D200BE7222A2B2C6D
:102E20003A3B3C3D3E3F5B5D7C7F000046415400A9
:102E300054000020012540F6F670824500D302259B
:102E40004FF6F670824500D303250AF10200606157
:102E5000E76104983844206206983844A062032D44
:102E600016D1208908B10D20E4E694F85F00010630
:102E700094F85E0041EA004194F85D0041EA0020C8
:102E800094F85C100843606260698000059014E06B
:102E9000208908B90D20CDE6206A48446062022DE1
:102EA00002D16069400007E0207D00F00100616907
:102EB00001EB410100EB51000590A169059800F27A
:102EC000FF10B1EB502F01D20D20B3E64FF0FF30D1
:102ED0002061E06080206071032D5AD194F8601069
:102EE00094F8610041EA0020012852D1791C204663
:102EF000FFF7F4F8E8BB0020607194F82E1294F804
:102F00002F0241EA0020A0F52A41553941D1332052
:102F1000005D01063220005D41EA00413120005D84
:102F200041EA002094F830100843FE49884230D12D
:102F300094F81702010694F8160241EA004194F849
:102F4000150241EA002094F814120843F649884219
:102F50001FD194F81B02010694F81A0241EA0041BD
:102F600094F8190241EA002094F8181208432061ED
:102F700000E00EE094F81F02010694F81E0241EAF8
:102F8000004194F81D0241EA002094F81C12084305
:102F9000E0602570E5480088401C80B2E349088065
:102FA000E080002046E670B505462C464CB120680E
:102FB00038B12068007820B12068C088A188884294
:102FC00001D0092070BD21684878FEF797FF10F006
:102FD000010F01D00320F5E70020F3E7F7B582B039
:102FE00016460398019001A8FFF7ABFD0546002D9A
:102FF00002DA0B2005B0F0BDCD4850F825400CB1E9
:1030000000202070029810B1002002990870C84971
:10301000029841F82500029808B1012E01D0002045
:10302000E8E7002203A902A8FFF7F6FD07463846A5
:10303000E0E72DE9F7438AB0054616461DB9092099
:103040000DB0BDE8F0830020286006F01F0626F0D2
:1030500001020BA903A8FFF7DFFD0746002F7DD172
:10306000CDF824D003A80B99FFF723FD0746089C51
:103070000FB904B9062716F01C0F50D04FB1042F1A
:1030800003D103A8FFF701FC074646F00806089C99
:1030900009E0E07A10F0110F01D0072703E016F0E5
:1030A000040F00D00827002F38D116F0080F35D0B4
:1030B000FEF7B7FF804684F80E804FEA1821E173CF
:1030C0004FEA184121744FEA186161740020E072E0
:1030D000207700216177A177E17721460398FFF7F8
:1030E00057FB814600212046FFF762FB0120039930
:1030F0000871B9F1000F11D00398D0F82C8049461F
:103100000398FFF787F9074647B9A9F1010003992A
:10311000C86041460398FEF7E1FF07460EE06FB92D
:10312000E07A10F0100F01D0042707E016F0020F2C
:1031300004D0E07A10F0010F00D0072747B916F04D
:10314000080F01D046F020060398C06AE8612C629F
:1031500027B9AE710020E871214600E017E003981E
:10316000FFF716FB2861E07F0106A07F41EA0041DE
:10317000607F41EA0020217F0843E8600020A860CA
:10318000A8616862039828602868C088A8803846CB
:1031900056E72DE9FF4F83B0044615469A46DDF801
:1031A00010B00020CAF800002046FFF7FCFE029095
:1031B000029818B1029807B0BDE8F08FE07908B125
:1031C000E079F8E7A07910F0010F01D10720F2E7CC
:1031D000D4E90210401A00900098854200D9009D61
:1031E000B2E02089C005C00D76D120688078401EED
:1031F000A16800EA512000F0FF09B9F1000F1FD1CA
:10320000A06810B9206901900CE0606A28B12046DE
:10321000A168FFF7A0F9019004E061692068FEF75A
:10322000E7FF01900198022802D20220E071C2E774
:103230000198401C02D10120E071BCE70198606157
:1032400061692068FEF7C7FF064616B90220E071E3
:10325000B1E74E444FEA5528B8F1000F29D009EBE9
:10326000080021688978884203D920688078A0EB1B
:10327000090821684878434632465946FEF756FE0B
:1032800010B10120E07196E7A07910F0400F0DD049
:10329000A069801B404509D2A169891B0BEB412025
:1032A0004FF4007204F12801FEF7BEFE4FEA4827F2
:1032B00037E0A069B04220D0A07910F0400F10D0C4
:1032C00021684878012304F12801A269FEF751FE24
:1032D00018B10120E0716EE710E0A07920F0400005
:1032E000A071216848780123324604F12801FEF7D5
:1032F0001DFE10B10120E0715DE7A6612089C0F3D9
:103300000800C0F50077AF4200D92F462089C0F3EE
:10331000080204F1280011183A465846FEF784FEC8
:1033200000BF07E052526141727241615C000020AF
:1033300054000020BB44A0683844A060DAF80000C4
:103340003844CAF80000ED1B002D7FF44AAF00207E
:1033500031E72DE9FF4F83B0044615469B4604989C
:1033600001900020CBF800002046FFF71CFE0290E1
:10337000029818B1029807B0BDE8F08FE07908B163
:10338000E079F8E7A07910F0020F01D10720F2E709
:10339000A0682844A168884200D20025BDE02089A9
:1033A000C005C00D7DD120688078401EA16800EA6C
:1033B000512000F0FF0ABAF1000F26D1A06838B9F9
:1033C000276997B900212068FFF75AF807460CE0F3
:1033D000606A28B12046A168FFF7BDF8074604E0FF
:1033E00061692068FFF74CF8074607B998E0012F9C
:1033F00002D10220E071BEE7781C02D10120E07109
:10340000B9E76761206900B92761A07910F0400F22
:103410000FD021684878012304F12801A269FEF742
:10342000A8FD10B10120E071A5E7A07920F04000CF
:10343000A07161692068FEF7CEFE064616B902202B
:10344000E07198E756444FEA5529B9F1000F2CD0A6
:103450000AEB090021688978884203D920688078BE
:10346000A0EB0A09216848784B4632460199FEF7DD
:1034700080FD10B10120E0717DE7A069801B484507
:103480000ED2A069801B019A02EB40214FF400721A
:1034900004F12800FEF7C8FDA07920F04000A071DB
:1034A00000E016E04FEA49282AE0A069B0420FD0B8
:1034B000D4E9020188420BD22168487801233246C0
:1034C00004F12801FEF732FD10B10120E07152E74E
:1034D000A6612089C0F30800C0F50078A84500D98E
:1034E000A8462189C1F3080204F128015018424678
:1034F0000199FEF799FDA07940F04000A07100BF4E
:10350000019840440190A0684044A060DBF80000AE
:103510004044CBF80000A5EB0805002D7FF43FAF39
:1035200000BFD4E90201884201D9A068E060A07917
:1035300040F02000A07100201DE72DE9F041044675
:103540002046FFF730FD0746002F4BD1A07910F041
:10355000200F47D0A07910F0400F0FD02168487895
:10356000012304F12801A269FEF703FD10B1012037
:10357000BDE8F081A07920F04000A071E1692068E9
:10358000FEF7ACFD0746002F2CD1256AE87A40F003
:103590002000E872207B2877A089010A6977E0681B
:1035A000010CA977E068010EE97728462169FFF749
:1035B000FFF8FEF736FD0646AE75310AE975310CA7
:1035C0002976310E69760020A8740021E974A0796B
:1035D00020F02000A0710120216808712068FEF70A
:1035E00096FD07463846C3E770B505462846FFF7FF
:1035F000A4FF044634B92846FFF7D5FC04460CB9AD
:1036000000202860204670BD2DE9FE4F04460D467F
:103610002046FFF7C8FC0290029810B10298BDE85E
:10362000FE8FE07908B1E079F9E7606A002870D090
:10363000681C3BD1D4F8248058F804AB4FF0020941
:1036400026693EB300BF00964FF0000B09F1020956
:1036500000BF01960BF1010B31462068FEF7C8FD53
:103660000646012E02D80220E071D8E7701C02D174
:103670000120E071D3E70198401C8642E9D0D14592
:1036800004D848F804BB009848F8040B2068406947
:10369000B042D8D8606AC0F80090D14503D8002065
:1036A000C8F8000047E01120029044E0E068A8421A
:1036B00000D2E568A560002D3DD0691E2046FEF7CA
:1036C0004AFF606161692068FEF785FD074617B90A
:1036D0000220E071A3E720688078401E691E00EA9E
:1036E000512007442089C005C00D24D0A069B842EC
:1036F00021D0A07910F0400F10D021684878012324
:1037000004F12801A269FEF734FC18B10120E07130
:1037100085E711E0A07920F04000A0712168487889
:1037200001233A4604F12801FEF700FC10B1012004
:10373000E07174E7A761ABE0E068A84204D2A07929
:1037400010F0020F00D1E568D4F808904FF000089F
:10375000C4F80880002D67D0206880784702B9F14E
:10376000000F11D0681EB0FBF7F1A9F10100B0FB0A
:10377000F7F0814208D3A9F10100791E8843A060C7
:10378000A0682D1A666912E026697EB900212068BA
:10379000FEF776FE0646012E02D10220E0713EE7DA
:1037A000701C02D10120E07139E726616661C6B361
:1037B00023E0A07910F0020F07D031462068FEF711
:1037C0005FFE064636B93D4619E031462068FEF7F1
:1037D0000FFD0646701C02D10120E0711FE7012E8B
:1037E00003D920684069B04202D80220E07116E790
:1037F0006661A0683844A060ED1BBD42D9D800BF07
:10380000A0682844A060E805C00D0DD031462068AE
:10381000FEF7E1FC8046B8F1000F03D10220E07111
:10382000FDE601E008EB55282089C005C00D24D035
:10383000A069404521D0A07910F0400F0FD0216839
:103840004878012304F12801A269FEF792FB10B128
:103850000120E071E3E6A07920F04000A07121682A
:1038600048780123424604F12801FEF75FFB10B1BE
:103870000120E071D3E6C4F81880D4E9020188423F
:1038800005D9A068E060A07940F02000A07100BFD9
:103890000298C4E633B585B0044614B9092007B0D0
:1038A00030BD002206A904A8FFF7B6F905461DBBE6
:1038B0000498206001A8A06120460699FFF7F9F856
:1038C0000546B5B9606958B16069C07A10F0100F4B
:1038D00005D061690498FEF75BFFA06000E0052554
:1038E0003DB90498C088A08000212046FEF74CFE18
:1038F0000546042D00D105250DB100202060284685
:10390000CDE770B504462046FFF74DFB05460DB9DF
:1039100000202060284670BDFEB505460E462846AC
:10392000FFF741FB04460CBB2EB900212846FEF7E9
:103930002BFE04461AE0C5F818D000212846FEF7F1
:103940006DFF0446042C02D10020286100246CB9CC
:1039500031462846FEF7D1FF00212846FEF763FED8
:103960000446042C02D10020286100242046FEBD1C
:1039700033B58BB00D4600220BA904A8FFF74CF914
:10398000044684B901A80A9004A80B99FFF791F89E
:10399000044644B9099828B12DB1294604A8FEF778
:1039A000ACFF00E0062420460DB030BD2DE9F74FF6
:1039B00082B08A46002202A90498FFF72DF90190EF
:1039C00004980468019800286DD1D4E90410801E81
:1039D000814203D82069CAF8000064E094F800B07E
:1039E0000026BBF1010F1CD1022700BF394620463B
:1039F000FEF7FEFB804618F1010002D10120019084
:103A00000EE0B8F1010F02D10220019008E0B8F1F8
:103A1000000F00D1761C781C074661698842E5D307
:103A20003AE06769206A00904FF00009002500BF66
:103A3000B9F1000F0ED10098421C014620460092B9
:103A4000FEF74CFB0190019800B124E004F1300531
:103A50004FF40079BBF1020F09D12878697850EA58
:103A6000012000D1761CAD1CA9F1020910E0E87814
:103A70000006A97840EA0140697840EA01202978E7
:103A8000084330F0704000D1761C2D1DA9F10409C7
:103A9000781E0700CCD100BF2661607940F001009C
:103AA0006071CAF80060019805B0BDE8F08F70B58C
:103AB00004462046FFF777FA054645B9E07908B194
:103AC000E57904E0A07910F0020F00D10725002D60
:103AD00047D1D4E90210884241D9A068E060A079BA
:103AE00040F02000A071A06838B921692068FEF775
:103AF00091FC0546002020611DE061692068FEF709
:103B000077FB06460025701C00D10125012E00D14F
:103B1000022585B920684069B0420CD96FF0704227
:103B200061692068FEF7D8FB054625B93146206853
:103B3000FEF770FC054695B9A07910F0400F0ED045
:103B400021684878012304F12801A269FEF711FADF
:103B500008B1012503E0A07920F04000A07105B173
:103B6000E571284670BD71B591B0012211A90AA86E
:103B7000FFF752F80446002C47D1CDF840D00AA8F0
:103B80001199FEF796FF044600BF002C3DD10F9E11
:103B90000EB9062404E0F07A10F0010F00D00724DB
:103BA00031460A98FEF7F4FD0546ECB9F07A10F0BC
:103BB000100F19D0022D01D2022415E01C220AA9EF
:103BC00003A8FEF731FA0595022103A8FEF7DCFCF5
:103BD00004464CB9002103A8FEF720FE044604B9B0
:103BE0000724042C00D100247CB90AA8FEF76AFE41
:103BF000044654B925B129460A98FEF70BFC044641
:103C00001CB90A98FEF783FA0446204612B070BD2C
:103C10002DE9F1478BB0FEF704FA064601220BA905
:103C200004A8FEF7F9FF0546002D7DD101A80A90F2
:103C300004A80B99FEF73DFF054605B9082500BF0E
:103C4000042DF2D100210498FEF71AFC0746002546
:103C500007B90725012F00D10225781C00D10125C5
:103C60001DB90498FEF714FA0546002D5AD13946BD
:103C70000498FEF7B0FA8146049800F130044FF43E
:103C8000007200212046FEF7DCF90B22202120469D
:103C9000FEF7D7F92E2020701020E072A675310AA9
:103CA000E175310C2176310E617639462046FEF7FA
:103CB0007FFD2022214604F12000FEF7B5F92E20D9
:103CC00084F82100DDF818A004980078032804D1B6
:103CD0000498406A504500D1AA46514604F120009C
:103CE000FEF766FD049890F8028017E00498C0F88B
:103CF0002C9009F101090120049908710498FEF73C
:103D0000C7F9054605B10CE04FF4007200212046CA
:103D1000FEF797F9A8F1010000F0FF08B8F1000FD5
:103D2000E4D100BF2DB900E01EE004A8FEF7ADFD10
:103D3000054625B139460498FEF76CFB14E0099C52
:103D40001020E072A675310AE175310C2176310E32
:103D5000617639462046FEF72BFD01200499087153
:103D60000498FEF7D4F9054628460CB0BDE8F08764
:103D7000F7B58AB00F46144601220AA903A8FEF738
:103D80004BFF0646DEB9CDF824D003A80A99FEF70A
:103D900090FE064600BF96B9089D0DB906260EE0B6
:103DA00004F0270407EA0400E97AA1430843E87213
:103DB0000120039908710398FEF7A9F906463046D9
:103DC0000DB0F0BD73B58AB00D4601220AA903A853
:103DD000FEF722FF0646EEB9CDF824D003A80A99D3
:103DE000FEF767FE064600BFA6B9089C0CB906267A
:103DF00010E0A879A075E8880112E175287920768D
:103E0000A888011261760120039908710398FEF7D2
:103E10007EF9064630460CB070BDF3B597B001226E
:103E200017A910A8FEF7F8FE0446002C0ED1109832
:103E30000990CDF858D010A81799FEF73AFE04461D
:103E400000BF002C74D1159808B9042470E01598AF
:103E500000F10B01152203A8FEF7E6F81C2210A9B9
:103E600009A8FEF7E1F818A8FEF76BFE002805DBAD
:103E700009A81899FEF71DFE044600E00B2404B9BA
:103E80000824042C54D109A8FEF7FFFC0446002C9A
:103E90004ED10E9D13220DF10E0105F10D00FEF71E
:103EA000C3F89DF80C0040F02000E8720120109942
:103EB00008710B991298884230D0E87A10F0100FF0
:103EC0002CD029461098FEF763FC07463946109817
:103ED000FEF781F906460EB902241FE0314610981C
:103EE000FEF7FCF80446109800F15005B4B9687864
:103EF0002E2813D110980078032806D110990B981A
:103F0000496A884201D1002000E00B9806463146FC
:103F10002846FEF74DFC01201099087144B910A8FD
:103F2000FEF7D0FC04461CB91098FEF7F0F80446E2
:103F3000204619B0F0BD2DE9F74187B00D469046F7
:103F4000002207A96846FEF767FE044624BB1DB39E
:103F50000020029000216846FEF716FB0446DCB9FB
:103F600001216846FEF75AFC044684B90B22284614
:103F70000599FEF759F80B2700BF0020E85507B94F
:103F800004E0781E0746285C2028F6D000BF042CE9
:103F900002D100202870002444BBB8F1000F25D0C6
:103FA000009A1046D169FEF799F80446F4B90098D2
:103FB0000078032801D1432000E02720064600981E
:103FC00030303044C078010600983030304480787A
:103FD00041EA0041009830303044407841EA002006
:103FE00000993031895D0843C8F8000020460AB0C6
:103FF000BDE8F0812DE9F1438AB001220AA903A8A6
:10400000FEF70AFE8146B9F1000F03D048460BB017
:10401000BDE8F08300208DF80000002700E07F1C41
:104020000A98C05D0028FAD100E07F1E27B1781EF3
:104030000A99085C2028F8D0002F5AD00026B046F4
:1040400000BF3046761C0A990C5C812C20DBE0B264
:10405000FE281DDCB8F10A0F18D2BE4216D20A980B
:10406000805D402803DB0A98805D7E2807DD0A9882
:10407000805D80280ADB0A98805DFE2806DC3046D9
:10408000761C0A99085C40EA042000E0002084B213
:10409000612C04DB7A2C02DCA4F1200084B200BF86
:1040A0005CB12146FEA0FDF7E9FF30B9FF2C01DD30
:1040B0000A2000E00B20404501D80620A7E7FF2C8E
:1040C00005DD2212404608F101080DF80020E2B299
:1040D000404608F101080DF80020BE42B1D305E0CA
:1040E0002022404608F101080DF80020B8F10B0F1E
:1040F000F6D300200590002103A8FEF745FA81467B
:10410000B9F1000F5BD1012103A8FEF787FB8146BF
:10411000B9F1000F21D19DF8000098B10B2269463A
:104120000898FDF781FFFDF77CFF054608998D751E
:10413000290A0898C175290C08980176290E089853
:10414000417602E0E5200899087001200399087182
:104150000398FDF7DCFF814631E0B9F1040F2ED161
:104160004FF000099DF8000048B3012103A8FEF7B5
:10417000E1FA8146B9F1000F21D1202200210898EF
:10418000FDF75FFF0B2269460898FDF74DFF0820F9
:104190000899C872FDF745FF054608998D75290AEB
:1041A0000898C175290C08980176290E089841765F
:1041B0000120039908710398FDF7A9FF814648463D
:1041C00025E72DE9F74F90B0914610A8FEF7B9FC0E
:1041D0000F900F98002803DA0B2013B0BDE8F08F82
:1041E0001198012801DD1320F7E7A9F1010010EA79
:1041F000090F01D01320F0E7AD490F9851F820B016
:10420000BBF1000F01D10C20E7E700208BF8000084
:104210000F98C0B20C9000200B900C98FDF771FE27
:104220000190019810F0010F01D00320D5E701980B
:1042300010F0040F01D00A20CFE700BF04AA01212B
:104240000C98FDF7C8FE10B90498802801D201200F
:10425000C3E7119808B1002000E03F208046049891
:10426000A0EB08000490B9F1000F13D14FF4FA61EC
:104270000498B0FBF1F00A904FF0000A01E00AF157
:10428000010A8C4830F81A100A988142F7D88A48F7
:1042900030F81A904FEA5929B9F1000F01D14FF0C7
:1042A0000109B9F1800F01D94FF080090498B0FBE2
:1042B000F9F7012540F6F670874200D302254FF644
:1042C000F670874200D30325032D0AD1082000EBA6
:1042D000870000F2FF10460A202003900020029081
:1042E00011E0012D05D107EB4700401C4008C01C20
:1042F00001E07800001D064606F2FF10460A012084
:10430000039020200290039840440790079830447F
:104310000690029906980844059005984844A0EB39
:1043200008000499884201D90E2056E709AA032102
:104330000C98FDF750FE28B9099818B10998B0F506
:10434000004F01D901200990099905980844401EA1
:10435000491E8843099009990598081A0990032D68
:1043600008D10999039808440390099907980844CB
:10437000079001E009980644DDE90301081A811B52
:104380000298081AB0FBF9F7022D03D140F6F67037
:10439000874205D3032D05D14FF6F670874201D22F
:1043A0000E201AE7032D02D10C200D9010E0012DF4
:1043B00006D10498B0F5803F02D201200D9007E0AD
:1043C0000498B0F5803F01D2042000E006200D9053
:1043D00000BF119810B1F0200E9044E04FF400722D
:1043E00000210BF13000FDF72CFE0BF5F7740120D6
:1043F0006070A0700020E0700D982071FE20607148
:10440000049840443F21B0FBF1F0FF21B0FBF1F0F4
:1044100009903F21099841EA9000A0710998E07144
:104420003F20207200216172A172E1720498207312
:104430000498010A61730498010CA1730498010E99
:10444000E17355218BF82E12AA218BF82F1201232C
:1044500000220BF130010C98FDF78BFD08B1012013
:10446000BBE6F8200E900BF130044FF400720021EF
:104470002046FDF7E6FD0B2210A12046FDF7D4FDF6
:104480004FF4007A84F80BA04FEA1A21217384F8C4
:104490000D900398A0730398010AE173012013E0C3
:1044A000222A2B2C2E3A3B3C3D3E3F5B5D7C7F001D
:1044B00054000020064D00081C4D0008EBFE904DF6
:1044C00053444F53352E30002074032D01D100206A
:1044D00001E04FF40070824684F811A04FEA1A21DF
:1044E000A1740498B0F5803F05D20498E074049854
:1044F000010A217510E0049884F820000498C0F3A4
:104500000721212001550498C0F3074122200155BD
:104510000498010E232001550E9860753F202076E7
:1045200000216176FF20A076E17684F81C804FEAB6
:10453000182161774FEA1841A1774FEA1861E177B6
:10454000FDF76FFD0990032D3ED1099884F84300D3
:104550000998C0F30721442001550998C0F3074189
:10456000452001550998010E4620015584F8246024
:10457000C6F3072125200155C6F307412620015522
:10458000310E27200155022084F82C0000212D2017
:1045900001552E2001552F200155012084F83000AF
:1045A00031200155062084F8320033200155802047
:1045B00084F84000292084F842001322FEA104F16F
:1045C0004700FDF731FD1FE0099884F8270009989E
:1045D000C0F30721282001550998C0F3074129207D
:1045E00001550998010E2A200155A675310AE17579
:1045F000802084F82400292084F826001322F3A1C7
:1046000004F12B00FDF710FD552084F8FE01AA21CE
:1046100040F2FF1001550123424621460C98FDF758
:10462000A8FC08B10120D8E5032D06D1012308F12B
:10463000060221460C98FDF79CFC079808904FF065
:10464000000A61E04FF4007200212046FDF7F9FCFA
:104650000E980990032D14D0012D01D1E04801E0FE
:104660006FF0FF0009990843099009982070099894
:10467000000A60700998000CA0700998000EE070A4
:1046800019E0099860F0FF000990099820700998D6
:10469000000A60700998000CA0700998000EE07084
:1046A000FF202071FF216171A171E171207261729F
:1046B000A1720F21E1720898411C02460123089162
:1046C00021460C98FDF755FC08B1012085E54FF413
:1046D000007200212046FDF7B4FC012009900EE095
:1046E0000898411C02460123089121460C98FDF7C9
:1046F00040FC08B1012070E50998401C0990099818
:10470000B042EDD30AF1010ABAF1000F9AD0032D9D
:1047100001D1484600E00298824600BF0898411C3B
:1047200002460123089121460C98FDF722FC08B1AE
:10473000012052E5AAF101005FEA000AEED1032D43
:1047400046D15220207060706120A0704120E0703E
:10475000722084F8E401722140F2E51001554121F4
:10476000401C01556121401C0155781E84F8E80168
:10477000C0F3072140F2E9100155781EC0F307414C
:104780004FF4F5700155781E010E40F2EB10015503
:10479000022084F8EC01002140F2ED100155401C8C
:1047A0000155401C0155552084F8FE01AA2140F214
:1047B000FF100155012308F1010221460C98FDF775
:1047C000D8FB012308F1070221460C98FDF7D1FB25
:1047D000002211460C98FDF7FEFB08B10120FCE415
:1047E0000020FAE42DE9FC4707468846914600245C
:1047F0003E4613E06B46012201A94846FEF7C9FC7C
:104800000098012800D00DE09DF8045000BF06F884
:10481000015B641C0A2D00D104E000BFA8F1010077
:10482000A042E7DC00BF0020307014B13846BDE87C
:10483000FC870020FBE7F8B504460E4600BF65681C
:10484000002D00DAF8BD28466D1C04F10C010E5451
:104850003D2D0CDB6B462A462068FEF77AFD00985A
:10486000A84201D1002001E04FF0FF30054665600D
:10487000A068401CA06000BFE4E730B595B00446D6
:104880000D460295002003900490214602A8FFF7F0
:10489000D2FF039800280DDB01AB05A9DDE9020278
:1048A000FEF757FD30B901990398884202D1049868
:1048B00015B030BD4FF0FF30FAE730B595B0044683
:1048C0000D46029500200390049004E014F8011BAB
:1048D00002A8FFF7B0FF20780028F7D1039800283E
:1048E0000DDB01AB05A9DDE90202FEF732FD30B9AF
:1048F00001990398884202D1049815B030BD4FF059
:10490000FF30FAE70FB42DE9F04F9BB024980190E7
:1049100000200290039026A81A9000BF259810F856
:10492000014B259004B924E1252C04D0214601A88F
:10493000FFF781FFF2E7002006468146259810F830
:10494000014B2590302C05D10126259810F8014BFC
:10495000259006E02D2C04D10226259810F8014B55
:10496000259009E009EB890004EB4000A0F1300933
:10497000259810F8014B2590302C01DB392CF1DD06
:104980006C2C01D04C2C05D146F00406259810F86B
:10499000014B259004B9ECE02546612D04DB7A2D0E
:1049A00002DCA5F12000C5B24F2D60D01DDC422DE8
:1049B0005AD0432D4FD015E04E4F204E414D45204B
:1049C0002020204641543332202020004E4F204EDC
:1049D000414D452020202046415420202020200009
:1049E00000FFFF00442D4CD144E0532D04D0552D41
:1049F00041D0582D45D141E01A9850F804BB1A9087
:104A00004FF0000801E008F101081BF80800002839
:104A1000F9D116F0020F09D103E0202101A8FFF718
:104A20000AFF404608F101084845F6D304E01BF8A8
:104A3000011B01A8FFF7FFFE9BF800000028F6D13C
:104A400003E0202101A8FFF7F6FE404608F1010827
:104A50004845F6D362E71A9810F8042BD1B21A90A1
:104A600001A8FFF7E8FE59E7022019900EE00820A0
:104A700019900BE000BF0A20199007E01020199050
:104A800004E0214601A8FFF7D6FE47E700BF16F075
:104A9000040F05D01A9800681A99091D1A910CE0A4
:104AA000442D05D11A9800681A99091D1A9104E03D
:104AB0001A9800681A99091D1A918246442D06D148
:104AC0001AF0004F03D0CAF1000A46F0080600278A
:104AD00000BF1998BAFBF0F100FB11A0C5B21998FC
:104AE000BAFBF0FA092D06DD782C01D1272000E071
:104AF00007202844C5B205F13000C2B238467F1CF9
:104B000014A90A54BAF1000F01D0102FE1D316F006
:104B1000080F04D02D2238467F1C14A90A54B84629
:104B200016F0010F01D0302000E02020054603E000
:104B3000294601A8FFF77FFE16F0020F04D1404678
:104B400008F101084845F3D300BF781E074614AAB0
:104B5000115C01A8FFF76FFE002FF6D103E0294694
:104B600001A8FFF768FE404608F101084845F6D362
:104B7000D4E600BF00201A900298002810DB18AB82
:104B800004A9DDE90102FEF7E4FB48B9189902988F
:104B9000884205D103981BB0BDE8F00F5DF814FB07
:104BA0004FF0FF30F7E7032A40F2308010F0030C9B
:104BB00000F0158011F8013BBCF1020F624498BF70
:104BC00011F801CB00F8013B38BF11F8013BA2F10D
:104BD000040298BF00F801CB38BF00F8013B11F088
:104BE000030300F02880083AC0F0088051F8043B25
:104BF000083A51F804CBA0E80810F5E7121D5CBF95
:104C000051F8043B40F8043BAFF30080D20724BFC7
:104C100011F8013B11F801CB48BF11F8012B24BF5B
:104C200000F8013B00F801CB48BF00F8012B7047AA
:104C300070477047704710B5203AC0F00B80B1E85C
:104C40001850203AA0E81850B1E81850A0E81850C1
:104C5000BFF4F5AF5FEA027C24BFB1E81850A0E8CA
:104C6000185044BF18C918C0BDE810405FEA827CE4
:104C700024BF51F8043B40F8043B08BF7047D207FB
:104C800028BF31F8023B48BF11F8012B28BF20F89C
:104C9000023B48BF00F8012B7047754600F028F82A
:104CA000AE4605006946534620F00700854618B019
:104CB00020B5FBF777FABDE820404FF000064FF033
:104CC00000074FF000084FF0000B21F00701AC4641
:104CD000ACE8C009ACE8C009ACE8C009ACE8C00960
:104CE0008D4670470446AFF300802046FBF745FA37
:104CF000004870472405002001491820ABBEFEE79C
:104D000026000200704700040002000180004000FD
:104D10002000100008000400020000000080004095
:104D200000200010000800400020001000080004CF
:104D300000020000544D0008000000206000000048
:104D400028010008B44D000860000020280B000076
:104D50004401000800A24A04000000000000000016
:104D6000010203040607080900000000000000001B
:104D70000102030405060708090A0B0C0D0E0F10AB
:104D800011121314000000000000000000000000D9
:104D900000000000000000000102030401020304FF
:104DA00006070809020406080000000000000000D1
:044DB00000000000FF
:04000005080000ED02
:00000001FF
