:020000040800F2
:10000000300D0020D1010008D12F0008D32F0008A7
:10001000D72F0008DB2F0008DF2F000800000000AA
:10002000000000000000000000000000E32F0008B6
:10003000E52F000800000000E72F0008F903000882
:10004000EB010008EB010008EB010008EB010008E0
:10005000EB010008EB010008EB010008EB010008D0
:10006000EB010008EB010008EB010008EB010008C0
:10007000EB010008EB010008EB010008EB010008B0
:10008000EB010008EB010008EB010008E92F000874
:10009000F12F0008EB010008EB010008EB0100085C
:1000A000EB010008EB010008EB010008EB01000880
:1000B000EB010008EB010008EB010008EB01000870
:1000C000EB010008EB010008EB010008EB01000860
:1000D000EB010008EB010008EB010008EB01000850
:1000E000EB010008EB010008F92F000800F002F80E
:1000F00000F05AF80AA090E8000C82448344AAF168
:100100000107DA4501D100F04FF8AFF2090EBAE865
:100110000F0013F0010F18BFFB1A43F0010318473B
:10012000143E0000343E00000A444FF0000C10F86A
:10013000013B13F0070408BF10F8014B1D1108BF65
:1001400010F8015B641E05D010F8016B641E01F805
:10015000016BF9D113F0080F1EBF10F8014BAD1C55
:100160000C1B09D16D1E58BF01F801CBFAD505E073
:1001700014F8016B01F8016B6D1EF9D59142D6D3CD
:10018000704700000023002400250026103A28BFF5
:1001900078C1FBD8520728BF30C148BF0B607047F9
:1001A0001FB51FBD10B510BD03F045FE1146FFF78A
:1001B000F7FF00F00DFA03F063FE03B4FFF7F2FF60
:1001C00003BC03F067FE000080F30888704700005E
:1001D0000948804709480047FEE7FEE7FEE7FEE7DB
:1001E000FEE7FEE7FEE7FEE7FEE7FEE70448054917
:1001F000054A064B70470000ED020008ED000008BC
:1002000030070020300D0020300900203009002088
:100210000CB50020019000906B48006840F48030DD
:100220006949086000BF6848006800F40030009029
:100230000198401C0190009818B90198B0F5A06F82
:10024000F1D16148006810F4003F02D00120009015
:1002500001E0002000900098012842D15B4800682E
:1002600040F01000594908600846006820F003007B
:1002700008600846006840F0020008605248406884
:10028000514948600846406848600846406840F464
:10029000806048600846406820F47C10486008464A
:1002A000406840F4E81048600846006840F08070FC
:1002B000086000BF4448006810F0007FFAD0424850
:1002C000406820F00300404948600846406840F01C
:1002D0000200486000BF3C48406800F00C0008285D
:1002E000F9D10CBD10B5FFF793FF10BD10B536481E
:1002F000006840F00100344908600846406834490D
:1003000008403149486008460068324908402E4993
:1003100008600846006820F48020086008464068AD
:1003200020F4FE0048604FF41F008860FFF7DAFFFA
:100330004FF000602849086010BD10B50021002072
:100340000022214B5B6803F00C0121B1042906D087
:10035000082928D107E0214B214C236027E01F4BBF
:100360001F4C236023E0184B5B6803F47010164B9E
:100370005B6803F48032022303EB904022B9194BEF
:100380004343174C23600DE00F4B5B6813F4003FB1
:1003900004D0144B4343124C236003E00F4B434300
:1003A0000F4C236003E00D4B0D4C236000BF00BFDA
:1003B000054B5B68C3F303130B4CE15C084B1B68F4
:1003C000CB40074C236010BD0010024000200240CB
:1003D0000000FFF8FFFFF6FE08ED00E000127A00D3
:1003E0000000002000093D000400002010B54FF47B
:1003F000A06000F023F910BD2848006800F180706B
:1004000026490860084600680860704710B5044631
:100410006FF0040000F062F96FF07F404FF0E021D0
:100420004861002088610846006940F003000861C7
:1004300010BD1A4801684FF0E0208269C2F1807057
:1004400008440923B0FBF3F0704710B5FFF7F1FF44
:1004500004464FF47A70B4FBF0F010BD70B5054659
:10046000FFF7F3FF0446264602E0FFF7EEFF0646DD
:10047000301BA842F9D3A642F7D370BD70B505462C
:10048000FFF7D7FF0446264602E0FFF7D2FF0646F5
:10049000301BA842F9D3A642F7D370BD1400002048
:1004A00010B504460121204600F0B8FF10BDF8B594
:1004B00007460C4615461E46ADF800408DF8025022
:1004C0008DF803606946384600F0F2FCF8BDF8B5D7
:1004D00006460C461546ADF800408DF803506946B7
:1004E000304600F0E5FCF8BD70B5044600F0C1F9F7
:1004F000342000F059FC204600F000FA054600F0D8
:10050000C4F9284670BD2DE9F84F06460F4614463B
:100510004FF00008009614F0010F02D00120BDE852
:10052000F88FC4F38F2B00250BE0342000F03CFC47
:100530004FF4806101FB056000F0E0F98146681C22
:1005400085B25D45F1DB1BE008F1010017F800A062
:1005500017F8080000EB0A201FFA80FA51460098AD
:1005600000F0CFFA8146B9F1040F01D00120D6E79F
:100570000098801C009008F102001FFA80F8A41E69
:10058000002CE1D10020CAE730B503460C461D46D9
:10059000002102E0685C6054491C9142FAD30020BB
:1005A00030BD000010B50446074920680840B0F18E
:1005B000005F08D10549606808602068FFF704FE05
:1005C00002480068804710BD0000FE2F1800002080
:1005D0001020FFF765FF482280211448FFF777FFBE
:1005E0001023032259011148FFF761FF0020104931
:1005F00008601048D0F81C0101280AD108600E4894
:10060000406800F07F40B0F1006F02D10A48FFF768
:10061000C9FFFFF7EBFE02F0DAFA02F0EDFA02F0A2
:1006200006FB01F0DFFC00BFFEE700000010014008
:10063000A40122420000224200D0000831490143B7
:10064000314A1160704770B5002100230F22C47831
:100650000CB32D4C246804F4E064C4F5E064210A72
:10066000C1F10403CA40447804FA03F184781440C9
:1006700021430901254C0678A155047804F01F0593
:100680000124AC4005786D114FF0E02606EB85059E
:10069000C5F8004109E0047804F01F050124AC40CE
:1006A0001B4D0678761145F8264070BD194A0A4060
:1006B0000243154B1B1F1A60704739B1124A121DB5
:1006C00012680243104B1B1D1A6006E00E4A121DF1
:1006D000126882430C4B1B1D1A607047042808D116
:1006E0004FF0E021096941F004014FF0E02211616F
:1006F00007E04FF0E021096921F004014FF0E0220A
:10070000116170470000FA050CED00E000E400E024
:1007100080E100E080FFFF1F002044490860091DC0
:100720000860091D0860091D086041483F491431EF
:100730000860704700213D498279002A3AD00A4674
:10074000126803689A430B461A600A1D1268036810
:100750009A430B1D1A60027911440A6803681A4310
:100760000A60324A0832126803689A432F4B0833F2
:100770001A601A1D126803689A432C4B0C331A60D6
:100780004279102A0ED11A1F126803681A43274BA8
:1007900008331A601A1D126803681A43234B0C337E
:1007A0001A600DE02149427911440A6803681A432E
:1007B0000A6005E0027911440A6803689A430A60F6
:1007C00070470021016001710C214171002181718C
:1007D00070471649103109680143144A10321160FC
:1007E000704701460020114A143212680A4201D0B3
:1007F000012000E0002070470C4914310860704768
:10080000014600200022094B1B6803EA0102074B46
:1008100014331B680B4202D00AB1012000E0002013
:10082000704702491431086070470000000401401D
:10083000FFFF0F0001460020FE4A106800F038005C
:10084000084310607047FB49096821F00801F94A24
:10085000116011460968014311607047F549096844
:1008600021F01001F34A116011460968014311603B
:100870007047F148EF494860F04848607047EE48DB
:10088000EC494860ED4848607047EA48006940F02C
:100890008000E84908617047E648006940F0800040
:1008A000E449086170470420E249C96811F0010F6A
:1008B00001D001200EE0DF49C96811F0040F01D01A
:1008C000022007E0DB49C96811F0100F01D00320B6
:1008D00000E00420704700B502460423FFF7E3FF61
:1008E000034603E0FFF7DFFF0346521E012B01D151
:1008F000002AF7D102B90523184600BD30B50446D9
:1009000004254FF43020FFF7E6FF0546042D17D1EC
:10091000C848006940F00200C649086108464461C1
:10092000006940F0400008614FF43020FFF7D3FF2A
:100930000546C048006941F6FD710840BD4908619F
:10094000284630BD10B504244FF43020FFF7C3FF14
:100950000446042C16D1B748006940F00400B5499C
:1009600008610846006940F0400008614FF43020FB
:10097000FFF7B1FF0446AF48006941F6FB7108403C
:10098000AC490861204610BD00B502460423FFF7BC
:100990008AFF034603E0FFF786FF0346521E012B42
:1009A00001D1002AF7D102B90523184600BD10B5C0
:1009B00004244FF43020FFF7E7FF0446042C16D13F
:1009C0009C48006940F004009A49086108460069A3
:1009D00040F0400008614FF43020FFF7D5FF044697
:1009E0009448006941F6FB7108409249086120462D
:1009F00010BD00208F49C96911F0020F01D00120FC
:100A000000E00020704730B5A5250424FFF7F1FF72
:100A100000B100254FF43020FFF75DFF0446042CA1
:100A20003AD18548834988608448886008460069CF
:100A300040F0200008610846006940F0400008616D
:100A40004FF43020FFF747FF0446042C1BD17948B0
:100A5000006941F6DF71084076490861084600697F
:100A600040F01000086176480580E002FFF733FF90
:100A70000446052C10D06F48006941F6EF7108401C
:100A80006C49086108E0052C06D06A48006941F607
:100A9000EF71084067490861204630BD78B50646C9
:100AA0000C46042500200090E802FFF714FF0546DD
:100AB000042D24D15F48006940F001005D490861C0
:100AC0003480E802FFF707FF0546042D10D1B01C63
:100AD0000090200C00990880E802FFF7FCFE054614
:100AE0005448006941F6FE7108405249086106E029
:100AF0005048006941F6FE7108404E490861284699
:100B000078BD70B504460D460426F002FFF7E3FEFB
:100B10000646042E11D14748006940F001004549BE
:100B200008612580F002FFF7D6FE064641480069BD
:100B300041F6FE7108403F490861304670BD70B50E
:100B400005460E460424E002FFF7C5FE0446042CC9
:100B500017D13948374988603848886008460069A5
:100B600040F0100008612E80E002FFF7B4FE04465A
:100B7000052C06D02F48006941F6EF7108402D4939
:100B80000861204670BD2DE9F04304464FF6FF761C
:100B90003746B046B1460425E443E6B2C4F307271E
:100BA000C4F307484FEA1469E802FFF794FE0546CC
:100BB000042D49D120481F49886020488860084694
:100BC000006940F010000861FF2E06D01C48083074
:100BD0000680E802FFF77FFE0546042D08D1FF2FAF
:100BE00006D017480A300780E802FFF774FE054672
:100BF000042D0AD1B8F1FF0F07D011480C30A0F82E
:100C00000080E802FFF767FE0546042D0AD1B9F11E
:100C1000FF0F07D00A480E30A0F80090E802FFF757
:100C20005AFE0546052D0FD00248006941F6EF71C6
:100C3000084007E00020024023016745AB89EFCD63
:100C400000F8FF1F664908612846BDE8F08330B50B
:100C5000054604244FF43020FFF73DFE0446042CE3
:100C600041D160485E4988605F48886008460069F5
:100C700040F0200008610846006940F0400008612B
:100C80004FF43020FFF727FE0446042C22D15448AD
:100C9000006941F6DF710840514908610846006962
:100CA00040F0100008611DB100205049088002E0AA
:100CB000A5204E4908804FF43020FFF70CFE044673
:100CC000052C10D04648006941F6EF7108404449B0
:100CD000086108E0052C06D04148006941F6DF7143
:100CE00008403F490861204630BDF0B505460E4634
:100CF000174604243B483A4988603B488860E00234
:100D0000FFF7E9FD0446042C19D13548006940F08D
:100D100010003349086147F0F80030432843334955
:100D2000891C0880E002FFF7D6FD0446052C06D09A
:100D30002B48006941F6EF710840294908612046B7
:100D4000F0BD2748C069800870472548006A704791
:100D500000202349096811F0200F01D0012000E094
:100D60000020704729B11E4A126902431C4B1A61C8
:100D700004E01B4A12698243194B1A61704701460D
:100D80000020012908D1164AD26912F0010F01D0C2
:100D9000012008E0002006E0114AD2680A4201D092
:100DA000012000E0002070470D49C8607047042012
:100DB0000B49C96811F0010F01D001200EE008496C
:100DC000C96811F0040F01D0022007E00449C96886
:100DD00011F0100F01D0032000E004207047000044
:100DE0000020024023016745AB89EFCD00F8FF1FCB
:100DF00010B50446CA48844208D10121042000F0FD
:100E000027FB0021042000F023FB46E0C548844274
:100E100008D10121082000F01BFB0021082000F070
:100E200017FB3AE0C048844208D10121102000F0AD
:100E30000FFB0021102000F00BFB2EE0BB4884428A
:100E400008D10121202000F003FB0021202000F028
:100E5000FFFA22E0B648844208D10121402000F088
:100E6000F7FA0021402000F0F3FA16E0B14884427E
:100E700008D10121802000F0EBFA0021802000F051
:100E8000E7FA0AE0AC48844207D10121801500F05E
:100E9000DFFA0021A01500F0DBFA10BD10B501212A
:100EA000084600F0D5FA0021012000F0D1FA10BD6B
:100EB0002DE9F041024600250026002000230024F1
:100EC000002791F803C00CF00F0591F803C01CF047
:100ED000100F03D091F802C04CEA050591F800C04C
:100EE000BCF1000F31D0146800202BE04FF0010C52
:100EF0000CFA00F3B1F800C00CEA03069E4220D1C0
:100F000083004FF00F0C0CFA03F7BC4305FA03FC07
:100F10004CEA040491F803C0BCF1280F06D14FF04D
:100F2000010C0CFA00FCC2F814C00AE091F803C0EE
:100F3000BCF1480F05D14FF0010C0CFA00FCC2F8CF
:100F400010C0401C0828D1D31460B1F800C0BCF117
:100F5000FF0F34DD546800202EE000F1080C4FF044
:100F6000010808FA0CF3B1F800C00CEA03069E422F
:100F700021D183004FF00F0C0CFA03F7BC4305FAA4
:100F800003FC4CEA040491F803C0BCF1280F05D11E
:100F900000F1080C08FA0CF8C2F8148091F803C0AC
:100FA000BCF1480F07D100F1080C4FF0010808FA16
:100FB0000CF8C2F81080401C0828CED35460BDE85D
:100FC000F0814FF6FF710180022181700421C17010
:100FD00070470246002093680B4201D0012000E0D8
:100FE000002070470146886880B2704702460020A2
:100FF000D3680B4201D0012000E000207047014679
:10100000C86880B2704701617047416170470AB19A
:10101000016100E041617047C16070474FF4803268
:101020000A438261816182618269826970470246F6
:101030000020424B18684FF68073184040EA0210B7
:1010400008433E4B186070473D49C8617047F0B592
:101050000A46002300240021002500F00046B6F1D6
:10106000004F02D1354EF16901E0344E7168C0F392
:10107000034583B200F44016B6F5401F08D121F0B5
:1010800070612E4E766826F070662C4F7E6012E0FE
:1010900000F48016B6F5801F06D1032606FA05F483
:1010A000A14341F0706106E0460D360103FA06F6F1
:1010B000B14341F0706122B1460D360103FA06F6E4
:1010C000314300F00046B6F1004F02D11B4EF161F2
:1010D00001E01A4E7160F0BD30B500228B071C0F85
:1010E0000F2303FA04F2154B08338C1053F8243005
:1010F0009343124C08348D1044F8253023468C104D
:1011000053F824308C07240F00FA04F423430B4CCB
:1011100008348D1044F8253030BD0A490860704706
:1011200000080140000C0140001001400014014083
:1011300000180140001C0140002001400000014057
:1011400000002042DC002042DD48006840F0010041
:10115000DB49086008464068DA490840D8494860D9
:1011600008460068D8490840D54908600846006824
:1011700020F4802008600846406820F4FE004860A3
:101180004FF41F0088607047CD49096821F4803111
:10119000CB4A11601146096821F480211160B0F535
:1011A000803F03D0B0F5802F0ED106E0C449096816
:1011B00041F48031C24A116007E0C149096841F435
:1011C000A021BF4A116000E000BF00BF704710B50A
:1011D00001460022002300204A11012A02D1B84C06
:1011E000236806E0022A02D1B54C236A01E0B44C20
:1011F000636A01F01F02012494401C4201D00120C7
:1012000000E0002010BD38B500200090002400252B
:1012100000BF3120FFF7DBFF05460098401C00901F
:101220000098B0F5A06F01D0002DF2D03120FFF76B
:10123000CEFF08B1012400E00024204638BD01465D
:1012400000209F4A106820F0F80040EAC1001060BA
:1012500070479E490860704702460020984B5868C6
:1012600020F47C1042EA01031843954B5860704704
:1012700096490866704701460020914A506820F060
:1012800003000843506070478D48406800F00C0030
:101290007047014600208A4A506820F0F000084359
:1012A0005060704701460020854A506820F4E06095
:1012B00008435060704701460020814A506820F47E
:1012C000605040EAC1005060704729B17C4A527AB0
:1012D00002437B4B5A7204E0794A527A8243784B3C
:1012E0005A7270477A490860704701460020744A74
:1012F000506820F440400843506070470021754A10
:1013000011706F4A82F82010012802D0042808D1F9
:1013100003E001216F4A117004E005216D4A11704C
:1013200000E000BF00BF70476B4908607047644928
:10133000096A0143624A116270476749443908608B
:10134000704730B500210022002400235C4D6D68F9
:1013500005F00C0121B1042905D0082923D105E0AD
:101360005E4D056022E05D4D05601FE0544D6D68E7
:1013700005F47012524D6D6805F48034022505EBBA
:1013800092421CB9564D554305600BE04C4D6D68BB
:1013900015F4003F03D0524D5543056002E04F4D18
:1013A0005543056002E04D4D056000BF00BF444D50
:1013B0006D6805F0F00109094A4D6B5C0568DD4078
:1013C00045603F4D6D6805F4E061090A454D6B5C71
:1013D0004568DD4085603A4D6D6805F46051C90A85
:1013E000404D6B5C4568DD40C560354D6D6805F46A
:1013F0004041890B3C4D6B5CC568B5FBF3F505615D
:1014000030BD29B12E4A526902432D4B5A6104E086
:101410002B4A526982432A4B5A61704729B1284AA4
:1014200092690243264B9A6104E0254A92698243FD
:10143000234B9A61704729B1214AD2690243204B5C
:10144000DA6104E01E4AD26982431D4BDA617047BB
:1014500029B11B4AD2680243194BDA6004E0184AEA
:10146000D2688243164BDA60704729B1144A126978
:101470000243134B1A6104E0114A12698243104B74
:101480001A61704714494039086070470F49C864B1
:1014900070470B49C87170470948406A40F0807036
:1014A00007494862704701460020054A92680A428F
:1014B00001D0012000E00020704701498872704788
:1014C000001002400000FFF8FFFFF6FE000042425D
:1014D000D8004242201002408004424200127A00AA
:1014E00000093D001C0000202C00002010B504461F
:1014F0002CB90120FE4909680882002010BDFD4971
:10150000096808688047FA4800680A30F6E710B5AD
:10151000F7480068C078F8494978884213DCF448F5
:101520000068807878B9F2480068808858B9F04837
:101530000068C078EE4909688872EE490968486811
:101540008047002010BD0220FCE710B504462CB9EE
:101550000120E74909680882002010BDE5490968B3
:1015600088688047E24800680C30F6E710B5E04B29
:101570001B68D978DE4B1B685879E04B1B689A6969
:1015800090470446DA480068807AE8B13CB9D84808
:101590000068007918B9D6480068807808B1022040
:1015A00010BD8CB9D3490968C8688047D048006825
:1015B0004079CF490968C872CD480068C078CC49E5
:1015C000096808730020EBE70220E9E710B504463C
:1015D0002CB90220C64909680882002010BD0020ED
:1015E000C7490880C2480068007810F07F0F23D1F7
:1015F000BF490968487A10F0200F06D0C049097821
:1016000041F00201BE4A117005E0BD49097801F0C0
:10161000FD01BB4A117010F0400F06D0B84909789F
:1016200041F00101B64A117005E0B549097801F0B1
:10163000FE01B34A117036E0AD480068007800F052
:101640007F00012801D1AE48C8E7A94800680078AA
:1016500000F07F00022824D1A54A1268517901F0D8
:101660000F0011F0800F0DD0A64A52F8202002F092
:101670003002102A14D1A24A127842F00102A04B83
:101680001A700DE09F4A52F8202002F44052B2F541
:10169000805F05D19A4A127842F00102984B1A7085
:1016A00001E000209AE79349096808698047944857
:1016B00094E72DE9F0478E480068007800F07F0835
:1016C000B8F1000F0AD18A480068407A00F0DF00C4
:1016D0008749096848720020BDE8F087B8F1020F19
:1016E0007ED183480068408818B981480068007935
:1016F00008B10220F0E7DFF800927D4800684779E2
:1017000027F080052C467A480068407910F0800F59
:1017100005D07C4850F8240000F0300604E07948F9
:1017200050F8240000F4405699F80000A84204D96B
:101730001EB16F480068807A08B90220CCE717F024
:10174000800F0ED06F4850F8240000F030001028B1
:101750003FD1E0B200F0B3FFE0B2302100F05BFE19
:1017600037E0684850F8240000F44050B0F5805F3E
:101770002FD1C4B9644A92F82C10E0B201F026F8D7
:10178000604951F824104BF68F7201EA020080F490
:10179000805080F4005040F4004141F08001594AEB
:1017A00042F8241015E0E0B200F073FF554951F8FB
:1017B00024104BF68F7201EA020080F4805080F40E
:1017C000005040F4004141F080014E4A42F824109C
:1017D00000BF484909684869804700207CE7FFE767
:1017E00000BF022078E72DE9F041414800684679C2
:1017F00026F080073C463E480068407910F0800F94
:1018000005D0404850F8240000F0300504E03D4881
:1018100050F8240000F4405537480078A04208D919
:1018200033480068408820B91DB131480068807A8B
:1018300010B90220BDE8F08116F0800F10D03149B8
:1018400051F8241048F6BF7201EA020080F010003F
:1018500040F4004141F080012A4A42F8241010E08F
:10186000284951F824104BF68F7201EA020080F4E7
:10187000805040F4004141F08001224A42F8241097
:1018800000BF1C490968886980470020D2E710B56D
:1018900017480068407A40F02000154909684872EE
:1018A00014490968C8698047002010BD10B5024678
:1018B0000F480068438A32B98888C01A0C4C2468E3
:1018C0002082002010BD08681844FBE72DE9F04194
:1018D0000748006800F110042688A06838B336B3C2
:1018E000A588B54200D93546A8B2A16888470DE061
:1018F0003800002044000020840100203C0000202B
:1019000032000020005C004088010020074620884B
:10191000401B2080608828446080002000F028FF61
:101920008046AAB24146384600F016FD00BF208826
:1019300050B14FF44050FA4908800021084600F0A9
:1019400023FF3020F74908802088A188884204DBE3
:101950000320F5490968087218E02088002804DD92
:101960000520F1490968087210E0208870B9062046
:10197000ED49096808720021EC48006880B2801CBB
:10198000EB4A42F810103020E6490880BDE8F081AB
:101990002DE9F047E448006800F110052E88E24880
:1019A0000068077AD6B9042F18D1E24800780128D8
:1019B0000FD10021DD48006880B2801CDC4A42F86B
:1019C00010103020D749088000BF0020D949087086
:1019D00003E007271020D349088027E0AC88A642FF
:1019E00001D8042000E002200746B44200D9344662
:1019F000A0B2A96888478046002000F0A9FE814671
:101A0000A2B24946404600F08DFCA1B2002000F091
:101A1000BBFE2888001B288068882044688030200E
:101A2000C04908800002BE49088000BFBE4909685D
:101A30000F72BDE8F08770B50226BB480068447895
:101A4000B9480068007810F07F0F44D1092C03D109
:101A5000FFF75DFD06465FE0052C14D1B248006833
:101A6000C0787F280BDCB0480068807838B9AE4871
:101A70000068808818B9AC480068807A08B10825E9
:101A800065E0002648E0032C0ED1A7480068C07826
:101A9000012807D1A4480068808818B9FFF7F7FE2D
:101AA000064639E0022637E0012C35D19E48006811
:101AB000C07801280DD19C480068808848B99A48B0
:101AC0000068407A10F0200F03D0FFF7F2FD0646C1
:101AD00022E0022620E094480068007800F07F00B1
:101AE000012805D10B2C17D1FFF740FD064613E066
:101AF0008D480068007800F07F0002280BD1012C8F
:101B000003D1FFF7D6FD064606E0032C04D1FFF70C
:101B10006AFE064600E002264EB1E0B2864A12682E
:101B2000516988470646032E01D109250FE00EB101
:101B300008250CE0062500217C48006880B2801C46
:101B40007B4A42F8101030207649088000BF764961
:101B500009680D7270BD2DE9F84F7348006845782B
:101B60000027BA46062D1AD16F480068007810F099
:101B70007F0F13D16C4909688878012803D16E4919
:101B80000968CF690AE0022803D16B4909680F6A26
:101B900004E0032802D1684909684F6A97E0002DE4
:101BA00065D1614800684088002860D15E480068BF
:101BB000C08802285BD15C4800680079002856D1B3
:101BC00059480068007810F07F0F06D15648006829
:101BD000808810B9AFF20B6779E05348006800784D
:101BE00000F07F00012811D14F4909684879524916
:101BF00009688A6900219047002868D14A4800682E
:101C0000807A002863D0AFF23B6760E04648006806
:101C1000007800F07F00022859D1434800684079DD
:101C200000F00F0640480068407900F070093E4817
:101C30000068407910F0800F06D03C48503850F8CA
:101C4000260000F0300805E03848503850F82600EB
:101C500000F4405839480078B04238D9B9F1000F43
:101C600035D1B8F1000F32D0AFF29F672FE0082DC9
:101C700008D12D480068007810F07F0F27D1AFF20F
:101C8000937724E00A2D22D127480068007800F0DD
:101C90007F0001281BD124480068807AB8B122480F
:101CA0000068408898B920480068007978B91E48D3
:101CB0000068C08801280AD11B49096848791E4973
:101CC00009688A690021904708B9AFF2817757B156
:101CD00015480068A0F812A013480068876100202A
:101CE000B84700240FE0104A12685078124A126870
:101CF000116988470446032C05D109200A4909685F
:101D00000872BDE8F88F08480068008AA0F57F4196
:101D1000FF3915D10920044909680872F1E700006C
:101D2000480000204A00002038000020505C00409D
:101D300000600040300000203C00002084010020B2
:101D4000022C03D09D480068008A20B908209B49D6
:101D500009680872D5E799480068007810F0800F8C
:101D60003CD096480068C088009094480068008A7B
:101D70000099884204D9914900980968088223E0B3
:101D80008E480068008A8D490968C98888421BDA34
:101D90008A480068008A8A49096891F82C108842AC
:101DA00003DA0020874908700EE084480068008A42
:101DB0008349096891F82C1090FBF1F201FB1200A5
:101DC00010B901207F4908707D48006890F82C10F8
:101DD0007A4800688182FFF7DBFD06E0032077493F
:101DE0000968087200037849088000BF89E710B5C8
:101DF000764890F82C10002000F0E8FC6F4800684E
:101E0000007A082805D140026F49088010207049E7
:101E100008806A480068007A092801D1012010BDB5
:101E20000020FCE738B501246A48006880B2001D34
:101E3000694931F8100080B201EB400000905F4822
:101E40000068007A092832D0009800785B49096858
:101E500008700098401C0090009800785749096865
:101E600048700098401C0090009800EB44000090DF
:101E7000009931F8020B009100F046FE4F490968C5
:101E80004880009800EB44000090009931F8020B64
:101E9000009100F039FE494909688880009800EBFC
:101EA000440000900098008844490968C8800120D7
:101EB00042490968087241480068C08810B9FFF7B4
:101EC000BAFD01E0FFF747FEFFF791FF38BD30B5DF
:101ED0000146424B1A78002012E0C3B23D4C503C00
:101EE00054F8233048F68F74234048F2800423438B
:101EF000C4B22343C4B2374D503D45F82430401C92
:101F00009042EAD341F08003324C241F236030BD5D
:101F100010B52A480068047A022C01D0042C05D19F
:101F2000FFF736FD25480068047A1CE0062C19D11D
:101F300022480068407805280ED1204800680078C3
:101F400010F07F0F08D11D490968C878FFF7BFFF5F
:101F500023490968086A80471949096888688047E1
:101F6000082400E00824154909680C72FFF73FFFB8
:101F700010BD10B511480068047A022C01D0042C61
:101F800001D1082412E0032C01D0052C05D1FFF764
:101F90009DFC0A480068047A08E0072C05D108492E
:101FA0000968C8688047082400E0082403490968D4
:101FB0000C72FFF71CFF10BD7047000038000020B6
:101FC0003C00002030000020480000208801002054
:101FD0004A000020505C0040006000408401002066
:101FE0004400002010B5084808490860022009682C
:101FF000087207480749086007480849086005490A
:1020000009680868804710BD2402002038000020BD
:10201000880100203C000020B8010020440000207E
:1020200008B50020009015E1B748008800F00F00C7
:10203000B64908700846007800287DD1B448006889
:10204000B44908800846008800F03000B249088092
:10205000B048008800F44050AE490880AC49096897
:102060004BF6BF7201EA020080F4005080F02000BD
:1020700040F4004141F08001A54A1160A248008867
:1020800010F0100F32D11046006848F60F7108406A
:1020900011460860FFF73CFF9D4909684BF6BF7287
:1020A00001EA02009B49098811F4805F01D080F4A5
:1020B00080509849098811F4005F01D080F40050E5
:1020C0009549098811F0100F01D080F01000924955
:1020D000098811F0200F01D080F0200081B241F476
:1020E000004141F080018A4A116008BD88480068BB
:1020F00080B20090BDF8000010F4006F36D0844824
:102100000068C0F30E0048F68F71084080490860EF
:10211000FFF788FE7E4909684BF6BF7201EA0200AC
:102120007C49098811F4805F01D080F4805079499E
:10213000098811F4005F00E052E001D080F4005003
:102140007549098811F0100F01D080F01000724914
:10215000098811F0200F01D080F0200081B241F4F5
:10216000004141F080016A4A1160BEE7BDF80000FD
:1021700010F4004F6ED066480068C0F30E0048F6B9
:102180008F71084062490860FFF7F3FE60490968F3
:102190004BF6BF7201EA02005E49098811F4805FC4
:1021A00001D080F480505B49098811F4005F01D0B0
:1021B00080F400505849098811F0100F01D080F0C8
:1021C00010005549098811F0200F01D080F020003F
:1021D00081B241F4004141F080014D4A116084E731
:1021E0004A4800784A4951F8200080B20090BDF872
:1021F000000010F4004F14D04448007851F820003B
:10220000C0F30E0048F68F71084040490978404AF3
:1022100042F821003D490978491E404A52F8210000
:102220008047BDF8000010F0800F13D037480078C9
:10223000374951F8200048F60F71084033490978B2
:10224000334A42F8210031490978491E344A52F88C
:10225000210080472E484430006880B22A49088017
:1022600010F4004F7FF4E0AE00BF3EE710B500244D
:1022700040E047F6FF702649443108602248008854
:1022800000F00F002149087008460078204951F8F5
:10229000200084B214F4004F15D01C48007851F887
:1022A0002000C0F30E0048F68F71084017490978E6
:1022B000174A42F8210015490978491E174A52F871
:1022C0002100804716E014F0800F13D00F480078EB
:1022D0000F4951F8200048F60F7108400B49097862
:1022E0000B4A42F8210009490978491E0C4A52F864
:1022F0002100804706484430006880B202490880C7
:1023000010F4004FB5D110BD7C0100203400002036
:10231000005C0040480000204A00002060010020CE
:1023200044010020F0B5144604F1010C4FEA6C079B
:10233000DFF848C00CEB41033D460AE00678401C3C
:1023400090F800C046EA0C2223F8022B9B1C401C8C
:102350006D1E002DF2D1F0BDF0B5561C7510074E64
:1023600006EB41042B4605E034F8047B20F8017BA2
:10237000401C5B1E002BF7D1F0BD00000060004048
:10238000F94908607047F848006880B27047F6491C
:10239000091D08607047F448001D006880B270474E
:1023A000F1480830006880B27047EF490C3108608E
:1023B0007047ED480C30006880B270474FF6F871F6
:1023C0000140E94A103211607047E7481030006858
:1023D00080B27047E44A403A42F820107047014604
:1023E000E148403850F8210080B27047DE4A403A58
:1023F00052F8202048F68F131A400A43DA4B403B2C
:1024000043F8202070470146D748403850F8210053
:1024100000F4C060704710B5D34B403B53F82030F8
:1024200048F6BF7403EA040211F0100F01D082F0E5
:10243000100211F0200F01D082F0200242F400437C
:1024400043F08003C84C403C44F8203010BD10B528
:10245000C54B403B53F820304BF68F7403EA04021F
:1024600011F4805F01D082F4805211F4005F01D03A
:1024700082F4005242F4004343F08003BA4C403CE3
:1024800044F8203010BD10B502460B461046FFF749
:10249000A6FF0446012B06D124F48050B2494039EE
:1024A00041F8220007E0022B05D124F01000AE49CC
:1024B000403941F8220010BD0146AB48403850F881
:1024C000210000F0300070470146A748403850F81E
:1024D000210000F440507047A34A403A52F82020AF
:1024E00048F6BF7302EA030181F0100181F0200178
:1024F00041F4004242F080029B4B403B43F82020D5
:102500007047994A403A52F820204BF68F7302EAFE
:10251000030181F4805181F4005141F4004242F002
:102520008002914B403B43F8202070478E49403950
:1025300051F8201041F4807148F68F72114048F232
:1025400080021143884A403A42F820107047864979
:10255000403951F8201048F68F62114048F280024D
:102560001143814A403A42F8201070477E49403971
:1025700051F8201048F68F62114048F28002114352
:10258000794A403A42F8201070477749403951F86B
:10259000201041F4807148F68F72114048F2800299
:1025A0001143714A403A42F8201070476E49403951
:1025B00051F8201041F4807148F68F72114048F2B2
:1025C00080021143684A403A42F820107047664939
:1025D000403951F8201048F68F62114048F28002CD
:1025E0001143614A403A42F82010704701465E4864
:1025F000403850F8210000F03000102801D10120AF
:1026000070470020FCE701465748403850F8210049
:1026100000F44050B0F5805F01D1012070470020E8
:10262000FCE75149403951F82010C1F30E0148F63A
:102630008F7211404C4A403A42F8201070474A4984
:10264000403951F8201048F60F721140464A403A7E
:1026500042F8201070474449403951F8201048F69C
:102660008F7211404CF2800211433F4A403A42F8C7
:10267000201070473C49403951F8201048F68F72BD
:10268000114048F2C0021143374A403A42F8201044
:1026900070473549403951F8201011F4804F0DD062
:1026A0003149403951F8201048F68F7211404CF2F0
:1026B000800211432C4A403A42F8201070472A49C0
:1026C000403951F8201011F0400F0DD02649403903
:1026D00051F8201048F68F72114048F2C0021143A1
:1026E000214A403A42F8201070471F4A403A52F8B7
:1026F000202048F68F731A4048F280031A430A4399
:10270000194B403B43F8202070470146164840389B
:1027100050F8210000F00F00704710B54A10530028
:10272000114A1032126892B202EBC0020F4C44F808
:10273000123010BD10B54A1053000B4A1032126807
:1027400092B202EBC002121D084C44F8123010BDC8
:10275000014605481030006880B200EBC100034A12
:1027600032F8100080B27047405C004000600040CA
:102770000146E848006880B200EBC100001DE64A4F
:1027800032F8100080B27047E24A126892B202EB4F
:10279000C002921CE04B43F81210704702463E29DB
:1027A0000BDD481111F01F0F01D1431E98B24FF4F9
:1027B000004343EA8023136007E0481011F0010F43
:1027C00001D0431C98B283021360704710B50246D3
:1027D000D048006880B200EBC200801DCE4C04EBF4
:1027E00040033E290BDD481111F01F0F01D1441E9B
:1027F000A0B24FF4004444EA80241C6007E0481073
:1028000011F0010F01D0441CA0B284021C6010BD65
:102810000146C048006880B200EBC100801CBE4A7F
:1028200032F81000C0F3090070470146B94800684B
:1028300080B200EBC100801DB74A32F81000C0F32F
:102840000900704730B54B105C00B24B1B689BB25F
:1028500003EBC003B04D45F8134053105C00AD4B83
:102860001B689BB203EBC0031B1D45F8134030BD32
:1028700010B54A105300A74A126892B202EBC00288
:10288000A54C44F8123010BD10B54A105300A14AAF
:10289000126892B202EBC002121D9F4C44F8123033
:1028A00010BD01469B48006880B200EBC1009A4A07
:1028B00032F8100080B2704701469648006880B236
:1028C00000EBC100001D944A32F8100080B270473E
:1028D00030B50B46012B1FD18E49096889B201EB37
:1028E000C001891C8C4D05EB41043E2A0BDD5111C2
:1028F00012F01F0F01D14D1EA9B24FF4004545EA59
:102900008125256007E0511012F0010F01D04D1C08
:10291000A9B28D0225600AE0022B08D17D49096821
:1029200089B201EBC001891C7B4C44F81120012BBA
:102930001FD17849096889B201EBC001891D764D24
:1029400005EB41043E2A0BDD511112F01F0F01D19E
:102950004D1EA9B24FF4004545EA8125256007E0E8
:10296000511012F0010F01D04D1CA9B28D0225604B
:102970000AE0022B08D16749096889B201EBC0015E
:10298000891D654C44F8112030BD30B5034601293E
:102990001FD16048006880B200EBC300801C5E4D10
:1029A00005EB40043E2A0BDD501112F01F0F01D140
:1029B000451EA8B24FF4004545EA8025256007E092
:1029C000501012F0010F01D0451CA8B285022560FD
:1029D0000AE0022908D14F48006880B200EBC3002A
:1029E000801C4D4C44F8102030BD30B50346012901
:1029F0001FD14848006880B200EBC300801D464DDF
:102A000005EB40043E2A0BDD501112F01F0F01D1DF
:102A1000451EA8B24FF4004545EA8025256007E031
:102A2000501012F0010F01D0451CA8B2850225609C
:102A30000AE0022908D13748006880B200EBC300E1
:102A4000801D354C44F8102030BD014631480068E7
:102A500080B200EBC100801C2F4A32F81000C0F396
:102A60000900704701462B48006880B200EBC100A6
:102A7000801D294A32F81000C0F309007047014652
:102A80002448006880B200EBC100801D224A32F861
:102A9000100010F47C4F01D0012070471D480068E1
:102AA00080B200EBC100801C1B4A32F81000800588
:102AB000800D01D00220F0E70020EEE701290ED1C1
:102AC000144A503A52F8202048F68F731A4048F2C0
:102AD000C0031A430F4B503B43F820200FE002295C
:102AE0000DD10C4A503A52F8202048F68F731A4004
:102AF0004CF280031A43074B503B43F820207047A9
:102B0000024641EA022070470146CAB20B1243EA6C
:102B100002207047505C00400060004000201D49CA
:102B200008604FF43F401C49088008460088194956
:102B3000091F0860002070472DE9F04104460E4649
:102B4000154604F07F00FFF703FE0746AAB2394698
:102B50003046FFF7E7FBA9B204F07F00FFF714FE51
:102B60000020BDE8F0812DE9F04104460E46002525
:102B700004F07F00FFF759FE054604F07F00FFF7E1
:102B8000F7FD07462A4639463046FFF7E5FB28465B
:102B9000BDE8F081445C00404200002010B50020F8
:102BA00000F0A4F810BD08B501212020FEF736FC86
:102BB0004FF40070ADF8000003208DF802001420DF
:102BC0008DF8030069464348FEF772F908BD10B559
:102BD000FFF7E9FF4FF48020FDF723FE4FF480203C
:102BE0003D49086008204871012088710846FDF7BA
:102BF000A1FDFFF7D3FF10BD10B50020FEF772FB5B
:102C00000121C805FEF717FC10BD032033490860F9
:102C1000704710B5324CA07A18B105202F490860D2
:102C200002E001202D490860FDF760FB10BD08B5EA
:102C30004FF4A060FDF702FD14208DF80000022083
:102C40008DF8010000208DF8020001208DF80300AE
:102C50006846FDF7F8FC2A208DF8000000208DF86A
:102C600001006846FDF7EFFC08BD704730B50B4624
:102C7000002100BF16E00A24B4EB107F05D93024F0
:102C800004EB107403F8114005E0412404EB1074C8
:102C90000A3C03F81140000100254C00641C1D553E
:102CA0004C1CE1B29142E6DB30BD70B50D480468C2
:102CB000001D0568001D0668344454B108220A4905
:102CC0002046FFF7D3FF0422074910312846FFF7BB
:102CD000CDFF70BD00140140500000201402002000
:102CE00024020020E8F7FF1F2601002010B504464B
:102CF00014B1012C04D102E0FDF7BBFD02E001E0BC
:102D0000012010BD00BF0020FBE72DE9F041054682
:102D10000E461746984615B1012D09D107E0224904
:102D2000701842463946FDF7EEFB044603E002E028
:102D30000120BDE8F08100BF0CB90020F9E70120B7
:102D4000F7E72DE9F04105460E461746984615B1BE
:102D5000012D09D107E01449701842463946FDF7A4
:102D600013FC044603E002E00120BDE8F08100BF4F
:102D70000CB90020F9E70120F7E7014611B101295C
:102D80000FD10CE06020094A10604FF48060084ABF
:102D900010604FF4C030074A1060002070470020D8
:102DA000FCE70120FAE70000008000086C0000202A
:102DB000640000205C00002070B504460D461646F5
:102DC0007448007870B9744850F824006843734917
:102DD0000860714850F82400704371490860012070
:102DE0006C4908706B480078012844D16D48006830
:102DF000C0B9694830F8240083B26B4A674801685B
:102E00002046FFF79EFF402267498120FFF794FE8E
:102E1000614850F824004038624908604020634906
:102E2000086011E06048614A1268811840228120E0
:102E3000FFF782FE5B48006840385A4908605B48EB
:102E4000006840305949086040210120FFF79CFC90
:102E500030210120FFF7DFFA5048006840304F4929
:102E600008604F48006840384D4908605048806805
:102E700040384F4988604A48006860B90020494995
:102E800008604A49086045490860032049490870BC
:102E900000204049087070BD2DE9F04104460D4600
:102EA00016464548006800F140073A48007870B976
:102EB000394850F82400684340490860364850F8C3
:102EC000240070433E4908600120324908703148AF
:102ED000007801284CD100203A49086010E03948B8
:102EE00001680068401C374A10603748415C2E4832
:102EF000314A1268815430480068401C2E490860ED
:102F00002D480068B842EAD32C4800682F49098848
:102F100008442A4908602A4800682C490988401A50
:102F2000274908601C4850F824000968B1FBF0F2FA
:102F300000FB121080B900201F490860164830F8C5
:102F4000240083B2144850F824001C4A1268111A55
:102F5000154A2046FFF7D9FE154880681B490988A5
:102F6000401A134988604FF440510220FFF76FFA6E
:102F70001348006818B10F480078042808D10020D1
:102F80000D490860012100F03DF80020014908705A
:102F9000BDE8F0817C00002064000020800000205B
:102FA00084000020740000204002002090000020D7
:102FB000A0060020180100207800002088000020D2
:102FC0008C00002094000020400600201A01002000
:102FD000704700BFFEE700BFFEE700BFFEE700BF8F
:102FE000FEE770477047704710B5FFF73FF910BD17
:102FF00010B500F043FA10BD10B54FF48020FDF776
:1030000010FC10BD70B505460C46F748F74908603E
:10301000084605730D228120FFF78EFD0520F44937
:1030200008702CB10420087030210120FFF7F3F95B
:1030300070BD10B5EE48007802281BD0032828D0B8
:10304000042802D005282ED100E000BF0020E84966
:1030500008704FF440510220FFF7F9F90220FFF702
:1030600033FAB0F5805F04D14FF440510220FFF7EE
:10307000EEF919E0DF48C07B282808D1DD49487BFC
:10308000DD490A68DD49096800F0C7FD00BF00BFDF
:103090000AE001210020FFF7B5FF4FF44051022064
:1030A000FFF7D5F900E000BF00BF10BD10B5044622
:1030B00024B1012C07D0022C15D10AE010210120E7
:1030C000FFF7A9F910E04FF480510220FFF7BFF994
:1030D0000AE010210120FFF79EF94FF480510220F1
:1030E000FFF7B5F900E000BF00BF10BD10B5002428
:1030F00004E0C348005DBF490855641CC14800880E
:103100008442F6D3BB484068B8494860B9488068F3
:103110008860BC4800881F280FD00220FFF7C6FF38
:103120000020B4490860487B1A22052100F08DFC7C
:1031300000210120FFF766FF10BDAE48C07B2828A4
:1031400003D0AC48C07B2A2816D1AA48407C01068F
:10315000A848807C41EA0041A648C07C41EA0020A2
:10316000A449097D0843A5490860A248C17D807D26
:1031700041EA0020A04908609E480068A2498842B0
:103180006FD19C48407BA1490968884207D899487B
:10319000807B012803DB9748807B10280DDD02200F
:1031A000FFF784FF9349487B2422052100F04DFC62
:1031B00000210120FFF726FFE8E08E48C07B25288C
:1031C0005FD01BDC15286FD00EDC08286DD006DC24
:1031D00000285BD0032830D0042867D176E00A2885
:1031E00073D01228F9D12DE01A380A285ED2DFE810
:1031F00000F0392EB17D33B1B1B1B1438A286FD01F
:103200000EDC552867D006DC282844D02A284ED06A
:103210002F28E2D154E05A2829D08828DDD176E041
:10322000A8286DD004DC8F286FD09E28D5D173E0FC
:10323000AA287BD0AF28D0D182E06E49487B00F02D
:1032400097FC95E06B49487B00F0E4FB90E069490E
:10325000487B00F09CFC8BE06649487B00F097FCC3
:1032600086E086E06349487B00F074FC80E06149B9
:10327000487B00F076FC7BE05E49487B00F0E9FB90
:1032800076E05C49487B00F020FC71E05949487BBE
:1032900000F066FD6CE05749487B57490A6857497A
:1032A000096800F0BAFC63E01BE024E052E05149F9
:1032B000487B51490A685149096800F0E5FC57E02C
:1032C0004C49487B00F017FD52E02AE04949487B11
:1032D00000F060FD4CE04749487B00F071FD47E09D
:1032E00029E04449487B00F06BFD41E04149487BBF
:1032F00000F066FD3CE03F49487B00F061FD37E0AF
:103300003C49487B00F05CFD32E01EE00EE03949AC
:10331000487B00F055FD2BE03649487B00F050FD1E
:1033200026E03449487B00F04BFD21E03149487BE1
:1033300000F046FD1CE02F49487B00F041FD17E0FE
:103340002C49487B00F03CFD12E02A49487B00F004
:1033500037FD0DE00220FFF7A9FE2649487B202219
:10336000052100F072FB00210120FFF74BFE00BF9A
:103370000CE00220FFF79AFE1E49487B202205211F
:1033800000F063FB00210120FFF73CFE00BFD3E605
:1033900010B51848C47B1A490220FFF7E4FB19490D
:1033A00008801348007810B1012831D102E0FFF7FE
:1033B0009DFE3BE02A2C08D10E49487B0E490A6845
:1033C0000E49096800F060FC30E00120FFF76EFE56
:1033D0000849487B2422052100F037FB0021022008
:1033E000FFF710FE22E0000055534253A0060020D4
:1033F0001801002080060020200100201C01002070
:10340000400600201A01002055534243800100204D
:103410000220FFF74BFE1249487B2422052100F0D1
:1034200014FB00210220FFF7EDFD00BF00BF10BD1F
:1034300070B505460C46224629468120FFF77CFBE5
:1034400030210120FEF7E7FF0320064908700648F7
:103450008068001B044988600020087370BD00006C
:103460008006002018010020A006002010B5FFF7FC
:10347000E0FD10BD10B5FFF78BFF10BD10B537484C
:103480000068374908800846008800F40040354944
:103490000988084201D0FEF7C3FD3148008800F4D6
:1034A000806030490988084206D04FF6FF302B492A
:1034B00008602D49486880472948008800F400507A
:1034C00028490988084203D04DF6FF702349086057
:1034D0002348008800F4805022490988084206D019
:1034E0004EF6FF701D490860002000F024FA1C48C9
:1034F000008800F400601B49098808420CD01B4872
:10350000007810B100F093F902E0022000F013FA05
:103510004FF2FF70114908601148008800F40070F4
:1035200010490988084208D04FF6FF500B4908603F
:103530000F480078401C0E4908700948008800F4C4
:10354000807008490988084206D04FF6FF60034999
:103550000860072000F0EFF910BD0000445C004057
:103560007C01002042000020880100201802002079
:103570004001002010B5FFF798FB00208B49096837
:10358000887200F02BF9FFF7C9FA0020884908601B
:1035900010BD10B50020874988728748C0798349DB
:1035A000096848720020FEF709FF4FF400710020FF
:1035B000FEF71CFF20210020FEF72DFF1821002020
:1035C000FFF7B8F87D4890F82C100020FFF7FEF8C0
:1035D00058210020FFF7A1F80020FEF7C7FF0020C8
:1035E000FEF78FFF00210120FEF700FF9821012048
:1035F000FFF793F820210120FEF70DFF00210120A5
:10360000FEF725FF00210220FEF7F0FED821022060
:10361000FFF790F8694890F82C100220FFF7D6F8D1
:103620004FF440510220FEF712FF00210220FEF766
:10363000F2FE624890F82C100020FFF7C7F8002037
:10364000FEF75FFF0020FEF742FC012058490860AA
:103650005B485C49086000205B49087010BD10B5EC
:1036600052480068807A58B105205149086001200D
:10367000FFF725F80220FFF70CF8002052490870E8
:1036800010BD10B54F4800684D49884202D0022055
:10369000FFF70CFD10BD04204549086070477047D6
:1036A0007047014629B90120404A12681082002063
:1036B00070474648FCE770B5054600243B48006863
:1036C000007800F07F00212811D1FE2D0FD137485E
:1036D0000068408858B935480068808838B9334850
:1036E0000068C088012802D1AFF2490401E002203D
:1036F00070BD0CB90220FBE72C48006884610021F2
:103700002A48006841820020A0470020F0E710B559
:10371000044626480068007800F07F0021281AD16E
:10372000FF2C18D1214800684088A0B91F480068C4
:10373000808880B91D480068C08860B90120FEF704
:10374000BEFF0220FEF7A5FF1D481E4908600020AD
:103750001D49087010BD0220FCE70246002901DD6A
:1037600002207047002A01DD0220FAE70020F8E776
:1037700010B5044616492046FEF798F810BD10B55E
:10378000044614492046FEF791F810BD70B5054671
:1037900006480068C478052C01DD002070BD0E4885
:1037A00000EBC4012846FEF781F8F7E73800002057
:1037B0001402002024020020B43E000888010020EA
:1037C000555342438006002018010020800100204C
:1037D000DC010020E4010020EC01002010B50120F4
:1037E000FFF743FA012484480460002083490880DD
:1037F00008460088804908600020091D08604FF4D1
:10380000E0507E490880084600887B490860002017
:1038100010BD10B50120784908600020091D08601E
:10382000FFF723FA032074490860002010BD18B583
:1038300000210022002300936F4B1B6898B200BF49
:1038400008E06D4B403B53F821309BB26C4C44F880
:103850002130491C0829F4D340F48060664B18607D
:1038600040F00100186020F00100186000BF624BBA
:103870001B1D1B6813F4806FF9D04FF6FF335E4CAD
:10388000241D2360002108E05D4B53F821309BB2DA
:10389000594C403C44F82130491C0829F4D340F0ED
:1038A0000800554B18601B6898B240F00400524B5A
:1038B0001860544B1B680093524B1A6822F00302A5
:1038C00042F001021A60504B1B6843F004034E4C57
:1038D0002360494B1B1D1B6813F4805F06D130BF6A
:1038E00023461B6823F00403236014E04EF6FF73A5
:1038F000414C241D2360231F1B6898B220F0080050
:10390000231F18603F4C009B23603F4B1B6823F034
:1039100004033D4C236018BD10B53748006884B2DD
:1039200024F0040434480460FFF773F94FF43F4077
:103930003149086010BD70B50546072D01D03348E8
:1039400005703248007808284ED2DFE800F00411F4
:103950001A202B384E4F2E48006828B9FFF7DCFF9D
:1039600006202A49087002E005202849087041E035
:10397000FFF7D2FF04202549087001202449086080
:1039800038E00220214948700320087032E01F48C7
:103990004078401E1D4948700846407808B9042008
:1039A000087027E01448006884B244F010041248FC
:1039B00004600520154908700A2048701AE0134871
:1039C0004078401E114948700846407858B90A4866
:1039D000006884B224F010040748046006200870D0
:1039E00000200B49086005E000BF00BF0620074922
:1039F000087000BF00BF70BD405C00404200002066
:103A0000B00600200070004010ED00E02002002011
:103A10001C02002070B50646F948007C10F0010F2A
:103A200002D0F84C05250BE00EB9F74C00E0F74C3E
:103A3000F348C07C242802DCF148C57C00E0242542
:103A400029462046FFF7F4FC70BDF14B99701A73BC
:103A5000704710B504462046FFF78FF968B1E84972
:103A6000487B3A220221FFF7F0FF01210846FFF7C9
:103A7000C9FA0020FFF71AFB10BDE64850F82400F1
:103A8000000EE5490871E34850F82400000C487125
:103A9000E04830F82400000A8871DE4810F824005D
:103AA000C871DE4850F82400000C4872DB4830F83A
:103AB0002400000A8872D94810F82400C8720C212A
:103AC000D548FFF7B5FC00BFD6E710B50446204641
:103AD000FFF753F968B1CA49487B3A220221FFF740
:103AE000B4FF01210846FFF78DFA0020FFF7DEFA48
:103AF00010BDC84850F82400401E000EC849087088
:103B0000C44850F82400401E000C4870C14830F8EA
:103B10002400401E000A8870BE4810F82400401E91
:103B2000C870BE4850F82400000E0871BB4850F819
:103B30002400000C4871B94830F82400000A88714C
:103B4000B64810F82400C8710821B548FFF770FC8A
:103B500000BFCDE710B504460421B248FFF768FC6A
:103B600010BD10B504460821AF48FFF761FC10BD39
:103B700070B50546A248C07C122802DCA048C47C6F
:103B800000E012242146A248FFF752FC70BD10B598
:103B9000044601210020FFF735FA10BD2DE9F04160
:103BA00004460D4617461E46B8199A4951F8241086
:103BB000884213D92A2D02D10220FFF777FA00207C
:103BC000FFF774FA212205212046FFF73EFF00216E
:103BD0000120FFF717FA0020BDE8F08188488168CE
:103BE0008E4850F824007043814214D02A2D03D10E
:103BF0000220FFF75BFA02E00020FFF757FA804946
:103C0000487B24220521FFF720FF00210120FFF738
:103C1000F9F90020E0E70120DEE770B506460C4622
:103C200015468248007820BB7549487B2B462246C2
:103C30002821FFF7B3FF00B970BD7148007B10F079
:103C4000800F08D00220794908702A462146304664
:103C5000FFF7B2F80CE00220FFF728FA6849487B2A
:103C600024220521FFF7F1FE01210846FFF7CAF9DA
:103C7000E2E76E480078022804D12A462146304601
:103C8000FFF79AF800BFD7E770B506460C46154611
:103C90006648007820BB5A49487B2B4622462A2199
:103CA000FFF77CFF00B970BD5548007B10F0800F16
:103CB00008D101205D4908704FF440510220FEF701
:103CC000C6FB0CE00020FFF7F1F94D49487B2422A8
:103CD0000521FFF7BAFE00210120FFF793F9E2E783
:103CE00052480078012804D12A4621463046FFF781
:103CF000D3F800BFD7E710B504464148806848B9FB
:103D00003F48007C10F0040F04D101210020FFF790
:103D100079F90CE00220FFF7C9F93949487B2422E0
:103D20000521FFF792FE00210120FFF76BF910BD7E
:103D300010B504463248806868B10220FFF7B6F932
:103D40002F49487B20220521FFF77FFE002101201B
:103D5000FFF758F903E001210020FFF753F910BDE8
:103D600010B504462046FFF708F868B12449487B9F
:103D70003A220221FFF769FE01210846FFF742F9C6
:103D80000020FFF793F910BD01210020FFF73AF959
:103D900000BFF8E710B504462046FEF7EEFF68B115
:103DA0001749487B3A220221FFF74FFE01210846BE
:103DB000FFF728F90020FFF779F910BD00BFFCE7F5
:103DC00010B504460E48806818B90020FFF76EF958
:103DD0000BE00B48007B10F0800F03D00020FFF7B2
:103DE00065F902E00220FFF761F90549487B2022CE
:103DF0000521FFF72AFE00210120FFF703F910BD7E
:103E000080060020980000209D000020C1000020B6
:103E1000F10000206C0000200B0100206400002055
:103E200003010020E5000020E90000201801002027
:103E3000704770477047754600F028F8AE46050099
:103E40006946534620F00700854618B020B5FCF7B8
:103E5000CDF9BDE820404FF000064FF000074FF0CD
:103E600000084FF0000B21F00701AC46ACE8C00998
:103E7000ACE8C009ACE8C009ACE8C0098D467047A1
:103E80000446AFF300802046FCF797F900487047DE
:103E9000D006002001491820ABBEFEE72600020034
:103EA0007047120100020000004083042057000206
:103EB0000102030109022000010100C032090400CF
:103EC00000020806500407058102400000070502B1
:103ED00002400000040309042603530054004D006F
:103EE0006900630072006F0065006C00650063008C
:103EF000740072006F006E00690063007300260397
:103F0000530054004D003300320020004D0061008A
:103F1000730073002000530074006F007200610092
:103F20006700650010035300540020004D0061003D
:103F300073007300543F00080000002024020000BA
:103F4000280100081C400008240200200C0B00007F
:103F5000840100081184A24A04C009010203040676
:103F600007080929146918056E020406083580023D
:103F700002202D53544D2001180E534420466C61ED
:103F80007368204469736B10ED312E302024BC4ED1
:103F9000414E26292442036206627002150A39DF67
:103FA000021002141A03531254124D123302153226
:103FB000136D340C1808B91F040A157520812303EA
:103FC000011375351B089304139F361B08A1041AAF
:103FD000B704130F371B085B041A71041A7F041A05
:103FE0008D0441324029401A5F24A9509A83101A47
:103FF000970C13A23E3308121AB40832201AD408C0
:1040000032041AD80832265AFE081324012B201A2B
:0C40100008123F73081019939100000083
:04000005080000ED02
:00000001FF
