:020000040800F2
:1000000040080020C9010008CD250008CF250008C0
:10001000D3250008D7250008DB25000800000000D4
:10002000000000000000000000000000DF250008C4
:10003000E125000800000000E3250008F1030008A6
:10004000E3010008E3010008E3010008E301000800
:10005000E3010008E3010008E3010008E3010008F0
:10006000E3010008E3010008E3010008E3010008E0
:10007000E3010008E3010008E3010008E3010008D0
:10008000E3010008E3010008E3010008E3010008C0
:10009000E5250008E3010008E3010008E30100088A
:1000A000E3010008E3010008E3010008E3010008A0
:1000B000E3010008E3010008E3010008E301000890
:1000C000E3010008E3010008E3010008E301000880
:1000D000E3010008E3010008E3010008E301000870
:1000E000E3010008E3010008EF25000800F002F832
:1000F00000F05AF80AA090E8000C82448344AAF168
:100100000107DA4501D100F04FF8AFF2090EBAE865
:100110000F0013F0010F18BFFB1A43F0010318473B
:10012000802C0000A02C00000A444FF0000C10F8B6
:10013000013B13F0070408BF10F8014B1D1108BF65
:1001400010F8015B641E05D010F8016B641E01F805
:10015000016BF9D113F0080F1EBF10F8014BAD1C55
:100160000C1B09D16D1E58BF01F801CBFAD505E073
:1001700014F8016B01F8016B6D1EF9D59142D6D3CD
:10018000704700000023002400250026103A28BFF5
:1001900078C1FBD8520728BF30C148BF0B607047F9
:1001A0001FB51FBD10B510BD02F06BFD1146FFF766
:1001B000F7FF00F071F902F089FD03B4FFF7F2FFD9
:1001C00003BC02F08DFD0000094880470948004744
:1001D000FEE7FEE7FEE7FEE7FEE7FEE7FEE7FEE7F7
:1001E000FEE7FEE704480549054A064B7047000054
:1001F000E5020008ED000008400200204008002051
:1002000040040020400400200CB500200190009024
:100210006B48006840F480306949086000BF684856
:10022000006800F4003000900198401C0190009894
:1002300018B90198B0F5A06FF1D16148006810F4C9
:10024000003F02D00120009001E0002000900098C3
:10025000012842D15B48006840F01000594908600D
:100260000846006820F0030008600846006840F077
:10027000020008605248406851494860084640689A
:1002800048600846406840F480604860084640681E
:1002900020F47C1048600846406840F4E81048604C
:1002A0000846006840F08070086000BF444800685D
:1002B00010F0007FFAD04248406820F00300404927
:1002C00048600846406840F00200486000BF3C4873
:1002D000406800F00C000828F9D10CBD10B5FFF7FC
:1002E00093FF10BD10B53648006840F00100344956
:1002F000086008464068344908403149486008466B
:100300000068324908402E4908600846006820F419
:10031000802008600846406820F4FE0048604FF4E2
:100320001F008860FFF7DAFF4FF00060284908607F
:1003300010BD10B5002100200022214B5B6803F0A6
:100340000C0121B1042906D0082928D107E0214B4E
:10035000214C236027E01F4B1F4C236023E0184BE8
:100360005B6803F47010164B5B6803F48032022361
:1003700003EB904022B9194B4343174C23600DE027
:100380000F4B5B6813F4003F04D0144B4343124CF3
:10039000236003E00F4B43430F4C236003E00D4BFE
:1003A0000D4C236000BF00BF054B5B68C3F3031314
:1003B0000B4CE15C084B1B68CB40074C236010BD25
:1003C00000100240002002400000FFF8FFFFF6FE90
:1003D00008ED00E000127A000000002000093D0056
:1003E0000400002010B54FF4A06000F061F810BDCB
:1003F0002848006800F180702649086008460068B7
:100400000860704710B504466FF0040000F0A0F8D3
:100410006FF07F404FF0E02148610020886108467E
:10042000006940F00300086110BD1A4801684FF0F0
:10043000E0208269C2F1807008440923B0FBF3F028
:10044000704710B5FFF7F1FF04464FF47A70B4FB24
:10045000F0F010BD70B50546FFF7F3FF04462646E1
:1004600002E0FFF7EEFF0646301BA842F9D3A64292
:10047000F7D370BD70B50546FFF7D7FF0446264693
:1004800002E0FFF7D2FF0646301BA842F9D3A6428E
:10049000F7D370BD14000020FFF7A4FF01F0DAFFCE
:1004A00001F0FBFF02F014F801F0F8F900BFFEE7DD
:1004B00031490143314A1160704770B50021002372
:1004C0000F22C4780CB32D4C246804F4E064C4F506
:1004D000E064210AC1F10403CA40447804FA03F13C
:1004E0008478144021430901254C0678A1550478ED
:1004F00004F01F050124AC4005786D114FF0E02693
:1005000006EB8505C5F8004109E0047804F01F05F5
:100510000124AC401B4D0678761145F8264070BD8D
:10052000194A0A400243154B1B1F1A60704739B124
:10053000124A121D12680243104B1B1D1A6006E07E
:100540000E4A121D126882430C4B1B1D1A60704725
:10055000042808D14FF0E021096941F004014FF06F
:10056000E022116107E04FF0E021096921F0040168
:100570004FF0E022116170470000FA050CED00E039
:1005800000E400E080E100E080FFFF1F002044491C
:100590000860091D0860091D0860091D08604148C0
:1005A0003F4914310860704700213D498279002A93
:1005B0003AD00A46126803689A430B461A600A1D2D
:1005C000126803689A430B1D1A60027911440A6885
:1005D00003681A430A60324A0832126803689A4371
:1005E0002F4B08331A601A1D126803689A432C4B6C
:1005F0000C331A604279102A0ED11A1F1268036850
:100600001A43274B08331A601A1D126803681A43ED
:10061000234B0C331A600DE02149427911440A68DA
:1006200003681A430A6005E0027911440A68036806
:100630009A430A6070470021016001710C214171E9
:100640000021817170471649103109680143144A2D
:1006500010321160704701460020114A14321268AE
:100660000A4201D0012000E0002070470C491431FB
:1006700008607047014600200022094B1B6803EA0E
:100680000102074B14331B680B4202D00AB1012050
:1006900000E00020704702491431086070470000F4
:1006A00000040140FFFF0F0010B50446CA48844211
:1006B00008D10121042000F027FB0021042000F0D4
:1006C00023FB46E0C548844208D10121082000F000
:1006D0001BFB0021082000F017FB3AE0C0488442D1
:1006E00008D10121102000F00FFB0021102000F0A4
:1006F0000BFB2EE0BB48844208D10121202000F0F2
:1007000003FB0021202000F0FFFA22E0B6488442DB
:1007100008D10121402000F0F7FA0021402000F02C
:10072000F3FA16E0B148844208D10121802000F09C
:10073000EBFA0021802000F0E7FA0AE0AC4884429E
:1007400007D10121801500F0DFFA0021A01500F08B
:10075000DBFA10BD10B50121084600F0D5FA0021E2
:10076000012000F0D1FA10BD2DE9F041024600252C
:100770000026002000230024002791F803C00CF07D
:100780000F0591F803C01CF0100F03D091F802C0C0
:100790004CEA050591F800C0BCF1000F31D0146897
:1007A00000202BE04FF0010C0CFA00F3B1F800C070
:1007B0000CEA03069E4220D183004FF00F0C0CFA86
:1007C00003F7BC4305FA03FC4CEA040491F803C0A8
:1007D000BCF1280F06D14FF0010C0CFA00FCC2F856
:1007E00014C00AE091F803C0BCF1480F05D14FF0E6
:1007F000010C0CFA00FCC2F810C0401C0828D1D330
:100800001460B1F800C0BCF1FF0F34DD5468002063
:100810002EE000F1080C4FF0010808FA0CF3B1F8D3
:1008200000C00CEA03069E4221D183004FF00F0C5A
:100830000CFA03F7BC4305FA03FC4CEA040491F8F4
:1008400003C0BCF1280F05D100F1080C08FA0CF820
:10085000C2F8148091F803C0BCF1480F07D100F131
:10086000080C4FF0010808FA0CF8C2F81080401C80
:100870000828CED35460BDE8F0814FF6FF710180A7
:10088000022181700421C1707047024600209368E4
:100890000B4201D0012000E000207047014688682B
:1008A00080B2704702460020D3680B4201D001207D
:1008B00000E0002070470146C86880B270470161BF
:1008C0007047416170470AB1016100E041617047C2
:1008D000C16070474FF480320A4382618161826156
:1008E00082698269704702460020424B18684FF6C1
:1008F0008073184040EA021008433E4B186070476E
:100900003D49C8617047F0B50A4600230024002124
:10091000002500F00046B6F1004F02D1354EF169D6
:1009200001E0344E7168C0F3034583B200F4401611
:10093000B6F5401F08D121F070612E4E766826F082
:1009400070662C4F7E6012E000F48016B6F5801FB2
:1009500006D1032606FA05F4A14341F0706106E0D2
:10096000460D360103FA06F6B14341F0706122B13B
:10097000460D360103FA06F6314300F00046B6F1A3
:10098000004F02D11B4EF16101E01A4E7160F0BDC3
:1009900030B500228B071C0F0F2303FA04F2154B0E
:1009A00008338C1053F824309343124C08348D10C4
:1009B00044F8253023468C1053F824308C07240F3C
:1009C00000FA04F423430B4C08348D1044F825300E
:1009D00030BD0A490860704700080140000C014022
:1009E000001001400014014000180140001C0140AB
:1009F000002001400000014000002042DC002042B5
:100A0000DD48006840F00100DB49086008464068A6
:100A1000DA490840D849486008460068D849084083
:100A2000D54908600846006820F480200860084620
:100A3000406820F4FE0048604FF41F008860704753
:100A4000CD49096821F48031CB4A1160114609680B
:100A500021F480211160B0F5803F03D0B0F5802FE4
:100A60000ED106E0C449096841F48031C24A1160E0
:100A700007E0C149096841F4A021BF4A116000E0C4
:100A800000BF00BF704710B50146002200230020C0
:100A90004A11012A02D1B84C236806E0022A02D189
:100AA000B54C236A01E0B44C636A01F01F020124D3
:100AB00094401C4201D0012000E0002010BD38B558
:100AC000002000900024002500BF3120FFF7DBFF4D
:100AD00005460098401C00900098B0F5A06F01D02A
:100AE000002DF2D03120FFF7CEFF08B1012400E045
:100AF0000024204638BD014600209F4A106820F09F
:100B0000F80040EAC100106070479E4908607047D5
:100B100002460020984B586820F47C1042EA0103FA
:100B20001843954B586070479649086670470146D0
:100B30000020914A506820F003000843506070473D
:100B40008D48406800F00C007047014600208A4A3A
:100B5000506820F0F00008435060704701460020C4
:100B6000854A506820F4E0600843506070470146B1
:100B70000020814A506820F4605040EAC100506073
:100B8000704729B17C4A527A02437B4B5A7204E087
:100B9000794A527A8243784B5A7270477A49086090
:100BA000704701460020744A506820F440400843D2
:100BB000506070470021754A11706F4A82F820100A
:100BC000012802D0042808D103E001216F4A1170E6
:100BD00004E005216D4A117000E000BF00BF7047BE
:100BE0006B49086070476449096A0143624A1162AF
:100BF0007047674944390860704730B500210022CA
:100C0000002400235C4D6D6805F00C0121B104291E
:100C100005D0082923D105E05E4D056022E05D4D39
:100C200005601FE0544D6D6805F47012524D6D68FB
:100C300005F48034022505EB92421CB9564D55430C
:100C400005600BE04C4D6D6815F4003F03D0524D2C
:100C50005543056002E04F4D5543056002E04D4DA0
:100C6000056000BF00BF444D6D6805F0F001090943
:100C70004A4D6B5C0568DD4045603F4D6D6805F48D
:100C8000E061090A454D6B5C4568DD4085603A4D81
:100C90006D6805F46051C90A404D6B5C4568DD40E4
:100CA000C560354D6D6805F44041890B3C4D6B5C6A
:100CB000C568B5FBF3F5056130BD29B12E4A52690F
:100CC00002432D4B5A6104E02B4A526982432A4B5E
:100CD0005A61704729B1284A92690243264B9A61AA
:100CE00004E0254A92698243234B9A61704729B1F7
:100CF000214AD2690243204BDA6104E01E4AD269DC
:100D000082431D4BDA61704729B11B4AD268024306
:100D1000194BDA6004E0184AD2688243164BDA6055
:100D2000704729B1144A12690243134B1A6104E057
:100D3000114A12698243104B1A61704714494039B5
:100D4000086070470F49C86470470B49C871704705
:100D50000948406A40F08070074948627047014680
:100D60000020054A92680A4201D0012000E00020DC
:100D70007047014988727047001002400000FFF878
:100D8000FFFFF6FE00004242D8004242201002401F
:100D90008004424200127A0000093D001800002041
:100DA0002800002010B504462CB90120FE4909682E
:100DB0000882002010BDFD49096808688047FA488C
:100DC00000680A30F6E710B5F7480068C078F849BF
:100DD0004978884213DCF4480068807878B9F24892
:100DE0000068808858B9F0480068C078EE49096802
:100DF0008872EE49096848688047002010BD0220CB
:100E0000FCE710B504462CB90120E74909680882BF
:100E1000002010BDE549096888688047E2480068FD
:100E20000C30F6E710B5E04B1B68D978DE4B1B6839
:100E30005879E04B1B689A6990470446DA48006885
:100E4000807AE8B13CB9D8480068007918B9D6482A
:100E50000068807808B1022010BD8CB9D3490968B8
:100E6000C8688047D04800684079CF490968C8728F
:100E7000CD480068C078CC49096808730020EBE7CA
:100E80000220E9E710B504462CB90220C6490968DA
:100E90000882002010BD0020C7490880C2480068B1
:100EA000007810F07F0F23D1BF490968487A10F00D
:100EB000200F06D0C049097841F00201BE4A1170E6
:100EC00005E0BD49097801F0FD01BB4A117010F041
:100ED000400F06D0B849097841F00101B64A1170B7
:100EE00005E0B549097801F0FE01B34A117036E01A
:100EF000AD480068007800F07F00012801D1AE48BD
:100F0000C8E7A9480068007800F07F00022824D1D3
:100F1000A54A1268517901F00F0011F0800F0DD031
:100F2000A64A52F8202002F03002102A14D1A24A18
:100F3000127842F00102A04B1A700DE09F4A52F85D
:100F4000202002F44052B2F5805F05D19A4A12780F
:100F500042F00102984B1A7001E000209AE7934991
:100F6000096808698047944894E72DE9F0478E485E
:100F70000068007800F07F08B8F1000F0AD18A48B5
:100F80000068407A00F0DF00874909684872002055
:100F9000BDE8F087B8F1020F7ED183480068408831
:100FA00018B981480068007908B10220F0E7DFF83D
:100FB00000927D480068477927F080052C467A48E2
:100FC0000068407910F0800F05D07C4850F824006C
:100FD00000F0300604E0794850F8240000F4405650
:100FE00099F80000A84204D91EB16F480068807AC1
:100FF00008B90220CCE717F0800F0ED06F4850F8E8
:10100000240000F0300010283FD1E0B200F0B3FF20
:10101000E0B2302100F05BFE37E0684850F8240071
:1010200000F44050B0F5805F2FD1C4B9644A92F803
:101030002C10E0B201F026F8604951F824104BF66C
:101040008F7201EA020080F4805080F4005040F476
:10105000004141F08001594A42F8241015E0E0B205
:1010600000F073FF554951F824104BF68F7201EAD6
:10107000020080F4805080F4005040F4004141F0C0
:1010800080014E4A42F8241000BF48490968486967
:10109000804700207CE7FFE700BF022078E72DE9CA
:1010A000F04141480068467926F080073C463E48BA
:1010B0000068407910F0800F05D0404850F82400B7
:1010C00000F0300504E03D4850F8240000F440559D
:1010D00037480078A04208D933480068408820B9D2
:1010E0001DB131480068807A10B90220BDE8F08156
:1010F00016F0800F10D0314951F8241048F6BF7215
:1011000001EA020080F0100040F4004141F080014B
:101110002A4A42F8241010E0284951F824104BF6CE
:101120008F7201EA020080F4805040F4004141F0E7
:101130008001224A42F8241000BF1C4909688869CE
:1011400080470020D2E710B517480068407A40F089
:10115000200015490968487214490968C869804720
:10116000002010BD10B502460F480068438A32B90E
:101170008888C01A0C4C24682082002010BD0868A2
:101180001844FBE72DE9F0410748006800F110041E
:101190002688A06838B336B3A588B54200D935464D
:1011A000A8B2A16888470DE034000020400000206C
:1011B000C8000020380000202E000020005C004005
:1011C000CC00002007462088401B208060882844EF
:1011D0006080002000F028FF8046AAB241463846D1
:1011E00000F016FD00BF208850B14FF44050FA497E
:1011F00008800021084600F023FF3020F7490880CE
:101200002088A188884204DB0320F5490968087218
:1012100018E02088002804DD0520F14909680872DB
:1012200010E0208870B90620ED4909680872002195
:10123000EC48006880B2801CEB4A42F81010302065
:10124000E6490880BDE8F0812DE9F047E4480068F0
:1012500000F110052E88E2480068077AD6B9042FFD
:1012600018D1E248007801280FD10021DD4800683C
:1012700080B2801CDC4A42F810103020D749088028
:1012800000BF0020D949087003E007271020D34988
:10129000088027E0AC88A64201D8042000E00220A4
:1012A0000746B44200D93446A0B2A96888478046B0
:1012B000002000F0A9FE8146A2B24946404600F057
:1012C0008DFCA1B2002000F0BBFE2888001B288006
:1012D0006888204468803020C04908800002BE49E8
:1012E000088000BFBE4909680F72BDE8F08770B57D
:1012F0000226BB4800684478B9480068007810F0BE
:101300007F0F44D1092C03D1FFF75DFD06465FE056
:10131000052C14D1B2480068C0787F280BDCB04897
:101320000068807838B9AE480068808818B9AC4841
:101330000068807A08B1082565E0002648E0032CA3
:101340000ED1A7480068C078012807D1A4480068DA
:10135000808818B9FFF7F7FE064639E0022637E025
:10136000012C35D19E480068C07801280DD19C48D9
:101370000068808848B99A480068407A10F0200FC9
:1013800003D0FFF7F2FD064622E0022620E0944853
:101390000068007800F07F00012805D10B2C17D1E0
:1013A000FFF740FD064613E08D480068007800F026
:1013B0007F0002280BD1012C03D1FFF7D6FD064692
:1013C00006E0032C04D1FFF76AFE064600E0022681
:1013D0004EB1E0B2864A1268516988470646032E2C
:1013E00001D109250FE00EB108250CE006250021EA
:1013F0007C48006880B2801C7B4A42F81010302084
:101400007649088000BF764909680D7270BD2DE9E4
:10141000F84F7348006845780027BA46062D1AD160
:101420006F480068007810F07F0F13D16C4909688D
:101430008878012803D16E490968CF690AE002283B
:1014400003D16B4909680F6A04E0032802D1684997
:1014500009684F6A97E0002D65D1614800684088AF
:10146000002860D15E480068C08802285BD15C48D3
:1014700000680079002856D159480068007810F0BB
:101480007F0F06D156480068808810B9AFF20B670D
:1014900079E053480068007800F07F00012811D1FE
:1014A0004F4909684879524909688A69002190477B
:1014B000002868D14A480068807A002863D0AFF2DB
:1014C0003B6760E046480068007800F07F00022833
:1014D00059D143480068407900F00F064048006841
:1014E000407900F070093E480068407910F0800FA4
:1014F00006D03C48503850F8260000F0300805E08F
:101500003848503850F8260000F4405839480078E0
:10151000B04238D9B9F1000F35D1B8F1000F32D04F
:10152000AFF29F672FE0082D08D12D4800680078A2
:1015300010F07F0F27D1AFF2937724E00A2D22D14C
:1015400027480068007800F07F0001281BD124485C
:101550000068807AB8B122480068408898B920486D
:101560000068007978B91E480068C08801280AD14F
:101570001B49096848791E4909688A690021904712
:1015800008B9AFF2817757B115480068A0F812A0EA
:101590001348006887610020B84700240FE0104A14
:1015A00012685078124A1268116988470446032C61
:1015B00005D109200A4909680872BDE8F88F084872
:1015C0000068008AA0F57F41FF3915D10920044940
:1015D00009680872F1E7000044000020460000207E
:1015E00034000020505C0040006000402C000020CF
:1015F00038000020C8000020022C03D09D4800685D
:10160000008A20B908209B4909680872D5E79948E3
:101610000068007810F0800F3CD096480068C088C1
:10162000009094480068008A0099884204D9914942
:1016300000980968088223E08E480068008A8D4976
:101640000968C98888421BDA8A480068008A8A4982
:10165000096891F82C10884203DA00208749087045
:101660000EE084480068008A8349096891F82C10CC
:1016700090FBF1F201FB120010B901207F490870C4
:101680007D48006890F82C107A4800688182FFF746
:10169000DBFD06E0032077490968087200037849FA
:1016A000088000BF89E710B5764890F82C1000201C
:1016B00000F0E8FC6F480068007A082805D1400275
:1016C0006F4908801020704908806A480068007AD5
:1016D000092801D1012010BD0020FCE738B5012404
:1016E0006A48006880B2001D694931F8100080B274
:1016F00001EB400000905F480068007A092832D072
:10170000009800785B49096808700098401C0090B8
:10171000009800785749096848700098401C00906C
:10172000009800EB44000090009931F8020B009102
:1017300000F046FE4F4909684880009800EB4400DD
:101740000090009931F8020B009100F039FE4949F0
:1017500009688880009800EB440000900098008899
:1017600044490968C8800120424909680872414813
:101770000068C08810B9FFF7BAFD01E0FFF747FE27
:10178000FFF791FF38BD30B50146424B1A78002073
:1017900012E0C3B23D4C503C54F8233048F68F74ED
:1017A000234048F280042343C4B22343C4B2374DDC
:1017B000503D45F82430401C9042EAD341F080036C
:1017C000324C241F236030BD10B52A480068047ACB
:1017D000022C01D0042C05D1FFF736FD2548006806
:1017E000047A1CE0062C19D12248006840780528AC
:1017F0000ED120480068007810F07F0F08D11D49F5
:101800000968C878FFF7BFFF23490968086A80475D
:101810001949096888688047082400E008241549A8
:1018200009680C72FFF73FFF10BD10B51148006842
:10183000047A022C01D0042C01D1082412E0032CDC
:1018400001D0052C05D1FFF79DFC0A480068047AF9
:1018500008E0072C05D108490968C86880470824B2
:1018600000E00824034909680C72FFF71CFF10BD53
:101870007047000034000020380000202C000020B9
:1018800044000020CC00002046000020505C0040B6
:1018900000600040C80000204000002010B508484B
:1018A000084908600220096808720748074908606B
:1018B000074808490860054909680868804710BD5D
:1018C0006001002034000020CC00002038000020FF
:1018D000FC0000204000002008B50020009015E129
:1018E000B748008800F00F00B64908700846007835
:1018F00000287DD1B4480068B449088008460088B3
:1019000000F03000B2490880B048008800F4405030
:10191000AE490880AC4909684BF6BF7201EA020083
:1019200080F4005080F0200040F4004141F080013C
:10193000A54A1160A248008810F0100F32D110465D
:10194000006848F60F71084011460860FFF73CFF39
:101950009D4909684BF6BF7201EA02009B4909885C
:1019600011F4805F01D080F480509849098811F407
:10197000005F01D080F400509549098811F0100FE4
:1019800001D080F010009249098811F0200F01D099
:1019900080F0200081B241F4004141F080018A4A88
:1019A000116008BD8848006880B20090BDF8000052
:1019B00010F4006F36D084480068C0F30E0048F67B
:1019C0008F71084080490860FFF788FE7E490968EA
:1019D0004BF6BF7201EA02007C49098811F4805F6E
:1019E00001D080F480507949098811F4005F00E04B
:1019F00052E001D080F400507549098811F0100FB1
:101A000001D080F010007249098811F0200F01D038
:101A100080F0200081B241F4004141F080016A4A27
:101A20001160BEE7BDF8000010F4004F6ED06648AC
:101A30000068C0F30E0048F68F71084062490860E4
:101A4000FFF7F3FE604909684BF6BF7201EA020036
:101A50005E49098811F4805F01D080F480505B49B1
:101A6000098811F4005F01D080F4005058490988BA
:101A700011F0100F01D080F010005549098811F0C5
:101A8000200F01D080F0200081B241F4004141F0EC
:101A900080014D4A116084E74A4800784A4951F86C
:101AA000200080B20090BDF8000010F4004F14D068
:101AB0004448007851F82000C0F30E0048F68F71BA
:101AC000084040490978404A42F821003D490978D8
:101AD000491E404A52F821008047BDF8000010F02E
:101AE000800F13D037480078374951F8200048F666
:101AF0000F71084033490978334A42F821003149CF
:101B00000978491E344A52F8210080472E48443053
:101B1000006880B22A49088010F4004F7FF4E0AEDC
:101B200000BF3EE710B5002440E047F6FF702649AD
:101B3000443108602248008800F00F0021490870F5
:101B400008460078204951F8200084B214F4004F70
:101B500015D01C48007851F82000C0F30E0048F65C
:101B60008F71084017490978174A42F82100154932
:101B70000978491E174A52F82100804716E014F0F0
:101B8000800F13D00F4800780F4951F8200048F615
:101B90000F7108400B4909780B4A42F821000949A6
:101BA0000978491E0C4A52F8210080470648443003
:101BB000006880B20249088010F4004FB5D110BD12
:101BC000B800002030000020005C004044000020ED
:101BD000460000209C00002080000020F0B5144644
:101BE00004F1010C4FEA6C07DFF848C00CEB41032D
:101BF0003D460AE00678401C90F800C046EA0C22F8
:101C000023F8022B9B1C401C6D1E002DF2D1F0BD51
:101C1000F0B5561C7510074E06EB41042B4605E047
:101C200034F8047B20F8017B401C5B1E002BF7D1AD
:101C3000F0BD000000600040F94908607047F848B6
:101C4000006880B27047F649091D08607047F44883
:101C5000001D006880B27047F1480830006880B20B
:101C60007047EF490C3108607047ED480C30006850
:101C700080B270474FF6F8710140E94A10321160A6
:101C80007047E7481030006880B27047E44A403A35
:101C900042F8201070470146E148403850F82100D2
:101CA00080B27047DE4A403A52F8202048F68F133F
:101CB0001A400A43DA4B403B43F820207047014664
:101CC000D748403850F8210000F4C060704710B584
:101CD000D34B403B53F8203048F6BF7403EA04026C
:101CE00011F0100F01D082F0100211F0200F01D07E
:101CF00082F0200242F4004343F08003C84C403C91
:101D000044F8203010BD10B5C54B403B53F820308F
:101D10004BF68F7403EA040211F4805F01D082F461
:101D2000805211F4005F01D082F4005242F400436B
:101D300043F08003BA4C403C44F8203010BD10B54D
:101D400002460B461046FFF7A6FF0446012B06D1BC
:101D500024F48050B249403941F8220007E0022BB8
:101D600005D124F01000AE49403941F8220010BDE1
:101D70000146AB48403850F8210000F03000704771
:101D80000146A748403850F8210000F44050704701
:101D9000A34A403A52F8202048F6BF7302EA0301F2
:101DA00081F0100181F0200141F4004242F08002F4
:101DB0009B4B403B43F820207047994A403A52F8E9
:101DC00020204BF68F7302EA030181F4805181F4E5
:101DD000005141F4004242F08002914B403B43F8F5
:101DE000202070478E49403951F8201041F480710D
:101DF00048F68F72114048F280021143884A403AF7
:101E000042F8201070478649403951F8201048F6B2
:101E10008F62114048F280021143814A403A42F8F1
:101E2000201070477E49403951F8201048F68F62E3
:101E3000114048F280021143794A403A42F820109A
:101E400070477749403951F8201041F4807148F6C5
:101E50008F72114048F280021143714A403A42F8B1
:101E6000201070476E49403951F8201041F48071BC
:101E700048F68F72114048F280021143684A403A96
:101E800042F8201070476649403951F8201048F652
:101E90008F62114048F280021143614A403A42F891
:101EA0002010704701465E48403850F8210000F08D
:101EB0003000102801D1012070470020FCE70146C6
:101EC0005748403850F8210000F44050B0F5805F8A
:101ED00001D1012070470020FCE75149403951F8F9
:101EE0002010C1F30E0148F68F7211404C4A403A5F
:101EF00042F8201070474A49403951F8201048F6FE
:101F00000F721140464A403A42F820107047444947
:101F1000403951F8201048F68F7211404CF280027F
:101F200011433F4A403A42F8201070473C4940393B
:101F300051F8201048F68F72114048F2C002114348
:101F4000374A403A42F8201070473549403951F835
:101F5000201011F4804F0DD03149403951F8201034
:101F600048F68F7211404CF2800211432C4A403ADD
:101F700042F8201070472A49403951F8201011F0DA
:101F8000400F0DD02649403951F8201048F68F7285
:101F9000114048F2C0021143214A403A42F8201051
:101FA00070471F4A403A52F8202048F68F731A4073
:101FB00048F280031A430A43194B403B43F8202060
:101FC000704701461648403850F8210000F00F00D5
:101FD000704710B54A105300114A1032126892B27D
:101FE00002EBC0020F4C44F8123010BD10B54A107D
:101FF00053000B4A1032126892B202EBC002121D5B
:10200000084C44F8123010BD0146054810300068F5
:1020100080B200EBC100034A32F8100080B2704772
:10202000405C0040006000400146E848006880B223
:1020300000EBC100001DE64A32F8100080B2704784
:10204000E24A126892B202EBC002921CE04B43F8E3
:102050001210704702463E290BDD481111F01F0F88
:1020600001D1431E98B24FF4004343EA802313602A
:1020700007E0481011F0010F01D0431C98B2830211
:102080001360704710B50246D048006880B200EB7C
:10209000C200801DCE4C04EB40033E290BDD4811ED
:1020A00011F01F0F01D1441EA0B24FF4004444EAC6
:1020B00080241C6007E0481011F0010F01D0441C7F
:1020C000A0B284021C6010BD0146C048006880B206
:1020D00000EBC100801CBE4A32F81000C0F30900BA
:1020E00070470146B948006880B200EBC100801D0E
:1020F000B74A32F81000C0F30900704730B54B10F2
:102100005C00B24B1B689BB203EBC003B04D45F8BB
:10211000134053105C00AD4B1B689BB203EBC00334
:102120001B1D45F8134030BD10B54A105300A74A97
:10213000126892B202EBC002A54C44F8123010BDF6
:1021400010B54A105300A14A126892B202EBC002C5
:10215000121D9F4C44F8123010BD01469B48006888
:1021600080B200EBC1009A4A32F8100080B270478A
:1021700001469648006880B200EBC100001D944AF9
:1021800032F8100080B2704730B50B46012B1FD1DA
:102190008E49096889B201EBC001891C8C4D05EBA1
:1021A00041043E2A0BDD511112F01F0F01D14D1ECB
:1021B000A9B24FF4004545EA8125256007E051109A
:1021C00012F0010F01D04D1CA9B28D0225600AE06A
:1021D000022B08D17D49096889B201EBC001891C35
:1021E0007B4C44F81120012B1FD17849096889B232
:1021F00001EBC001891D764D05EB41043E2A0BDD44
:10220000511112F01F0F01D14D1EA9B24FF400451C
:1022100045EA8125256007E0511012F0010F01D039
:102220004D1CA9B28D0225600AE0022B08D1674936
:10223000096889B201EBC001891D654C44F8112081
:1022400030BD30B5034601291FD16048006880B217
:1022500000EBC300801C5E4D05EB40043E2A0BDD05
:10226000501112F01F0F01D1451EA8B24FF40045C6
:1022700045EA8025256007E0501012F0010F01D0DB
:10228000451CA8B2850225600AE0022908D14F4802
:10229000006880B200EBC300801C4D4C44F8102055
:1022A00030BD30B5034601291FD14848006880B2CF
:1022B00000EBC300801D464D05EB40043E2A0BDDBC
:1022C000501112F01F0F01D1451EA8B24FF4004566
:1022D00045EA8025256007E0501012F0010F01D07B
:1022E000451CA8B2850225600AE0022908D13748BA
:1022F000006880B200EBC300801D354C44F810200C
:1023000030BD01463148006880B200EBC100801C3E
:102310002F4A32F81000C0F30900704701462B48DD
:10232000006880B200EBC100801D294A32F810001D
:10233000C0F30900704701462448006880B200EBF2
:10234000C100801D224A32F8100010F47C4F01D0E9
:10235000012070471D48006880B200EBC100801C5E
:102360001B4A32F810008005800D01D00220F0E7F2
:102370000020EEE701290ED1144A503A52F82020ED
:1023800048F68F731A4048F2C0031A430F4B503B74
:1023900043F820200FE002290DD10C4A503A52F8A0
:1023A000202048F68F731A404CF280031A43074BE3
:1023B000503B43F820207047024641EA0220704714
:1023C0000146CAB20B1243EA02207047505C00403B
:1023D0000060004000201D4908604FF43F401C4948
:1023E0000880084600881949091F086000207047C6
:1023F0002DE9F04104460E46154604F07F00FFF734
:1024000003FE0746AAB239463046FFF7E7FBA9B2FA
:1024100004F07F00FFF714FE0020BDE8F0812DE9F5
:10242000F04104460E46002504F07F00FFF759FEF8
:10243000054604F07F00FFF7F7FD07462A463946B8
:102440003046FFF7E5FB2846BDE8F081445C0040DC
:102450003E00002008B501212020FEF73BFC4FF490
:102460000070ADF8000003208DF8020014208DF8F4
:10247000030069464F48FEF777F94FF48020FEF7D6
:102480000AF94FF480204C49086008204871012067
:1024900088710846FEF788F808BD10B50020FEF7E1
:1024A0007DFB0121C805FEF722FC10BD0320434936
:1024B0000860704710B5424CA07A18B105203F491A
:1024C000086002E001203D490860FDF70BFF10BDE8
:1024D00008B54FF4A060FDF7EBFF14208DF8000065
:1024E00002208DF8010000208DF8020001208DF8F7
:1024F00003006846FDF7E1FF2A208DF80000002068
:102500008DF801006846FDF7D8FF08BD10B50446F8
:102510002CB14FF400712748FEF7D3F904E04FF4D3
:1025200000712448FEF7CBF910BD30B50B460021F1
:1025300000BF16E00A24B4EB107F05D9302404EB69
:10254000107403F8114005E0412404EB10740A3CB8
:1025500003F81140000100254C00641C1D554C1C63
:10256000E1B29142E6DB30BD70B516480468001D4B
:102570000568001D0668344454B1082212492046FB
:10258000FFF7D3FF0422104910312846FFF7CDFF93
:1025900070BD70B505460C462246C0212846FFF79F
:1025A0001DFB21460120FFF74BFD0120FFF7F0FB4B
:1025B00070BD0000001401404C00002050010020BC
:1025C00060010020E8F7FF1F56000020704700BFA1
:1025D000FEE700BFFEE700BFFEE700BFFEE7704773
:1025E0007047704710B500F02FF810BD704710B558
:1025F0004FF48020FEF74FF810BD0000704710B573
:102600000E490320FFF70BFF84B221460B48FFF76A
:10261000C0FF0320FFF7D1FB10BD09480068052863
:102620000AD1084801680068401C064A1060052964
:1026300002D1002011460860704700007C01002094
:10264000500100207000002010B588B000246648BA
:102650000068664908800846008800F400706449F4
:10266000098808420AD04FF6FF505F490860614868
:102670000078401C5F490870FFF7CFFF5B48008877
:1026800000F400405A490988084201D0FFF724F9B4
:102690005648008800F4806055490988084206D0F1
:1026A0004FF6FF30504908605349486880474F480B
:1026B000008800F400504E490988084203D04DF6C6
:1026C000FF70494908604948008800F48050484933
:1026D0000988084206D04EF6FF7043490860002082
:1026E00000F05DFA4148008800F400604049098824
:1026F00008420CD04148007810B100F0CCF902E05B
:10270000022000F04CFA4FF2FF703749086037485A
:10271000008800F4807036490988084261D04FF67D
:10272000FF6031490860081D006810F4004F52D066
:1027300033480068401C3249086008460068032896
:102740004CD92948001F006810F0080F46D12648D0
:10275000001F006880B22B490860002407E022486F
:10276000443850F8240080B24DF82400641C082C32
:10277000F5D32448006840F001002249086008466B
:10278000006880B21849091F08601E48006820F0E0
:1027900001001C4908600846006880B21249091F00
:1027A000086000BF1048006810F4806FFAD04FF640
:1027B000FF300D490860002407E05DF8240080B276
:1027C0000949443941F82400641C082CF5D3002041
:1027D0000B49086002E0002009490860072000F06A
:1027E000DEF908B010BD0000445C0040B8000020D5
:1027F0003E00002074000020CC0000205401002086
:10280000780000207C00002010B5FFF7ADFE00200E
:1028100082490968887200F015F9FFF7DBFD002096
:102820007F49086010BD10B500207C490968887296
:102830007C48C0797949096848720020774909685D
:10284000C872FFF717FA4FF400710020FFF72AFA59
:1028500010210020FFF73BFA40210020FFF7C6FBC4
:1028600080210020FFF7B5FB0020FFF7DBFA6E4860
:1028700090F82C100020FFF705FC0020FFF79DFAD0
:1028800000210120FFF70EFAC0210120FFF7A1FB74
:1028900020210120FFF71BFA00210120FFF733FA66
:1028A0004FF4C0610220FFF7FDF94FF48071022060
:1028B000FFF78FFB00210220FFF725FA20210220DD
:1028C000FFF705FA00210320FFF7ECF94FF48871B8
:1028D0000320FFF78BFB40210320FFF7D3FB4FF4CE
:1028E00040510320FFF70FFA00210320FFF7EFF913
:1028F0000020FEF748FF01204949086010BD4B4801
:10290000817A11B10521464A11607047042044497B
:102910000860704746480078202802D100204449CA
:10292000087070477047014629B908203B4A126871
:102930001082002070473F48FCE7014629B9082073
:10294000364A12681082002070473A48FCE770B59A
:1029500004460025212C09D130480068007800F099
:102960007F00212810D1AFF22D050DE0202C0BD1D6
:102970002A480068007800F07F00212801D1AFF2DA
:10298000590520202A4908700DB9022070BD23483E
:102990000068856100212148006841820020A84725
:1029A0000020F3E701461D480068007800F07F0032
:1029B000212807D1022901D100207047222901D105
:1029C0000020FAE70220F8E710B504461A4920462D
:1029D000FEF7C8FB10BD10B5044618492046FEF7A7
:1029E000C1FB10BD70B505460C480068C478042CC6
:1029F00001DD002070BD124800EBC4012846FEF73F
:102A0000B1FBF7E70246002901DD02207047012AE9
:102A100001DD0220FAE70020F8E700003400002082
:102A200050010020002D0008CC0000206001002093
:102A3000BC000020C0000020200100202801002050
:102A40003001002010B50120FFF760FD012484480B
:102A50000460002083490880084600888049086097
:102A60000020091D08604FF4E0507E4908800846A8
:102A700000887B490860002010BD10B5012078490E
:102A800008600020091D0860FFF740FD032074491D
:102A90000860002010BD18B500210022002300931B
:102AA0006F4B1B6898B200BF08E06D4B403B53F87A
:102AB00021309BB26C4C44F82130491C0829F4D3D6
:102AC00040F48060664B186040F00100186020F010
:102AD0000100186000BF624B1B1D1B6813F4806F60
:102AE000F9D04FF6FF335E4C241D2360002108E02F
:102AF0005D4B53F821309BB2594C403C44F8213097
:102B0000491C0829F4D340F00800554B18601B6895
:102B100098B240F00400524B1860544B1B6800936D
:102B2000524B1A6822F0030242F001021A60504B25
:102B30001B6843F004034E4C2360494B1B1D1B686C
:102B400013F4805F06D130BF23461B6823F00403D3
:102B5000236014E04EF6FF73414C241D2360231FB5
:102B60001B6898B220F00800231F18603F4C009BA0
:102B700023603F4B1B6823F004033D4C236018BDCA
:102B800010B53748006884B224F004043448046067
:102B9000FFF790FC4FF43F403149086010BD70B51D
:102BA0000546072D01D033480570324800780828C3
:102BB0004ED2DFE800F004111A202B384E4F2E4879
:102BC000006828B9FFF7DCFF06202A49087002E0F8
:102BD00005202849087041E0FFF7D2FF042025496D
:102BE000087001202449086038E00220214948701B
:102BF0000320087032E01F484078401E1D4948708D
:102C00000846407808B90420087027E01448006896
:102C100084B244F01004124804600520154908707D
:102C20000A2048701AE013484078401E1149487045
:102C30000846407858B90A48006884B224F0100465
:102C4000074804600620087000200B49086005E072
:102C500000BF00BF06200749087000BF00BF70BD5D
:102C6000405C00403E000020BC010020007000409D
:102C700010ED00E05C010020580100207047704713
:102C80007047754600F028F8AE4605006946534681
:102C900020F00700854618B020B5FDF7A3FABDE87F
:102CA00020404FF000064FF000074FF000084FF0B3
:102CB000000B21F00701AC46ACE8C009ACE8C00944
:102CC000ACE8C009ACE8C0098D4670470446AFF3D4
:102CD00000802046FDF771FA00487047DC010020B3
:102CE00001491820ABBEFEE7260002007047120122
:102CF0000002020000408304405700020102030169
:102D000009024300020100C032090400000102026E
:102D10000100052400100105240100010424020221
:102D20000524060001070582030800FF09040100CD
:102D3000020A0000000705030240000007058102A7
:102D4000400000040309042603530054004D0069A9
:102D500000630072006F0065006C00650063007422
:102D60000072006F006E006900630073003203534D
:102D70000054004D003300320020005600690072FC
:102D8000007400750061006C00200043004F004D8E
:102D900000200050006F007200740020002000002E
:102DA000C02D00080000002060010000280100087C
:102DB0004C2E000860010020E0060000840100089D
:102DC0001184A24A04A80901020304060708091095
:102DD0006914052802040608141A03531254124DEC
:102DE000123302213213FD250C1C087118040A113C
:102DF000FF249133C20112081A04071309281B0883
:102E000027041315291B0825041A4F041AA50413B7
:102E1000052A1B08C9081AD7041AE50441324039AB
:102E20005C19300916781A0D2C13EE2C4308121277
:102E30002D3308431A430832041A470832261A6D04
:0C2E40000829E6225473201A2992810010
:04000005080000ED02
:00000001FF
