:020000040800F2
:1000000010070020890100089101000893010008F1
:100010009501000897010008990100080000000000
:100020000000000000000000000000009B0100082C
:100030009D010008000000009F010008A5030008C2
:10004000A3010008A3010008A3010008A301000800
:10005000A3010008A3010008A3010008A3010008F0
:10006000A3010008A3010008A3010008A3010008E0
:10007000A3010008A3010008A3010008410500082E
:10008000A3010008A3010008A3010008A3010008C0
:10009000A3010008A3010008A3010008A3010008B0
:1000A000A3010008A3010008A3010008A3010008A0
:1000B000A3010008A3010008A3010008A301000890
:1000C000A3010008A3010008A3010008A301000880
:1000D000A301000835080008A3010008A3010008D7
:1000E000A3010008A3010008A301000800F002F822
:1000F00000F03AF80AA090E8000C82448344AAF188
:100100000107DA4501D100F02FF8AFF2090EBAE885
:100110000F0013F0010F18BFFB1A43F0010318473B
:100120004416000064160000103A24BF78C878C155
:10013000FAD8520724BF30C830C144BF04680C60ED
:10014000704700000023002400250026103A28BF35
:1001500078C1FBD8520728BF30C148BF0B60704739
:100160001FB51FBD10B510BD01F0C5FA1146FFF750
:10017000F7FF00F057FA01F0E3FA03B4FFF7F2FFDC
:1001800003BC01F0E7FA000009488047094800472E
:10019000FEE7FEE7FEE7FEE7FEE7FEE7FEE7FEE737
:1001A000FEE7FEE704480549054A064B7047000094
:1001B000A5020008ED000008100100201007002033
:1001C00010030020100300200CB5002001900090C7
:1001D0006B48006840F480306949086000BF684897
:1001E000006800F4003000900198401C01900098D5
:1001F00018B90198B0F5A06FF1D16148006810F40A
:10020000003F02D00120009001E000200090009803
:10021000012842D15B48006840F01000594908604D
:100220000846006820F0030008600846006840F0B7
:1002300002000860524840685149486008464068DA
:1002400048600846406840F480604860084640685E
:1002500020F47C1048600846406840F4E81048608C
:100260000846006840F08070086000BF444800689D
:1002700010F0007FFAD04248406820F00300404967
:1002800048600846406840F00200486000BF3C48B3
:10029000406800F00C000828F9D10CBD10B5FFF73C
:1002A00093FF10BD10B53648006840F00100344996
:1002B00008600846406834490840314948600846AB
:1002C0000068324908402E4908600846006820F45A
:1002D000802008600846406820F4FE0048604FF423
:1002E0001F008860FFF7DAFF4FF0006028490860C0
:1002F00010BD10B5002100200022214B5B6803F0E7
:100300000C0121B1042906D0082928D107E0214B8E
:10031000214C236027E01F4B1F4C236023E0184B28
:100320005B6803F47010164B5B6803F480320223A1
:1003300003EB904022B9194B4343174C23600DE067
:100340000F4B5B6813F4003F04D0144B4343124C33
:10035000236003E00F4B43430F4C236003E00D4B3E
:100360000D4C236000BF00BF054B5B68C3F3031354
:100370000B4CE15C084B1B68CB40074C236010BD65
:1003800000100240002002400000FFF8FFFFF6FED0
:1003900008ED00E000127A000000002000093D0096
:1003A000040000202848006800F180702649086099
:1003B000084600680860704710B504466FF00400F6
:1003C00000F09CFA6FF07F404FF0E0214861002080
:1003D00088610846006940F00300086110BD1A48B2
:1003E00001684FF0E0208269C2F18070084409235F
:1003F000B0FBF3F0704710B5FFF7F1FF04464FF480
:100400007A70B4FBF0F010BD70B50546FFF7F3FF4E
:100410000446264602E0FFF7EEFF0646301BA842E0
:10042000F9D3A642F7D370BD70B50546FFF7D7FFE5
:100430000446264602E0FFF7D2FF0646301BA842DC
:10044000F9D3A642F7D370BD1400002010B54FF4C5
:10045000A06000F003FA10BDF8B506460C4615463C
:100460000021304600F035FB8DF8004000208DF86B
:1004700001008DF8020001208DF80300684600F0AD
:10048000F2F901222946304600F02FFBF8BD0FB4E7
:1004900010B59DF8080020B90121084600F07DFE46
:1004A0000BE09DF80800012804D10121022000F092
:1004B00074FE02E010BC5DF814FB039800F03CFAF7
:1004C00004A9039800F0DAFA00BFF3E710B5044678
:1004D0000121204600F0FDFA10BD10B504460021B0
:1004E000204600F0F6FA10BD002064490870644808
:1004F00048606448886064486449097800EB0111E9
:100500005E48C16061480078401C60490870084638
:100510000078022801DB00200870002157480161A3
:1005200010214161002181618021C16100210162AE
:10053000416281624FF48051C162002101637047C2
:1005400010B54FF4003000F0FDFAA0B14FF40030C8
:1005500000F00BFB4A4800F0EFF9012240F2255170
:100560004848001F00F069FF002240F2244145483E
:10057000001F00F062FF10BD00B589B040F22551A8
:100580004048001F01F03EF840B340F225513D487D
:10059000001F01F061F8002240F225513948001F88
:1005A00000F04BFF012240F224413648001F00F0CA
:1005B00044FFFFF799FF242230491031684601F0CB
:1005C00065F82E480FC8FFF762FF02220F212C4862
:1005D000FFF742FF2A48FFF779FF21E040F224416C
:1005E0002848001F01F00EF8D0B140F22441254800
:1005F000001F01F031F80021214800F06AFA0122C1
:1006000040F225511F48001F00F017FF002240F262
:1006100024411C48001F00F010FF01201C490870F5
:1006200009B000BDFFF73EFE4820FFF7C5FEFFF70B
:100630000DFFAFF2BB0000F02DF84FF4165000F0A4
:100640002DF819E012480078012815D10020104932
:10065000087010210C4800F08FF810210A48103063
:1006600000F08AF808480021016041608160C160A3
:10067000016141618161C161E4E70000380000204F
:1006800058000240043801406C000020190000208E
:100690001800002008B16B490860704710B586B09B
:1006A0000446012144F2050000F084FD4FF400707F
:1006B000ADF8140003208DF8160018208DF81700EF
:1006C00005A9614800F0C0FA4FF48060ADF814004D
:1006D00004208DF8170005A95B4800F0B5FA252025
:1006E0008DF8000000208DF8010002208DF8020036
:1006F00001208DF80300684600F0B5F80194002051
:10070000ADF80800ADF80A00ADF80C00ADF8100027
:100710000C20ADF80E0001A94C4800F0F6FD0122B6
:1007200040F22551494800F088FE2021474800F05A
:1007300060FF4021454800F05CFF01224021434812
:1007400000F0A0FE0121414800F06BFE002040496E
:1007500008704049087006B010BD3C49098821F076
:1007600040013A4A1180111D088000BF37490988AD
:1007700011F0400FFAD0704730B504460D46002303
:1007800004E0E05CFFF7E9FF581C83B2AB42F8DB02
:1007900030BD00B5034603E01878FFF7DEFF5B1CB1
:1007A00018780028F8D100BD29480078243029495C
:1007B0000978401A242190FBF1F201FB1200C0B22B
:1007C000704724490A780978491C224B197022493C
:1007D000885C19460978242902DB00211A46117029
:1007E000704770B503461A4800782430194D2D78AB
:1007F000401B242590FBF5F605FB1600C4B2A14270
:1008000000DD2146002211E0124805780078401CE6
:10081000104E30701048405D9854304600782428BF
:1008200002DB002035462870501CC2B28A42EBDB46
:10083000084670BD10B50348006810B10148006853
:10084000804710BD20000020000801400038014012
:100850001C0000201D0000208C00002031490143B5
:10086000314A1160704770B5002100230F22C4780F
:100870000CB32D4C246804F4E064C4F5E064210A50
:10088000C1F10403CA40447804FA03F184781440A7
:1008900021430901254C0678A155047804F01F0571
:1008A0000124AC4005786D114FF0E02606EB85057C
:1008B000C5F8004109E0047804F01F050124AC40AC
:1008C0001B4D0678761145F8264070BD194A0A403E
:1008D0000243154B1B1F1A60704739B1124A121D93
:1008E00012680243104B1B1D1A6006E00E4A121DCF
:1008F000126882430C4B1B1D1A607047042808D1F4
:100900004FF0E021096941F004014FF0E02211614C
:1009100007E04FF0E021096921F004014FF0E022E7
:10092000116170470000FA050CED00E000E400E002
:1009300080E100E080FFFF1F01684FF6FE7211406A
:1009400001600021016041608160C1608C49884282
:1009500008D18B490839496841F00F01884A083AA3
:1009600051608AE086491431884208D184490839A7
:10097000496841F0F001824A083A51607DE08049BF
:100980002831884208D17E490839496841F47061AC
:100990007B4A083A516070E079493C31884208D17D
:1009A00077490839496841F47041754A083A5160FD
:1009B00063E073495031884208D171490839496868
:1009C00041F470216E4A083A516056E06C49643136
:1009D000884208D16A490839496841F47001684A77
:1009E000083A516049E066497831884208D1644943
:1009F0000839496841F07061614A083A51603CE049
:100A00006049884206D1011F096841F00F01021FA9
:100A1000116032E05B491431884208D15949091FFD
:100A2000096841F0F001574A121F116025E055494D
:100A30002831884208D15349091F096841F470617F
:100A4000504A121F116018E04E493C31884208D1CB
:100A50004C49091F096841F470414A4A121F11604C
:100A60000BE048495031884207D14649091F0968BF
:100A700041F47021434A121F1160704710B50022E3
:100A8000026847F6F0739A430C6A8B6823430C693B
:100A900023434C6923438C692343CC6923434C6A29
:100AA00023438C6A23431A430260CB6843600B687C
:100AB00083604B68C36010BD0021016041608160AC
:100AC000C160016141618161C16101624162816214
:100AD000704721B1026842F00102026004E002683E
:100AE0004FF6FE731A40026070471AB103680B4359
:100AF000036002E003688B43036070474160704706
:100B00000146486880B2704701460020002211F07B
:100B1000805F03D01B4B083B1A6802E0184B083B70
:100B20001A680A4201D0012000E00020704710F04E
:100B3000805F03D01349091F086002E0104908399B
:100B40004860704701460020002211F0805F03D00A
:100B50000C4B083B1A6802E0094B083B1A680A4232
:100B600001D0012000E00020704710F0805F03D02A
:100B70000449091F086002E00149083948607047CC
:100B8000080002400804024010B50446CA488442E6
:100B900008D10121042000F027FB0021042000F0EF
:100BA00023FB46E0C548844208D10121082000F01B
:100BB0001BFB0021082000F017FB3AE0C0488442EC
:100BC00008D10121102000F00FFB0021102000F0BF
:100BD0000BFB2EE0BB48844208D10121202000F00D
:100BE00003FB0021202000F0FFFA22E0B6488442F7
:100BF00008D10121402000F0F7FA0021402000F048
:100C0000F3FA16E0B148844208D10121802000F0B7
:100C1000EBFA0021802000F0E7FA0AE0AC488442B9
:100C200007D10121801500F0DFFA0021A01500F0A6
:100C3000DBFA10BD10B50121084600F0D5FA0021FD
:100C4000012000F0D1FA10BD2DE9F0410246002547
:100C50000026002000230024002791F803C00CF098
:100C60000F0591F803C01CF0100F03D091F802C0DB
:100C70004CEA050591F800C0BCF1000F31D01468B2
:100C800000202BE04FF0010C0CFA00F3B1F800C08B
:100C90000CEA03069E4220D183004FF00F0C0CFAA1
:100CA00003F7BC4305FA03FC4CEA040491F803C0C3
:100CB000BCF1280F06D14FF0010C0CFA00FCC2F871
:100CC00014C00AE091F803C0BCF1480F05D14FF001
:100CD000010C0CFA00FCC2F810C0401C0828D1D34B
:100CE0001460B1F800C0BCF1FF0F34DD546800207F
:100CF0002EE000F1080C4FF0010808FA0CF3B1F8EF
:100D000000C00CEA03069E4221D183004FF00F0C75
:100D10000CFA03F7BC4305FA03FC4CEA040491F80F
:100D200003C0BCF1280F05D100F1080C08FA0CF83B
:100D3000C2F8148091F803C0BCF1480F07D100F14C
:100D4000080C4FF0010808FA0CF8C2F81080401C9B
:100D50000828CED35460BDE8F0814FF6FF710180C2
:100D6000022181700421C1707047024600209368FF
:100D70000B4201D0012000E0002070470146886846
:100D800080B2704702460020D3680B4201D0012098
:100D900000E0002070470146C86880B270470161DA
:100DA0007047416170470AB1016100E041617047DD
:100DB000C16070474FF480320A4382618161826171
:100DC00082698269704702460020424B18684FF6DC
:100DD0008073184040EA021008433E4B1860704789
:100DE0003D49C8617047F0B50A4600230024002140
:100DF000002500F00046B6F1004F02D1354EF169F2
:100E000001E0344E7168C0F3034583B200F440162C
:100E1000B6F5401F08D121F070612E4E766826F09D
:100E200070662C4F7E6012E000F48016B6F5801FCD
:100E300006D1032606FA05F4A14341F0706106E0ED
:100E4000460D360103FA06F6B14341F0706122B156
:100E5000460D360103FA06F6314300F00046B6F1BE
:100E6000004F02D11B4EF16101E01A4E7160F0BDDE
:100E700030B500228B071C0F0F2303FA04F2154B29
:100E800008338C1053F824309343124C08348D10DF
:100E900044F8253023468C1053F824308C07240F57
:100EA00000FA04F423430B4C08348D1044F8253029
:100EB00030BD0A490860704700080140000C01403D
:100EC000001001400014014000180140001C0140C6
:100ED000002001400000014000002042DC002042D0
:100EE000DD48006840F00100DB49086008464068C2
:100EF000DA490840D849486008460068D84908409F
:100F0000D54908600846006820F48020086008463B
:100F1000406820F4FE0048604FF41F00886070476E
:100F2000CD49096821F48031CB4A11601146096826
:100F300021F480211160B0F5803F03D0B0F5802FFF
:100F40000ED106E0C449096841F48031C24A1160FB
:100F500007E0C149096841F4A021BF4A116000E0DF
:100F600000BF00BF704710B50146002200230020DB
:100F70004A11012A02D1B84C236806E0022A02D1A4
:100F8000B54C236A01E0B44C636A01F01F020124EE
:100F900094401C4201D0012000E0002010BD38B573
:100FA000002000900024002500BF3120FFF7DBFF68
:100FB00005460098401C00900098B0F5A06F01D045
:100FC000002DF2D03120FFF7CEFF08B1012400E060
:100FD0000024204638BD014600209F4A106820F0BA
:100FE000F80040EAC100106070479E4908607047F1
:100FF00002460020984B586820F47C1042EA010316
:101000001843954B586070479649086670470146EB
:101010000020914A506820F0030008435060704758
:101020008D48406800F00C007047014600208A4A55
:10103000506820F0F00008435060704701460020DF
:10104000854A506820F4E0600843506070470146CC
:101050000020814A506820F4605040EAC10050608E
:10106000704729B17C4A527A02437B4B5A7204E0A2
:10107000794A527A8243784B5A7270477A490860AB
:10108000704701460020744A506820F440400843ED
:10109000506070470021754A11706F4A82F8201025
:1010A000012802D0042808D103E001216F4A117001
:1010B00004E005216D4A117000E000BF00BF7047D9
:1010C0006B49086070476449096A0143624A1162CA
:1010D0007047674944390860704730B500210022E5
:1010E000002400235C4D6D6805F00C0121B104293A
:1010F00005D0082923D105E05E4D056022E05D4D55
:1011000005601FE0544D6D6805F47012524D6D6816
:1011100005F48034022505EB92421CB9564D554327
:1011200005600BE04C4D6D6815F4003F03D0524D47
:101130005543056002E04F4D5543056002E04D4DBB
:10114000056000BF00BF444D6D6805F0F00109095E
:101150004A4D6B5C0568DD4045603F4D6D6805F4A8
:10116000E061090A454D6B5C4568DD4085603A4D9C
:101170006D6805F46051C90A404D6B5C4568DD40FF
:10118000C560354D6D6805F44041890B3C4D6B5C85
:10119000C568B5FBF3F5056130BD29B12E4A52692A
:1011A00002432D4B5A6104E02B4A526982432A4B79
:1011B0005A61704729B1284A92690243264B9A61C5
:1011C00004E0254A92698243234B9A61704729B112
:1011D000214AD2690243204BDA6104E01E4AD269F7
:1011E00082431D4BDA61704729B11B4AD268024322
:1011F000194BDA6004E0184AD2688243164BDA6071
:10120000704729B1144A12690243134B1A6104E072
:10121000114A12698243104B1A61704714494039D0
:10122000086070470F49C86470470B49C871704720
:101230000948406A40F0807007494862704701469B
:101240000020054A92680A4201D0012000E00020F7
:101250007047014988727047001002400000FFF893
:10126000FFFFF6FE00004242D8004242201002403A
:101270008004424200127A0000093D002400002050
:101280003400002010B50446FB48844209D10121F6
:101290008803FFF7A9FF00214FF48040FFF7A4FF68
:1012A00032E0F648844209D101214804FFF7A9FF42
:1012B00000214FF40030FFF7A4FF25E0F0488442FE
:1012C00009D101218804FFF79CFF00214FF4802001
:1012D000FFF797FF18E0EB48844209D10121C804C9
:1012E000FFF78FFF00214FF40020FFF78AFF0BE08C
:1012F000E548844208D101210805FFF782FF00215B
:101300004FF48010FFF77DFF10BD2DE9F04786B048
:1013100005460E460024A24600BFA1460027B0891C
:1013200000B100BF2F462C8A4CF6FF700440F088B5
:1013300004432C82AC894EF6F3100440B088318906
:101340000843718908430443AC81AC8A4FF6FF40DF
:101350000440B0890443AC8201A8FFF7BEFEC64832
:10136000874202D1DDF810A001E0DDF80CA0A889C9
:1013700010F4004F08D00AEBCA0000EB0A103168E5
:101380004900B0FBF1F807E00AEBCA0000EB0A10D5
:1013900031688900B0FBF1F86420B8FBF0F004017B
:1013A0002009642101FB1089A88910F4004F08D09E
:1013B000322000EBC900B0FBF1F000F0070004435D
:1013C00008E0322000EB09106421B0FBF1F000F0DE
:1013D0000F0004432C8106B0BDE8F0874FF416518E
:1013E000016000218180C18001810C2141810021A7
:1013F0008181704710B502460020108A4FF2FF032A
:1014000018400B884C8823438C882343CC88234383
:101410001843108210BD0021018041808180C1806D
:10142000704721B1828942F40052828104E08289AE
:101430004DF6FF731A4082817047F0B503460024D1
:10144000002600250020A1F510676A3F00D100BFEB
:101450001846C1F3421401F01F06012707FA06F5EA
:10146000012C01D10C3004E0022C01D1103000E03D
:1014700014301AB107682F43076002E00768AF43D2
:101480000760F0BD1AB1838A0B43838202E0838A2E
:101490008B4383827047028A4FF6F0731A400282B0
:1014A000028A0A430282704782894FF2FF731A4010
:1014B000828182890A438281704721B1828942F008
:1014C0000202828104E082894FF6FD731A40828114
:1014D0007047028A4FF6DF731A400282028A0A437B
:1014E0000282704721B1028A42F48042028204E003
:1014F000028A4BF6FF731A4002827047C1F308025A
:101500008280704701468888C0F30800704781894F
:1015100041F0010181817047028BD2B20283028BBC
:1015200042EA012202837047028B02F47F42028367
:10153000028B0A430283704721B1828A42F0200263
:10154000828204E0828A4FF6DF731A4082827047FB
:1015500021B1828A42F01002828204E0828A4FF630
:10156000EF731A408282704721B1828A42F00802EA
:10157000828204E0828A4FF6F7731A4082827047B3
:1015800021B1828942F40042828103E08289C2F360
:101590000E028281704721B1828A42F40062828207
:1015A00004E0828A4FF2FF731A4082827047828A77
:1015B0004FF6FB731A408282828A0A438282704706
:1015C00021B1828A42F00202828204E0828A4FF6CE
:1015D000FD731A408282704702460020B1F5007FF9
:1015E00000D100BF13880B4201D0012000E0002091
:1015F000704701F40072B2F5007F00D100BFCA430A
:101600000280704770B502460024002300250020A8
:10161000A1F510666A3E00D100BFC1F3421501F08A
:101620001F03012606FA03F3012D02D196893340E8
:1016300006E0022D02D1168A334001E0968A33403B
:101640000C12012606FA04F41688344013B10CB1CA
:10165000012000E0002070BD10B500220023A1F59C
:1016600010646A3C00D100BF0A1201249440A3B266
:10167000DC43048010BD00000038014000440040FD
:1016800000480040004C00400050004010B5203A97
:10169000C0F00B80B1E81850203AA0E81850B1E82B
:1016A0001850A0E81850BFF4F5AF5FEA027C24BFE1
:1016B000B1E81850A0E8185044BF18C918C0BDE8D8
:1016C00010405FEA827C24BF51F8043B40F8043BA1
:1016D00008BF7047D20728BF31F8023B48BF11F856
:1016E000012B28BF20F8023B48BF00F8012B7047B0
:1016F000704770477047754600F028F8AE46050001
:101700006946534620F00700854618B020B5FEF71D
:1017100049FDBDE820404FF000064FF000074FF0B4
:1017200000084FF0000B21F00701AC46ACE8C009FF
:10173000ACE8C009ACE8C009ACE8C0098D46704708
:101740000446AFF300802046FEF717FD00487047BF
:10175000B000002001491820ABBEFEE726000200C1
:1017600070470000841700080000002038000000C7
:1017700028010008BC17000838000020D806000027
:101780004401000800A24A0400000000000000001C
:101790000102030406070809000000000000000021
:1017A000000000000000000000000000010203042F
:0C17B000010203040607080902040608F1
:04000005080000ED02
:00000001FF
